{
  "_format": "hh-sol-artifact-1",
  "contractName": "ColorBoxV1",
  "sourceName": "contracts/ColorBoxV1.sol",
  "abi": [
    {
      "anonymous": false,
      "inputs": [
        {
          "indexed": false,
          "internalType": "string",
          "name": "newValue",
          "type": "string"
        }
      ],
      "name": "ColorChanged",
      "type": "event"
    },
    {
      "anonymous": false,
      "inputs": [
        {
          "indexed": false,
          "internalType": "uint8",
          "name": "version",
          "type": "uint8"
        }
      ],
      "name": "Initialized",
      "type": "event"
    },
    {
      "anonymous": false,
      "inputs": [
        {
          "indexed": true,
          "internalType": "address",
          "name": "previousOwner",
          "type": "address"
        },
        {
          "indexed": true,
          "internalType": "address",
          "name": "newOwner",
          "type": "address"
        }
      ],
      "name": "OwnershipTransferred",
      "type": "event"
    },
    {
      "anonymous": false,
      "inputs": [
        {
          "indexed": false,
          "internalType": "bool",
          "name": "newValue",
          "type": "bool"
        }
      ],
      "name": "ShouldRevertChanged",
      "type": "event"
    },
    {
      "inputs": [
        {
          "internalType": "string",
          "name": "newColor",
          "type": "string"
        }
      ],
      "name": "changeColorCouldRevert",
      "outputs": [],
      "stateMutability": "nonpayable",
      "type": "function"
    },
    {
      "inputs": [
        {
          "internalType": "string",
          "name": "newColor",
          "type": "string"
        }
      ],
      "name": "changeColorDryRun",
      "outputs": [],
      "stateMutability": "nonpayable",
      "type": "function"
    },
    {
      "inputs": [
        {
          "internalType": "string",
          "name": "newColor",
          "type": "string"
        }
      ],
      "name": "changeColorOwner",
      "outputs": [],
      "stateMutability": "nonpayable",
      "type": "function"
    },
    {
      "inputs": [
        {
          "internalType": "string",
          "name": "newValue",
          "type": "string"
        }
      ],
      "name": "changeValueNoRevert",
      "outputs": [],
      "stateMutability": "nonpayable",
      "type": "function"
    },
    {
      "inputs": [],
      "name": "getColor",
      "outputs": [
        {
          "internalType": "string",
          "name": "",
          "type": "string"
        }
      ],
      "stateMutability": "view",
      "type": "function"
    },
    {
      "inputs": [
        {
          "internalType": "string",
          "name": "_testKey",
          "type": "string"
        }
      ],
      "name": "getMapping",
      "outputs": [
        {
          "internalType": "uint256",
          "name": "",
          "type": "uint256"
        }
      ],
      "stateMutability": "view",
      "type": "function"
    },
    {
      "inputs": [],
      "name": "getVersion",
      "outputs": [
        {
          "internalType": "string",
          "name": "",
          "type": "string"
        }
      ],
      "stateMutability": "pure",
      "type": "function"
    },
    {
      "inputs": [
        {
          "internalType": "string",
          "name": "initialColor",
          "type": "string"
        }
      ],
      "name": "initialize",
      "outputs": [],
      "stateMutability": "nonpayable",
      "type": "function"
    },
    {
      "inputs": [],
      "name": "owner",
      "outputs": [
        {
          "internalType": "address",
          "name": "",
          "type": "address"
        }
      ],
      "stateMutability": "view",
      "type": "function"
    },
    {
      "inputs": [],
      "name": "renounceOwnership",
      "outputs": [],
      "stateMutability": "nonpayable",
      "type": "function"
    },
    {
      "inputs": [],
      "name": "shouldRevert",
      "outputs": [
        {
          "internalType": "bool",
          "name": "",
          "type": "bool"
        }
      ],
      "stateMutability": "view",
      "type": "function"
    },
    {
      "inputs": [],
      "name": "switchShouldRevert",
      "outputs": [],
      "stateMutability": "nonpayable",
      "type": "function"
    },
    {
      "inputs": [
        {
          "internalType": "string",
          "name": "",
          "type": "string"
        }
      ],
      "name": "testMapping",
      "outputs": [
        {
          "internalType": "uint256",
          "name": "",
          "type": "uint256"
        }
      ],
      "stateMutability": "view",
      "type": "function"
    },
    {
      "inputs": [],
      "name": "testRevert",
      "outputs": [],
      "stateMutability": "pure",
      "type": "function"
    },
    {
      "inputs": [
        {
          "internalType": "address",
          "name": "newOwner",
          "type": "address"
        }
      ],
      "name": "transferOwnership",
      "outputs": [],
      "stateMutability": "nonpayable",
      "type": "function"
    },
    {
      "inputs": [
        {
          "internalType": "string",
          "name": "_testKey",
          "type": "string"
        },
        {
          "internalType": "uint256",
          "name": "_testVal",
          "type": "uint256"
        }
      ],
      "name": "updateMapping",
      "outputs": [],
      "stateMutability": "nonpayable",
      "type": "function"
    }
  ],
  "bytecode": "0x608060405234801561001057600080fd5b50610b9d806100206000396000f3fe608060405234801561001057600080fd5b50600436106101005760003560e01c80639a86139b11610097578063d3072d8211610066578063d3072d821461020a578063e186e72714610227578063f2fde38b1461023a578063f62d18881461024d57600080fd5b80639a86139b146101d4578063a26388bb146101dc578063ac7a25ee146101e4578063b85b2995146101f757600080fd5b806315b60141116100d357806315b60141146101735780635f6066621461019e578063715018a6146101b15780638da5cb5b146101b957600080fd5b80630cab219a146101055780630d8e6e2c1461011a57806311f45e9c1461014a578063142c9eb51461016b575b600080fd5b61011861011336600461097d565b610260565b005b604080518082019091526002815261563160f01b60208201525b6040516101419190610ab3565b60405180910390f35b61015d6101583660046109ea565b6102f2565b604051908152602001610141565b61011861031a565b61015d6101813660046109ea565b805160208183018101805160678252928201919093012091525481565b6101186101ac366004610a25565b61036f565b610118610394565b6033546040516001600160a01b039091168152602001610141565b6101346103a8565b61011861047e565b6101186101f236600461097d565b6104c6565b61011861020536600461097d565b6102a8565b6066546102179060ff1681565b6040519015158152602001610141565b61011861023536600461097d565b6104f7565b61011861024836600461094f565b6104ff565b61011861025b3660046109ea565b610578565b60665460ff16156102a85760405162461bcd60e51b815260206004820152600d60248201526c14d95d081d1bc81c995d995c9d609a1b60448201526064015b60405180910390fd5b6102b4606583836107bb565b507fea8482eb24fdcbd88250f9fd14644f201467fcaf3c5f08a0675ed9d46977ae3b82826040516102e6929190610a84565b60405180910390a15050565b60006067826040516103049190610a68565b9081526020016040518091039020549050919050565b6103226106a4565b6066805460ff8082161560ff1990921682179092556040519116151581527f88e95cf2f314e458491f98f3be8f296ee704bfc5b2cbeddcda73b61d44c9060b9060200160405180910390a1565b806067836040516103809190610a68565b908152604051908190036020019020555050565b61039c6106a4565b6103a660006106fe565b565b60665460609060ff16156103ee5760405162461bcd60e51b815260206004820152600d60248201526c14d95d081d1bc81c995d995c9d609a1b604482015260640161029f565b606580546103fb90610b16565b80601f016020809104026020016040519081016040528092919081815260200182805461042790610b16565b80156104745780601f1061044957610100808354040283529160200191610474565b820191906000526020600020905b81548152906001019060200180831161045757829003601f168201915b5050505050905090565b60405162461bcd60e51b815260206004820152601760248201527f43616c6c20686173206265656e20726576657274656421000000000000000000604482015260640161029f565b7fea8482eb24fdcbd88250f9fd14644f201467fcaf3c5f08a0675ed9d46977ae3b82826040516102e6929190610a84565b6102a86106a4565b6105076106a4565b6001600160a01b03811661056c5760405162461bcd60e51b815260206004820152602660248201527f4f776e61626c653a206e6577206f776e657220697320746865207a65726f206160448201526564647265737360d01b606482015260840161029f565b610575816106fe565b50565b600054610100900460ff16158080156105985750600054600160ff909116105b806105b25750303b1580156105b2575060005460ff166001145b6106155760405162461bcd60e51b815260206004820152602e60248201527f496e697469616c697a61626c653a20636f6e747261637420697320616c72656160448201526d191e481a5b9a5d1a585b1a5e995960921b606482015260840161029f565b6000805460ff191660011790558015610638576000805461ff0019166101001790555b610640610750565b815161065390606590602085019061083f565b506066805460ff1916905580156106a0576000805461ff0019169055604051600181527f7f26b83ff96e1f2b6a682f133852f6798a09c465da95921460cefb3847402498906020016102e6565b5050565b6033546001600160a01b031633146103a65760405162461bcd60e51b815260206004820181905260248201527f4f776e61626c653a2063616c6c6572206973206e6f7420746865206f776e6572604482015260640161029f565b603380546001600160a01b038381166001600160a01b0319831681179093556040519116919082907f8be0079c531659141344cd1fd0a4f28419497f9722a3daafe3b4186f6b6457e090600090a35050565b600054610100900460ff166103a65760405162461bcd60e51b815260206004820152602b60248201527f496e697469616c697a61626c653a20636f6e7472616374206973206e6f74206960448201526a6e697469616c697a696e6760a81b606482015260840161029f565b8280546107c790610b16565b90600052602060002090601f0160209004810192826107e9576000855561082f565b82601f106108025782800160ff1982351617855561082f565b8280016001018555821561082f579182015b8281111561082f578235825591602001919060010190610814565b5061083b9291506108b3565b5090565b82805461084b90610b16565b90600052602060002090601f01602090048101928261086d576000855561082f565b82601f1061088657805160ff191683800117855561082f565b8280016001018555821561082f579182015b8281111561082f578251825591602001919060010190610898565b5b8082111561083b57600081556001016108b4565b600082601f8301126108d8578081fd5b813567ffffffffffffffff808211156108f3576108f3610b51565b604051601f8301601f19908116603f0116810190828211818310171561091b5761091b610b51565b81604052838152866020858801011115610933578485fd5b8360208701602083013792830160200193909352509392505050565b600060208284031215610960578081fd5b81356001600160a01b0381168114610976578182fd5b9392505050565b6000806020838503121561098f578081fd5b823567ffffffffffffffff808211156109a6578283fd5b818501915085601f8301126109b9578283fd5b8135818111156109c7578384fd5b8660208285010111156109d8578384fd5b60209290920196919550909350505050565b6000602082840312156109fb578081fd5b813567ffffffffffffffff811115610a11578182fd5b610a1d848285016108c8565b949350505050565b60008060408385031215610a37578182fd5b823567ffffffffffffffff811115610a4d578283fd5b610a59858286016108c8565b95602094909401359450505050565b60008251610a7a818460208701610ae6565b9190910192915050565b60208152816020820152818360408301376000818301604090810191909152601f909201601f19160101919050565b6020815260008251806020840152610ad2816040850160208701610ae6565b601f01601f19169190910160400192915050565b60005b83811015610b01578181015183820152602001610ae9565b83811115610b10576000848401525b50505050565b600181811c90821680610b2a57607f821691505b60208210811415610b4b57634e487b7160e01b600052602260045260246000fd5b50919050565b634e487b7160e01b600052604160045260246000fdfea2646970667358221220edcf0a1b72dd3477c549f188c2a81f0be39fef89cdcaa12de066879b2f42ca0c64736f6c63430008040033",
  "linkReferences": {},
  "deployedLinkReferences": {}
}