{
  "contracts/SolidityFeaturesContract.sol": {
    "SolidityFeaturesContract": {
      "abi": [
        {
          "inputs": [
            {
              "internalType": "string",
              "name": "_testKey",
              "type": "string"
            },
            {
              "internalType": "uint256",
              "name": "_testVal",
              "type": "uint256"
            }
          ],
          "stateMutability": "nonpayable",
          "type": "constructor"
        },
        {
          "anonymous": false,
          "inputs": [
            {
              "indexed": false,
              "internalType": "uint256",
              "name": "num",
              "type": "uint256"
            },
            {
              "indexed": false,
              "internalType": "string",
              "name": "str",
              "type": "string"
            }
          ],
          "name": "TestEvent",
          "type": "event"
        },
        {
          "inputs": [],
          "name": "getTestBool",
          "outputs": [
            {
              "internalType": "bool",
              "name": "",
              "type": "bool"
            }
          ],
          "stateMutability": "view",
          "type": "function"
        },
        {
          "inputs": [
            {
              "internalType": "string",
              "name": "_testKey",
              "type": "string"
            }
          ],
          "name": "getTestMapping",
          "outputs": [
            {
              "internalType": "uint256",
              "name": "",
              "type": "uint256"
            }
          ],
          "stateMutability": "view",
          "type": "function"
        },
        {
          "inputs": [],
          "name": "testBool",
          "outputs": [
            {
              "internalType": "bool",
              "name": "",
              "type": "bool"
            }
          ],
          "stateMutability": "view",
          "type": "function"
        },
        {
          "inputs": [
            {
              "internalType": "uint256",
              "name": "_num",
              "type": "uint256"
            },
            {
              "internalType": "string",
              "name": "_str",
              "type": "string"
            }
          ],
          "name": "testEvent",
          "outputs": [],
          "stateMutability": "nonpayable",
          "type": "function"
        },
        {
          "inputs": [
            {
              "internalType": "string",
              "name": "",
              "type": "string"
            }
          ],
          "name": "testMapping",
          "outputs": [
            {
              "internalType": "uint256",
              "name": "",
              "type": "uint256"
            }
          ],
          "stateMutability": "view",
          "type": "function"
        },
        {
          "inputs": [],
          "name": "testRevert",
          "outputs": [],
          "stateMutability": "pure",
          "type": "function"
        },
        {
          "inputs": [
            {
              "internalType": "bool",
              "name": "_testBool",
              "type": "bool"
            }
          ],
          "name": "updateTestBool",
          "outputs": [],
          "stateMutability": "nonpayable",
          "type": "function"
        },
        {
          "inputs": [
            {
              "internalType": "string",
              "name": "_testKey",
              "type": "string"
            },
            {
              "internalType": "uint256",
              "name": "_testVal",
              "type": "uint256"
            }
          ],
          "name": "updateTestMapping",
          "outputs": [],
          "stateMutability": "nonpayable",
          "type": "function"
        }
      ],
      "devdoc": {
        "kind": "dev",
        "methods": {},
        "version": 1
      },
      "evm": {
        "bytecode": {
          "linkReferences": {},
          "object": "608060405234801561001057600080fd5b506040516105ea3803806105ea83398101604081905261002f91610058565b80600083604051610040919061010a565b908152604051908190036020019020555061016c9050565b6000806040838503121561006a578182fd5b82516001600160401b0380821115610080578384fd5b818501915085601f830112610093578384fd5b8151818111156100a5576100a5610156565b604051601f8201601f19908116603f011681019083821181831017156100cd576100cd610156565b816040528281528860208487010111156100e5578687fd5b6100f6836020830160208801610126565b602097909701519698969750505050505050565b6000825161011c818460208701610126565b9190910192915050565b60005b83811015610141578181015183820152602001610129565b83811115610150576000848401525b50505050565b634e487b7160e01b600052604160045260246000fd5b61046f8061017b6000396000f3fe608060405234801561001057600080fd5b50600436106100885760003560e01c806361913bcf1161005b57806361913bcf14610110578063a26388bb14610131578063ccf449b414610139578063ce6009081461014c57600080fd5b806306e8fac21461008d57806315b60141146100a25780632bc13f2b146100e057806336aacafa146100f3575b600080fd5b6100a061009b366004610315565b610157565b005b6100cd6100b03660046102da565b805160208183018101805160008252928201919093012091525481565b6040519081526020015b60405180910390f35b6100a06100ee366004610358565b61017c565b6001546101009060ff1681565b60405190151581526020016100d7565b6100a061011e3660046102b3565b6001805460ff1916911515919091179055565b6100a06101b9565b6100cd6101473660046102da565b610205565b60015460ff16610100565b80600083604051610168919061039d565b908152604051908190036020019020555050565b7f1be7c4acf0f0eba0992603759c32d028600239a9034d28a643e234992e646aa482826040516101ad9291906103b9565b60405180910390a15050565b60405162461bcd60e51b815260206004820152601760248201527f43616c6c20686173206265656e20726576657274656421000000000000000000604482015260640160405180910390fd5b60008082604051610216919061039d565b9081526020016040518091039020549050919050565b600082601f83011261023c578081fd5b813567ffffffffffffffff8082111561025757610257610423565b604051601f8301601f19908116603f0116810190828211818310171561027f5761027f610423565b81604052838152866020858801011115610297578485fd5b8360208701602083013792830160200193909352509392505050565b6000602082840312156102c4578081fd5b813580151581146102d3578182fd5b9392505050565b6000602082840312156102eb578081fd5b813567ffffffffffffffff811115610301578182fd5b61030d8482850161022c565b949350505050565b60008060408385031215610327578081fd5b823567ffffffffffffffff81111561033d578182fd5b6103498582860161022c565b95602094909401359450505050565b6000806040838503121561036a578182fd5b82359150602083013567ffffffffffffffff811115610387578182fd5b6103938582860161022c565b9150509250929050565b600082516103af8184602087016103f3565b9190910192915050565b82815260406020820152600082518060408401526103de8160608501602087016103f3565b601f01601f1916919091016060019392505050565b60005b8381101561040e5781810151838201526020016103f6565b8381111561041d576000848401525b50505050565b634e487b7160e01b600052604160045260246000fdfea2646970667358221220cb968b46d63c8721c888c14cbe5166ae6481a88da9b122e7ec64773f91a13e7e64736f6c63430008040033",
          "opcodes": "PUSH1 0x80 PUSH1 0x40 MSTORE CALLVALUE DUP1 ISZERO PUSH2 0x10 JUMPI PUSH1 0x0 DUP1 REVERT JUMPDEST POP PUSH1 0x40 MLOAD PUSH2 0x5EA CODESIZE SUB DUP1 PUSH2 0x5EA DUP4 CODECOPY DUP2 ADD PUSH1 0x40 DUP2 SWAP1 MSTORE PUSH2 0x2F SWAP2 PUSH2 0x58 JUMP JUMPDEST DUP1 PUSH1 0x0 DUP4 PUSH1 0x40 MLOAD PUSH2 0x40 SWAP2 SWAP1 PUSH2 0x10A JUMP JUMPDEST SWAP1 DUP2 MSTORE PUSH1 0x40 MLOAD SWAP1 DUP2 SWAP1 SUB PUSH1 0x20 ADD SWAP1 KECCAK256 SSTORE POP PUSH2 0x16C SWAP1 POP JUMP JUMPDEST PUSH1 0x0 DUP1 PUSH1 0x40 DUP4 DUP6 SUB SLT ISZERO PUSH2 0x6A JUMPI DUP2 DUP3 REVERT JUMPDEST DUP3 MLOAD PUSH1 0x1 PUSH1 0x1 PUSH1 0x40 SHL SUB DUP1 DUP3 GT ISZERO PUSH2 0x80 JUMPI DUP4 DUP5 REVERT JUMPDEST DUP2 DUP6 ADD SWAP2 POP DUP6 PUSH1 0x1F DUP4 ADD SLT PUSH2 0x93 JUMPI DUP4 DUP5 REVERT JUMPDEST DUP2 MLOAD DUP2 DUP2 GT ISZERO PUSH2 0xA5 JUMPI PUSH2 0xA5 PUSH2 0x156 JUMP JUMPDEST PUSH1 0x40 MLOAD PUSH1 0x1F DUP3 ADD PUSH1 0x1F NOT SWAP1 DUP2 AND PUSH1 0x3F ADD AND DUP2 ADD SWAP1 DUP4 DUP3 GT DUP2 DUP4 LT OR ISZERO PUSH2 0xCD JUMPI PUSH2 0xCD PUSH2 0x156 JUMP JUMPDEST DUP2 PUSH1 0x40 MSTORE DUP3 DUP2 MSTORE DUP9 PUSH1 0x20 DUP5 DUP8 ADD ADD GT ISZERO PUSH2 0xE5 JUMPI DUP7 DUP8 REVERT JUMPDEST PUSH2 0xF6 DUP4 PUSH1 0x20 DUP4 ADD PUSH1 0x20 DUP9 ADD PUSH2 0x126 JUMP JUMPDEST PUSH1 0x20 SWAP8 SWAP1 SWAP8 ADD MLOAD SWAP7 SWAP9 SWAP7 SWAP8 POP POP POP POP POP POP POP JUMP JUMPDEST PUSH1 0x0 DUP3 MLOAD PUSH2 0x11C DUP2 DUP5 PUSH1 0x20 DUP8 ADD PUSH2 0x126 JUMP JUMPDEST SWAP2 SWAP1 SWAP2 ADD SWAP3 SWAP2 POP POP JUMP JUMPDEST PUSH1 0x0 JUMPDEST DUP4 DUP2 LT ISZERO PUSH2 0x141 JUMPI DUP2 DUP2 ADD MLOAD DUP4 DUP3 ADD MSTORE PUSH1 0x20 ADD PUSH2 0x129 JUMP JUMPDEST DUP4 DUP2 GT ISZERO PUSH2 0x150 JUMPI PUSH1 0x0 DUP5 DUP5 ADD MSTORE JUMPDEST POP POP POP POP JUMP JUMPDEST PUSH4 0x4E487B71 PUSH1 0xE0 SHL PUSH1 0x0 MSTORE PUSH1 0x41 PUSH1 0x4 MSTORE PUSH1 0x24 PUSH1 0x0 REVERT JUMPDEST PUSH2 0x46F DUP1 PUSH2 0x17B PUSH1 0x0 CODECOPY PUSH1 0x0 RETURN INVALID PUSH1 0x80 PUSH1 0x40 MSTORE CALLVALUE DUP1 ISZERO PUSH2 0x10 JUMPI PUSH1 0x0 DUP1 REVERT JUMPDEST POP PUSH1 0x4 CALLDATASIZE LT PUSH2 0x88 JUMPI PUSH1 0x0 CALLDATALOAD PUSH1 0xE0 SHR DUP1 PUSH4 0x61913BCF GT PUSH2 0x5B JUMPI DUP1 PUSH4 0x61913BCF EQ PUSH2 0x110 JUMPI DUP1 PUSH4 0xA26388BB EQ PUSH2 0x131 JUMPI DUP1 PUSH4 0xCCF449B4 EQ PUSH2 0x139 JUMPI DUP1 PUSH4 0xCE600908 EQ PUSH2 0x14C JUMPI PUSH1 0x0 DUP1 REVERT JUMPDEST DUP1 PUSH4 0x6E8FAC2 EQ PUSH2 0x8D JUMPI DUP1 PUSH4 0x15B60141 EQ PUSH2 0xA2 JUMPI DUP1 PUSH4 0x2BC13F2B EQ PUSH2 0xE0 JUMPI DUP1 PUSH4 0x36AACAFA EQ PUSH2 0xF3 JUMPI JUMPDEST PUSH1 0x0 DUP1 REVERT JUMPDEST PUSH2 0xA0 PUSH2 0x9B CALLDATASIZE PUSH1 0x4 PUSH2 0x315 JUMP JUMPDEST PUSH2 0x157 JUMP JUMPDEST STOP JUMPDEST PUSH2 0xCD PUSH2 0xB0 CALLDATASIZE PUSH1 0x4 PUSH2 0x2DA JUMP JUMPDEST DUP1 MLOAD PUSH1 0x20 DUP2 DUP4 ADD DUP2 ADD DUP1 MLOAD PUSH1 0x0 DUP3 MSTORE SWAP3 DUP3 ADD SWAP2 SWAP1 SWAP4 ADD KECCAK256 SWAP2 MSTORE SLOAD DUP2 JUMP JUMPDEST PUSH1 0x40 MLOAD SWAP1 DUP2 MSTORE PUSH1 0x20 ADD JUMPDEST PUSH1 0x40 MLOAD DUP1 SWAP2 SUB SWAP1 RETURN JUMPDEST PUSH2 0xA0 PUSH2 0xEE CALLDATASIZE PUSH1 0x4 PUSH2 0x358 JUMP JUMPDEST PUSH2 0x17C JUMP JUMPDEST PUSH1 0x1 SLOAD PUSH2 0x100 SWAP1 PUSH1 0xFF AND DUP2 JUMP JUMPDEST PUSH1 0x40 MLOAD SWAP1 ISZERO ISZERO DUP2 MSTORE PUSH1 0x20 ADD PUSH2 0xD7 JUMP JUMPDEST PUSH2 0xA0 PUSH2 0x11E CALLDATASIZE PUSH1 0x4 PUSH2 0x2B3 JUMP JUMPDEST PUSH1 0x1 DUP1 SLOAD PUSH1 0xFF NOT AND SWAP2 ISZERO ISZERO SWAP2 SWAP1 SWAP2 OR SWAP1 SSTORE JUMP JUMPDEST PUSH2 0xA0 PUSH2 0x1B9 JUMP JUMPDEST PUSH2 0xCD PUSH2 0x147 CALLDATASIZE PUSH1 0x4 PUSH2 0x2DA JUMP JUMPDEST PUSH2 0x205 JUMP JUMPDEST PUSH1 0x1 SLOAD PUSH1 0xFF AND PUSH2 0x100 JUMP JUMPDEST DUP1 PUSH1 0x0 DUP4 PUSH1 0x40 MLOAD PUSH2 0x168 SWAP2 SWAP1 PUSH2 0x39D JUMP JUMPDEST SWAP1 DUP2 MSTORE PUSH1 0x40 MLOAD SWAP1 DUP2 SWAP1 SUB PUSH1 0x20 ADD SWAP1 KECCAK256 SSTORE POP POP JUMP JUMPDEST PUSH32 0x1BE7C4ACF0F0EBA0992603759C32D028600239A9034D28A643E234992E646AA4 DUP3 DUP3 PUSH1 0x40 MLOAD PUSH2 0x1AD SWAP3 SWAP2 SWAP1 PUSH2 0x3B9 JUMP JUMPDEST PUSH1 0x40 MLOAD DUP1 SWAP2 SUB SWAP1 LOG1 POP POP JUMP JUMPDEST PUSH1 0x40 MLOAD PUSH3 0x461BCD PUSH1 0xE5 SHL DUP2 MSTORE PUSH1 0x20 PUSH1 0x4 DUP3 ADD MSTORE PUSH1 0x17 PUSH1 0x24 DUP3 ADD MSTORE PUSH32 0x43616C6C20686173206265656E20726576657274656421000000000000000000 PUSH1 0x44 DUP3 ADD MSTORE PUSH1 0x64 ADD PUSH1 0x40 MLOAD DUP1 SWAP2 SUB SWAP1 REVERT JUMPDEST PUSH1 0x0 DUP1 DUP3 PUSH1 0x40 MLOAD PUSH2 0x216 SWAP2 SWAP1 PUSH2 0x39D JUMP JUMPDEST SWAP1 DUP2 MSTORE PUSH1 0x20 ADD PUSH1 0x40 MLOAD DUP1 SWAP2 SUB SWAP1 KECCAK256 SLOAD SWAP1 POP SWAP2 SWAP1 POP JUMP JUMPDEST PUSH1 0x0 DUP3 PUSH1 0x1F DUP4 ADD SLT PUSH2 0x23C JUMPI DUP1 DUP2 REVERT JUMPDEST DUP2 CALLDATALOAD PUSH8 0xFFFFFFFFFFFFFFFF DUP1 DUP3 GT ISZERO PUSH2 0x257 JUMPI PUSH2 0x257 PUSH2 0x423 JUMP JUMPDEST PUSH1 0x40 MLOAD PUSH1 0x1F DUP4 ADD PUSH1 0x1F NOT SWAP1 DUP2 AND PUSH1 0x3F ADD AND DUP2 ADD SWAP1 DUP3 DUP3 GT DUP2 DUP4 LT OR ISZERO PUSH2 0x27F JUMPI PUSH2 0x27F PUSH2 0x423 JUMP JUMPDEST DUP2 PUSH1 0x40 MSTORE DUP4 DUP2 MSTORE DUP7 PUSH1 0x20 DUP6 DUP9 ADD ADD GT ISZERO PUSH2 0x297 JUMPI DUP5 DUP6 REVERT JUMPDEST DUP4 PUSH1 0x20 DUP8 ADD PUSH1 0x20 DUP4 ADD CALLDATACOPY SWAP3 DUP4 ADD PUSH1 0x20 ADD SWAP4 SWAP1 SWAP4 MSTORE POP SWAP4 SWAP3 POP POP POP JUMP JUMPDEST PUSH1 0x0 PUSH1 0x20 DUP3 DUP5 SUB SLT ISZERO PUSH2 0x2C4 JUMPI DUP1 DUP2 REVERT JUMPDEST DUP2 CALLDATALOAD DUP1 ISZERO ISZERO DUP2 EQ PUSH2 0x2D3 JUMPI DUP2 DUP3 REVERT JUMPDEST SWAP4 SWAP3 POP POP POP JUMP JUMPDEST PUSH1 0x0 PUSH1 0x20 DUP3 DUP5 SUB SLT ISZERO PUSH2 0x2EB JUMPI DUP1 DUP2 REVERT JUMPDEST DUP2 CALLDATALOAD PUSH8 0xFFFFFFFFFFFFFFFF DUP2 GT ISZERO PUSH2 0x301 JUMPI DUP2 DUP3 REVERT JUMPDEST PUSH2 0x30D DUP5 DUP3 DUP6 ADD PUSH2 0x22C JUMP JUMPDEST SWAP5 SWAP4 POP POP POP POP JUMP JUMPDEST PUSH1 0x0 DUP1 PUSH1 0x40 DUP4 DUP6 SUB SLT ISZERO PUSH2 0x327 JUMPI DUP1 DUP2 REVERT JUMPDEST DUP3 CALLDATALOAD PUSH8 0xFFFFFFFFFFFFFFFF DUP2 GT ISZERO PUSH2 0x33D JUMPI DUP2 DUP3 REVERT JUMPDEST PUSH2 0x349 DUP6 DUP3 DUP7 ADD PUSH2 0x22C JUMP JUMPDEST SWAP6 PUSH1 0x20 SWAP5 SWAP1 SWAP5 ADD CALLDATALOAD SWAP5 POP POP POP POP JUMP JUMPDEST PUSH1 0x0 DUP1 PUSH1 0x40 DUP4 DUP6 SUB SLT ISZERO PUSH2 0x36A JUMPI DUP2 DUP3 REVERT JUMPDEST DUP3 CALLDATALOAD SWAP2 POP PUSH1 0x20 DUP4 ADD CALLDATALOAD PUSH8 0xFFFFFFFFFFFFFFFF DUP2 GT ISZERO PUSH2 0x387 JUMPI DUP2 DUP3 REVERT JUMPDEST PUSH2 0x393 DUP6 DUP3 DUP7 ADD PUSH2 0x22C JUMP JUMPDEST SWAP2 POP POP SWAP3 POP SWAP3 SWAP1 POP JUMP JUMPDEST PUSH1 0x0 DUP3 MLOAD PUSH2 0x3AF DUP2 DUP5 PUSH1 0x20 DUP8 ADD PUSH2 0x3F3 JUMP JUMPDEST SWAP2 SWAP1 SWAP2 ADD SWAP3 SWAP2 POP POP JUMP JUMPDEST DUP3 DUP2 MSTORE PUSH1 0x40 PUSH1 0x20 DUP3 ADD MSTORE PUSH1 0x0 DUP3 MLOAD DUP1 PUSH1 0x40 DUP5 ADD MSTORE PUSH2 0x3DE DUP2 PUSH1 0x60 DUP6 ADD PUSH1 0x20 DUP8 ADD PUSH2 0x3F3 JUMP JUMPDEST PUSH1 0x1F ADD PUSH1 0x1F NOT AND SWAP2 SWAP1 SWAP2 ADD PUSH1 0x60 ADD SWAP4 SWAP3 POP POP POP JUMP JUMPDEST PUSH1 0x0 JUMPDEST DUP4 DUP2 LT ISZERO PUSH2 0x40E JUMPI DUP2 DUP2 ADD MLOAD DUP4 DUP3 ADD MSTORE PUSH1 0x20 ADD PUSH2 0x3F6 JUMP JUMPDEST DUP4 DUP2 GT ISZERO PUSH2 0x41D JUMPI PUSH1 0x0 DUP5 DUP5 ADD MSTORE JUMPDEST POP POP POP POP JUMP JUMPDEST PUSH4 0x4E487B71 PUSH1 0xE0 SHL PUSH1 0x0 MSTORE PUSH1 0x41 PUSH1 0x4 MSTORE PUSH1 0x24 PUSH1 0x0 REVERT INVALID LOG2 PUSH5 0x6970667358 0x22 SLT KECCAK256 0xCB SWAP7 DUP12 CHAINID 0xD6 EXTCODECOPY DUP8 0x21 0xC8 DUP9 0xC1 0x4C 0xBE MLOAD PUSH7 0xAE6481A88DA9B1 0x22 0xE7 0xEC PUSH5 0x773F91A13E PUSH31 0x64736F6C634300080400330000000000000000000000000000000000000000 "
        },
        "gasEstimates": {
          "creation": {
            "codeDepositCost": "227000",
            "executionCost": "infinite",
            "totalCost": "infinite"
          },
          "external": {
            "getTestBool()": "1070",
            "getTestMapping(string)": "infinite",
            "testBool()": "1077",
            "testEvent(uint256,string)": "infinite",
            "testMapping(string)": "infinite",
            "testRevert()": "262",
            "updateTestBool(bool)": "21082",
            "updateTestMapping(string,uint256)": "infinite"
          }
        },
        "methodIdentifiers": {
          "getTestBool()": "ce600908",
          "getTestMapping(string)": "ccf449b4",
          "testBool()": "36aacafa",
          "testEvent(uint256,string)": "2bc13f2b",
          "testMapping(string)": "15b60141",
          "testRevert()": "a26388bb",
          "updateTestBool(bool)": "61913bcf",
          "updateTestMapping(string,uint256)": "06e8fac2"
        }
      },
      "storageLayout": {
        "storage": [
          {
            "astId": 11,
            "contract": "contracts/SolidityFeaturesContract.sol:SolidityFeaturesContract",
            "label": "testMapping",
            "offset": 0,
            "slot": "0",
            "type": "t_mapping(t_string_memory_ptr,t_uint256)"
          },
          {
            "astId": 13,
            "contract": "contracts/SolidityFeaturesContract.sol:SolidityFeaturesContract",
            "label": "testBool",
            "offset": 0,
            "slot": "1",
            "type": "t_bool"
          }
        ],
        "types": {
          "t_bool": {
            "encoding": "inplace",
            "label": "bool",
            "numberOfBytes": "1"
          },
          "t_mapping(t_string_memory_ptr,t_uint256)": {
            "encoding": "mapping",
            "key": "t_string_memory_ptr",
            "label": "mapping(string => uint256)",
            "numberOfBytes": "32",
            "value": "t_uint256"
          },
          "t_string_memory_ptr": {
            "encoding": "bytes",
            "label": "string",
            "numberOfBytes": "32"
          },
          "t_uint256": {
            "encoding": "inplace",
            "label": "uint256",
            "numberOfBytes": "32"
          }
        }
      },
      "userdoc": {
        "kind": "user",
        "methods": {},
        "version": 1
      }
    }
  }
}