{
  "_format": "hh-sol-artifact-1",
  "contractName": "SolidityFeaturesContract",
  "sourceName": "contracts/SolidityFeaturesContract.sol",
  "abi": [
    {
      "inputs": [
        {
          "internalType": "string",
          "name": "_testKey",
          "type": "string"
        },
        {
          "internalType": "uint256",
          "name": "_testVal",
          "type": "uint256"
        }
      ],
      "stateMutability": "nonpayable",
      "type": "constructor"
    },
    {
      "anonymous": false,
      "inputs": [
        {
          "indexed": false,
          "internalType": "uint256",
          "name": "num",
          "type": "uint256"
        },
        {
          "indexed": false,
          "internalType": "string",
          "name": "str",
          "type": "string"
        }
      ],
      "name": "TestEvent",
      "type": "event"
    },
    {
      "inputs": [],
      "name": "getTestBool",
      "outputs": [
        {
          "internalType": "bool",
          "name": "",
          "type": "bool"
        }
      ],
      "stateMutability": "view",
      "type": "function"
    },
    {
      "inputs": [
        {
          "internalType": "string",
          "name": "_testKey",
          "type": "string"
        }
      ],
      "name": "getTestMapping",
      "outputs": [
        {
          "internalType": "uint256",
          "name": "",
          "type": "uint256"
        }
      ],
      "stateMutability": "view",
      "type": "function"
    },
    {
      "inputs": [],
      "name": "testBool",
      "outputs": [
        {
          "internalType": "bool",
          "name": "",
          "type": "bool"
        }
      ],
      "stateMutability": "view",
      "type": "function"
    },
    {
      "inputs": [
        {
          "internalType": "uint256",
          "name": "_num",
          "type": "uint256"
        },
        {
          "internalType": "string",
          "name": "_str",
          "type": "string"
        }
      ],
      "name": "testEvent",
      "outputs": [],
      "stateMutability": "nonpayable",
      "type": "function"
    },
    {
      "inputs": [
        {
          "internalType": "string",
          "name": "",
          "type": "string"
        }
      ],
      "name": "testMapping",
      "outputs": [
        {
          "internalType": "uint256",
          "name": "",
          "type": "uint256"
        }
      ],
      "stateMutability": "view",
      "type": "function"
    },
    {
      "inputs": [],
      "name": "testRevert",
      "outputs": [],
      "stateMutability": "pure",
      "type": "function"
    },
    {
      "inputs": [
        {
          "internalType": "bool",
          "name": "_testBool",
          "type": "bool"
        }
      ],
      "name": "updateTestBool",
      "outputs": [],
      "stateMutability": "nonpayable",
      "type": "function"
    },
    {
      "inputs": [
        {
          "internalType": "string",
          "name": "_testKey",
          "type": "string"
        },
        {
          "internalType": "uint256",
          "name": "_testVal",
          "type": "uint256"
        }
      ],
      "name": "updateTestMapping",
      "outputs": [],
      "stateMutability": "nonpayable",
      "type": "function"
    }
  ],
  "bytecode": "0x60806040523480156200001157600080fd5b5060405162000a7538038062000a758339818101604052810190620000379190620000ed565b806000836040516200004a91906200017e565b9081526020016040518091039020819055505050620002dc565b60006200007b6200007584620001c0565b62000197565b9050828152602081018484840111156200009457600080fd5b620000a184828562000216565b509392505050565b600082601f830112620000bb57600080fd5b8151620000cd84826020860162000064565b91505092915050565b600081519050620000e781620002c2565b92915050565b600080604083850312156200010157600080fd5b600083015167ffffffffffffffff8111156200011c57600080fd5b6200012a85828601620000a9565b92505060206200013d85828601620000d6565b9150509250929050565b60006200015482620001f6565b62000160818562000201565b93506200017281856020860162000216565b80840191505092915050565b60006200018c828462000147565b915081905092915050565b6000620001a3620001b6565b9050620001b182826200024c565b919050565b6000604051905090565b600067ffffffffffffffff821115620001de57620001dd62000282565b5b620001e982620002b1565b9050602081019050919050565b600081519050919050565b600081905092915050565b6000819050919050565b60005b838110156200023657808201518184015260208101905062000219565b8381111562000246576000848401525b50505050565b6200025782620002b1565b810181811067ffffffffffffffff8211171562000279576200027862000282565b5b80604052505050565b7f4e487b7100000000000000000000000000000000000000000000000000000000600052604160045260246000fd5b6000601f19601f8301169050919050565b620002cd816200020c565b8114620002d957600080fd5b50565b61078980620002ec6000396000f3fe608060405234801561001057600080fd5b50600436106100885760003560e01c806361913bcf1161005b57806361913bcf14610113578063a26388bb1461012f578063ccf449b414610139578063ce6009081461016957610088565b806306e8fac21461008d57806315b60141146100a95780632bc13f2b146100d957806336aacafa146100f5575b600080fd5b6100a760048036038101906100a291906103c6565b610187565b005b6100c360048036038101906100be9190610385565b6101ae565b6040516100d0919061056b565b60405180910390f35b6100f360048036038101906100ee919061041a565b6101dc565b005b6100fd610219565b60405161010a9190610530565b60405180910390f35b61012d6004803603810190610128919061035c565b61022c565b005b610137610249565b005b610153600480360381019061014e9190610385565b61028c565b604051610160919061056b565b60405180910390f35b6101716102b3565b60405161017e9190610530565b60405180910390f35b806000836040516101989190610519565b9081526020016040518091039020819055505050565b6000818051602081018201805184825260208301602085012081835280955050505050506000915090505481565b7f1be7c4acf0f0eba0992603759c32d028600239a9034d28a643e234992e646aa4828260405161020d929190610586565b60405180910390a15050565b600160009054906101000a900460ff1681565b80600160006101000a81548160ff02191690831515021790555050565b600061028a576040517f08c379a00000000000000000000000000000000000000000000000000000000081526004016102819061054b565b60405180910390fd5b565b6000808260405161029d9190610519565b9081526020016040518091039020549050919050565b6000600160009054906101000a900460ff16905090565b60006102dd6102d8846105db565b6105b6565b9050828152602081018484840111156102f557600080fd5b610300848285610649565b509392505050565b60008135905061031781610725565b92915050565b600082601f83011261032e57600080fd5b813561033e8482602086016102ca565b91505092915050565b6000813590506103568161073c565b92915050565b60006020828403121561036e57600080fd5b600061037c84828501610308565b91505092915050565b60006020828403121561039757600080fd5b600082013567ffffffffffffffff8111156103b157600080fd5b6103bd8482850161031d565b91505092915050565b600080604083850312156103d957600080fd5b600083013567ffffffffffffffff8111156103f357600080fd5b6103ff8582860161031d565b925050602061041085828601610347565b9150509250929050565b6000806040838503121561042d57600080fd5b600061043b85828601610347565b925050602083013567ffffffffffffffff81111561045857600080fd5b6104648582860161031d565b9150509250929050565b61047781610633565b82525050565b60006104888261060c565b6104928185610617565b93506104a2818560208601610658565b6104ab816106eb565b840191505092915050565b60006104c18261060c565b6104cb8185610628565b93506104db818560208601610658565b80840191505092915050565b60006104f4601783610617565b91506104ff826106fc565b602082019050919050565b6105138161063f565b82525050565b600061052582846104b6565b915081905092915050565b6000602082019050610545600083018461046e565b92915050565b60006020820190508181036000830152610564816104e7565b9050919050565b6000602082019050610580600083018461050a565b92915050565b600060408201905061059b600083018561050a565b81810360208301526105ad818461047d565b90509392505050565b60006105c06105d1565b90506105cc828261068b565b919050565b6000604051905090565b600067ffffffffffffffff8211156105f6576105f56106bc565b5b6105ff826106eb565b9050602081019050919050565b600081519050919050565b600082825260208201905092915050565b600081905092915050565b60008115159050919050565b6000819050919050565b82818337600083830152505050565b60005b8381101561067657808201518184015260208101905061065b565b83811115610685576000848401525b50505050565b610694826106eb565b810181811067ffffffffffffffff821117156106b3576106b26106bc565b5b80604052505050565b7f4e487b7100000000000000000000000000000000000000000000000000000000600052604160045260246000fd5b6000601f19601f8301169050919050565b7f43616c6c20686173206265656e20726576657274656421000000000000000000600082015250565b61072e81610633565b811461073957600080fd5b50565b6107458161063f565b811461075057600080fd5b5056fea26469706673582212209cf7e3d1c38e5404b6f39d4502a72c6c34071a5427b1ae8c5bf74ec7ae1b6c4764736f6c63430008040033",
  "linkReferences": {},
  "deployedLinkReferences": {}
}