{
  "_format": "hh-sol-artifact-1",
  "contractName": "AccessRolesBox",
  "sourceName": "contracts/AccessRolesBox.sol",
  "abi": [
    {
      "inputs": [
        {
          "internalType": "string",
          "name": "initialValue",
          "type": "string"
        }
      ],
      "stateMutability": "nonpayable",
      "type": "constructor"
    },
    {
      "anonymous": false,
      "inputs": [
        {
          "indexed": false,
          "internalType": "string",
          "name": "newValue",
          "type": "string"
        }
      ],
      "name": "ColorChanged",
      "type": "event"
    },
    {
      "anonymous": false,
      "inputs": [
        {
          "indexed": true,
          "internalType": "bytes32",
          "name": "role",
          "type": "bytes32"
        },
        {
          "indexed": true,
          "internalType": "bytes32",
          "name": "previousAdminRole",
          "type": "bytes32"
        },
        {
          "indexed": true,
          "internalType": "bytes32",
          "name": "newAdminRole",
          "type": "bytes32"
        }
      ],
      "name": "RoleAdminChanged",
      "type": "event"
    },
    {
      "anonymous": false,
      "inputs": [
        {
          "indexed": true,
          "internalType": "bytes32",
          "name": "role",
          "type": "bytes32"
        },
        {
          "indexed": true,
          "internalType": "address",
          "name": "account",
          "type": "address"
        },
        {
          "indexed": true,
          "internalType": "address",
          "name": "sender",
          "type": "address"
        }
      ],
      "name": "RoleGranted",
      "type": "event"
    },
    {
      "anonymous": false,
      "inputs": [
        {
          "indexed": true,
          "internalType": "bytes32",
          "name": "role",
          "type": "bytes32"
        },
        {
          "indexed": true,
          "internalType": "address",
          "name": "account",
          "type": "address"
        },
        {
          "indexed": true,
          "internalType": "address",
          "name": "sender",
          "type": "address"
        }
      ],
      "name": "RoleRevoked",
      "type": "event"
    },
    {
      "inputs": [],
      "name": "DEFAULT_ADMIN_ROLE",
      "outputs": [
        {
          "internalType": "bytes32",
          "name": "",
          "type": "bytes32"
        }
      ],
      "stateMutability": "view",
      "type": "function"
    },
    {
      "inputs": [],
      "name": "VALUE_GETTER",
      "outputs": [
        {
          "internalType": "bytes32",
          "name": "",
          "type": "bytes32"
        }
      ],
      "stateMutability": "view",
      "type": "function"
    },
    {
      "inputs": [],
      "name": "VALUE_SETTER",
      "outputs": [
        {
          "internalType": "bytes32",
          "name": "",
          "type": "bytes32"
        }
      ],
      "stateMutability": "view",
      "type": "function"
    },
    {
      "inputs": [
        {
          "internalType": "string",
          "name": "newValue",
          "type": "string"
        }
      ],
      "name": "changeValue",
      "outputs": [],
      "stateMutability": "nonpayable",
      "type": "function"
    },
    {
      "inputs": [
        {
          "internalType": "bytes32",
          "name": "role",
          "type": "bytes32"
        }
      ],
      "name": "getRoleAdmin",
      "outputs": [
        {
          "internalType": "bytes32",
          "name": "",
          "type": "bytes32"
        }
      ],
      "stateMutability": "view",
      "type": "function"
    },
    {
      "inputs": [],
      "name": "getValue",
      "outputs": [
        {
          "internalType": "string",
          "name": "",
          "type": "string"
        }
      ],
      "stateMutability": "view",
      "type": "function"
    },
    {
      "inputs": [
        {
          "internalType": "bytes32",
          "name": "role",
          "type": "bytes32"
        },
        {
          "internalType": "address",
          "name": "account",
          "type": "address"
        }
      ],
      "name": "grantRole",
      "outputs": [],
      "stateMutability": "nonpayable",
      "type": "function"
    },
    {
      "inputs": [
        {
          "internalType": "bytes32",
          "name": "role",
          "type": "bytes32"
        },
        {
          "internalType": "address",
          "name": "account",
          "type": "address"
        }
      ],
      "name": "hasRole",
      "outputs": [
        {
          "internalType": "bool",
          "name": "",
          "type": "bool"
        }
      ],
      "stateMutability": "view",
      "type": "function"
    },
    {
      "inputs": [
        {
          "internalType": "bytes32",
          "name": "role",
          "type": "bytes32"
        },
        {
          "internalType": "address",
          "name": "account",
          "type": "address"
        }
      ],
      "name": "renounceRole",
      "outputs": [],
      "stateMutability": "nonpayable",
      "type": "function"
    },
    {
      "inputs": [
        {
          "internalType": "bytes32",
          "name": "role",
          "type": "bytes32"
        },
        {
          "internalType": "address",
          "name": "account",
          "type": "address"
        }
      ],
      "name": "revokeRole",
      "outputs": [],
      "stateMutability": "nonpayable",
      "type": "function"
    },
    {
      "inputs": [
        {
          "internalType": "bytes4",
          "name": "interfaceId",
          "type": "bytes4"
        }
      ],
      "name": "supportsInterface",
      "outputs": [
        {
          "internalType": "bool",
          "name": "",
          "type": "bool"
        }
      ],
      "stateMutability": "view",
      "type": "function"
    },
    {
      "inputs": [],
      "name": "value",
      "outputs": [
        {
          "internalType": "string",
          "name": "",
          "type": "string"
        }
      ],
      "stateMutability": "view",
      "type": "function"
    }
  ],
  "bytecode": "0x60806040523480156200001157600080fd5b506040516200190038038062001900833981810160405281019062000037919062000355565b80600190805190602001906200004f92919062000233565b50620000656000801b33620000d060201b60201c565b620000977f0e8cefca32b79d2efbc5f5c583ce3aca66d94228747c49d0dae86c46974e111a33620000d060201b60201c565b620000c97f6860fe8d21cf07b079a82a9c51c03bf562359a53cac82a0cbfd033ab91761ccd33620000d060201b60201c565b506200050a565b620000e28282620001c160201b60201c565b620001bd57600160008084815260200190815260200160002060000160008373ffffffffffffffffffffffffffffffffffffffff1673ffffffffffffffffffffffffffffffffffffffff16815260200190815260200160002060006101000a81548160ff021916908315150217905550620001626200022b60201b60201c565b73ffffffffffffffffffffffffffffffffffffffff168173ffffffffffffffffffffffffffffffffffffffff16837f2f8788117e7eff1d82e926ec794901d17c78024a50270940304540a733656f0d60405160405180910390a45b5050565b600080600084815260200190815260200160002060000160008373ffffffffffffffffffffffffffffffffffffffff1673ffffffffffffffffffffffffffffffffffffffff16815260200190815260200160002060009054906101000a900460ff16905092915050565b600033905090565b82805462000241906200042f565b90600052602060002090601f016020900481019282620002655760008555620002b1565b82601f106200028057805160ff1916838001178555620002b1565b82800160010185558215620002b1579182015b82811115620002b057825182559160200191906001019062000293565b5b509050620002c09190620002c4565b5090565b5b80821115620002df576000816000905550600101620002c5565b5090565b6000620002fa620002f484620003c3565b6200039a565b9050828152602081018484840111156200031357600080fd5b62000320848285620003f9565b509392505050565b600082601f8301126200033a57600080fd5b81516200034c848260208601620002e3565b91505092915050565b6000602082840312156200036857600080fd5b600082015167ffffffffffffffff8111156200038357600080fd5b620003918482850162000328565b91505092915050565b6000620003a6620003b9565b9050620003b4828262000465565b919050565b6000604051905090565b600067ffffffffffffffff821115620003e157620003e0620004ca565b5b620003ec82620004f9565b9050602081019050919050565b60005b8381101562000419578082015181840152602081019050620003fc565b8381111562000429576000848401525b50505050565b600060028204905060018216806200044857607f821691505b602082108114156200045f576200045e6200049b565b5b50919050565b6200047082620004f9565b810181811067ffffffffffffffff82111715620004925762000491620004ca565b5b80604052505050565b7f4e487b7100000000000000000000000000000000000000000000000000000000600052602260045260246000fd5b7f4e487b7100000000000000000000000000000000000000000000000000000000600052604160045260246000fd5b6000601f19601f8301169050919050565b6113e6806200051a6000396000f3fe608060405234801561001057600080fd5b50600436106100b45760003560e01c80633fa4f245116100715780633fa4f2451461018d57806391d14854146101ab578063a217fddf146101db578063d547741f146101f9578063d60c787f14610215578063e3a07ac014610233576100b4565b806301ffc9a7146100b957806320965255146100e9578063248a9ca314610107578063284196d5146101375780632f2ff15d1461015557806336568abe14610171575b600080fd5b6100d360048036038101906100ce9190610d9a565b61024f565b6040516100e09190610f83565b60405180910390f35b6100f16102c9565b6040516100fe9190610fdd565b60405180910390f35b610121600480360381019061011c9190610d35565b610386565b60405161012e9190610f9e565b60405180910390f35b61013f6103a5565b60405161014c9190610f9e565b60405180910390f35b61016f600480360381019061016a9190610d5e565b6103c9565b005b61018b60048036038101906101869190610d5e565b6103ea565b005b61019561046d565b6040516101a29190610fdd565b60405180910390f35b6101c560048036038101906101c09190610d5e565b6104fb565b6040516101d29190610f83565b60405180910390f35b6101e3610565565b6040516101f09190610f9e565b60405180910390f35b610213600480360381019061020e9190610d5e565b61056c565b005b61021d61058d565b60405161022a9190610f9e565b60405180910390f35b61024d60048036038101906102489190610dc3565b6105b1565b005b60007f7965db0b000000000000000000000000000000000000000000000000000000007bffffffffffffffffffffffffffffffffffffffffffffffffffffffff1916827bffffffffffffffffffffffffffffffffffffffffffffffffffffffff191614806102c257506102c18261062b565b5b9050919050565b60607f0e8cefca32b79d2efbc5f5c583ce3aca66d94228747c49d0dae86c46974e111a6102f581610695565b6001805461030290611200565b80601f016020809104026020016040519081016040528092919081815260200182805461032e90611200565b801561037b5780601f106103505761010080835404028352916020019161037b565b820191906000526020600020905b81548152906001019060200180831161035e57829003601f168201915b505050505091505090565b6000806000838152602001908152602001600020600101549050919050565b7f0e8cefca32b79d2efbc5f5c583ce3aca66d94228747c49d0dae86c46974e111a81565b6103d282610386565b6103db81610695565b6103e583836106a9565b505050565b6103f2610789565b73ffffffffffffffffffffffffffffffffffffffff168173ffffffffffffffffffffffffffffffffffffffff161461045f576040517f08c379a00000000000000000000000000000000000000000000000000000000081526004016104569061101f565b60405180910390fd5b6104698282610791565b5050565b6001805461047a90611200565b80601f01602080910402602001604051908101604052809291908181526020018280546104a690611200565b80156104f35780601f106104c8576101008083540402835291602001916104f3565b820191906000526020600020905b8154815290600101906020018083116104d657829003601f168201915b505050505081565b600080600084815260200190815260200160002060000160008373ffffffffffffffffffffffffffffffffffffffff1673ffffffffffffffffffffffffffffffffffffffff16815260200190815260200160002060009054906101000a900460ff16905092915050565b6000801b81565b61057582610386565b61057e81610695565b6105888383610791565b505050565b7f6860fe8d21cf07b079a82a9c51c03bf562359a53cac82a0cbfd033ab91761ccd81565b7f6860fe8d21cf07b079a82a9c51c03bf562359a53cac82a0cbfd033ab91761ccd6105db81610695565b8282600191906105ec929190610c09565b507fea8482eb24fdcbd88250f9fd14644f201467fcaf3c5f08a0675ed9d46977ae3b838360405161061e929190610fb9565b60405180910390a1505050565b60007f01ffc9a7000000000000000000000000000000000000000000000000000000007bffffffffffffffffffffffffffffffffffffffffffffffffffffffff1916827bffffffffffffffffffffffffffffffffffffffffffffffffffffffff1916149050919050565b6106a6816106a1610789565b610872565b50565b6106b382826104fb565b61078557600160008084815260200190815260200160002060000160008373ffffffffffffffffffffffffffffffffffffffff1673ffffffffffffffffffffffffffffffffffffffff16815260200190815260200160002060006101000a81548160ff02191690831515021790555061072a610789565b73ffffffffffffffffffffffffffffffffffffffff168173ffffffffffffffffffffffffffffffffffffffff16837f2f8788117e7eff1d82e926ec794901d17c78024a50270940304540a733656f0d60405160405180910390a45b5050565b600033905090565b61079b82826104fb565b1561086e57600080600084815260200190815260200160002060000160008373ffffffffffffffffffffffffffffffffffffffff1673ffffffffffffffffffffffffffffffffffffffff16815260200190815260200160002060006101000a81548160ff021916908315150217905550610813610789565b73ffffffffffffffffffffffffffffffffffffffff168173ffffffffffffffffffffffffffffffffffffffff16837ff6391f5c32d9c69d2a47ea670b442974b53935d1edc7fd64eb21e047a839171b60405160405180910390a45b5050565b61087c82826104fb565b61090b576108a18173ffffffffffffffffffffffffffffffffffffffff16601461090f565b6108af8360001c602061090f565b6040516020016108c0929190610f49565b6040516020818303038152906040526040517f08c379a00000000000000000000000000000000000000000000000000000000081526004016109029190610fdd565b60405180910390fd5b5050565b60606000600283600261092291906110bc565b61092c9190611066565b67ffffffffffffffff81111561096b577f4e487b7100000000000000000000000000000000000000000000000000000000600052604160045260246000fd5b6040519080825280601f01601f19166020018201604052801561099d5781602001600182028036833780820191505090505b5090507f3000000000000000000000000000000000000000000000000000000000000000816000815181106109fb577f4e487b7100000000000000000000000000000000000000000000000000000000600052603260045260246000fd5b60200101907effffffffffffffffffffffffffffffffffffffffffffffffffffffffffffff1916908160001a9053507f780000000000000000000000000000000000000000000000000000000000000081600181518110610a85577f4e487b7100000000000000000000000000000000000000000000000000000000600052603260045260246000fd5b60200101907effffffffffffffffffffffffffffffffffffffffffffffffffffffffffffff1916908160001a90535060006001846002610ac591906110bc565b610acf9190611066565b90505b6001811115610bbb577f3031323334353637383961626364656600000000000000000000000000000000600f861660108110610b37577f4e487b7100000000000000000000000000000000000000000000000000000000600052603260045260246000fd5b1a60f81b828281518110610b74577f4e487b7100000000000000000000000000000000000000000000000000000000600052603260045260246000fd5b60200101907effffffffffffffffffffffffffffffffffffffffffffffffffffffffffffff1916908160001a905350600485901c945080610bb4906111d6565b9050610ad2565b5060008414610bff576040517f08c379a0000000000000000000000000000000000000000000000000000000008152600401610bf690610fff565b60405180910390fd5b8091505092915050565b828054610c1590611200565b90600052602060002090601f016020900481019282610c375760008555610c7e565b82601f10610c5057803560ff1916838001178555610c7e565b82800160010185558215610c7e579182015b82811115610c7d578235825591602001919060010190610c62565b5b509050610c8b9190610c8f565b5090565b5b80821115610ca8576000816000905550600101610c90565b5090565b600081359050610cbb8161136b565b92915050565b600081359050610cd081611382565b92915050565b600081359050610ce581611399565b92915050565b60008083601f840112610cfd57600080fd5b8235905067ffffffffffffffff811115610d1657600080fd5b602083019150836001820283011115610d2e57600080fd5b9250929050565b600060208284031215610d4757600080fd5b6000610d5584828501610cc1565b91505092915050565b60008060408385031215610d7157600080fd5b6000610d7f85828601610cc1565b9250506020610d9085828601610cac565b9150509250929050565b600060208284031215610dac57600080fd5b6000610dba84828501610cd6565b91505092915050565b60008060208385031215610dd657600080fd5b600083013567ffffffffffffffff811115610df057600080fd5b610dfc85828601610ceb565b92509250509250929050565b610e1181611128565b82525050565b610e2081611134565b82525050565b6000610e32838561104a565b9350610e3f838584611194565b610e4883611290565b840190509392505050565b6000610e5e8261103f565b610e68818561104a565b9350610e788185602086016111a3565b610e8181611290565b840191505092915050565b6000610e978261103f565b610ea1818561105b565b9350610eb18185602086016111a3565b80840191505092915050565b6000610eca60208361104a565b9150610ed5826112a1565b602082019050919050565b6000610eed60178361105b565b9150610ef8826112ca565b601782019050919050565b6000610f1060118361105b565b9150610f1b826112f3565b601182019050919050565b6000610f33602f8361104a565b9150610f3e8261131c565b604082019050919050565b6000610f5482610ee0565b9150610f608285610e8c565b9150610f6b82610f03565b9150610f778284610e8c565b91508190509392505050565b6000602082019050610f986000830184610e08565b92915050565b6000602082019050610fb36000830184610e17565b92915050565b60006020820190508181036000830152610fd4818486610e26565b90509392505050565b60006020820190508181036000830152610ff78184610e53565b905092915050565b6000602082019050818103600083015261101881610ebd565b9050919050565b6000602082019050818103600083015261103881610f26565b9050919050565b600081519050919050565b600082825260208201905092915050565b600081905092915050565b60006110718261118a565b915061107c8361118a565b9250827fffffffffffffffffffffffffffffffffffffffffffffffffffffffffffffffff038211156110b1576110b0611232565b5b828201905092915050565b60006110c78261118a565b91506110d28361118a565b9250817fffffffffffffffffffffffffffffffffffffffffffffffffffffffffffffffff048311821515161561110b5761110a611232565b5b828202905092915050565b60006111218261116a565b9050919050565b60008115159050919050565b6000819050919050565b60007fffffffff0000000000000000000000000000000000000000000000000000000082169050919050565b600073ffffffffffffffffffffffffffffffffffffffff82169050919050565b6000819050919050565b82818337600083830152505050565b60005b838110156111c15780820151818401526020810190506111a6565b838111156111d0576000848401525b50505050565b60006111e18261118a565b915060008214156111f5576111f4611232565b5b600182039050919050565b6000600282049050600182168061121857607f821691505b6020821081141561122c5761122b611261565b5b50919050565b7f4e487b7100000000000000000000000000000000000000000000000000000000600052601160045260246000fd5b7f4e487b7100000000000000000000000000000000000000000000000000000000600052602260045260246000fd5b6000601f19601f8301169050919050565b7f537472696e67733a20686578206c656e67746820696e73756666696369656e74600082015250565b7f416363657373436f6e74726f6c3a206163636f756e7420000000000000000000600082015250565b7f206973206d697373696e6720726f6c6520000000000000000000000000000000600082015250565b7f416363657373436f6e74726f6c3a2063616e206f6e6c792072656e6f756e636560008201527f20726f6c657320666f722073656c660000000000000000000000000000000000602082015250565b61137481611116565b811461137f57600080fd5b50565b61138b81611134565b811461139657600080fd5b50565b6113a28161113e565b81146113ad57600080fd5b5056fea26469706673582212202c6b36435e740eb483969dc3e71d59d27fae7b5f113f7ae466b07f514d7b459064736f6c63430008040033",
  "linkReferences": {},
  "deployedLinkReferences": {}
}