{
  "_format": "hh-sol-artifact-1",
  "contractName": "Vault",
  "sourceName": "contracts/Vault.sol",
  "abi": [
    {
      "anonymous": false,
      "inputs": [
        {
          "indexed": false,
          "internalType": "address",
          "name": "from",
          "type": "address"
        },
        {
          "indexed": false,
          "internalType": "uint256",
          "name": "value",
          "type": "uint256"
        },
        {
          "indexed": false,
          "internalType": "uint256",
          "name": "fee",
          "type": "uint256"
        }
      ],
      "name": "Deposited",
      "type": "event"
    },
    {
      "anonymous": false,
      "inputs": [
        {
          "indexed": false,
          "internalType": "uint256",
          "name": "newFee",
          "type": "uint256"
        }
      ],
      "name": "FeeChanged",
      "type": "event"
    },
    {
      "anonymous": false,
      "inputs": [
        {
          "indexed": false,
          "internalType": "address",
          "name": "wallet",
          "type": "address"
        },
        {
          "indexed": false,
          "internalType": "uint256",
          "name": "value",
          "type": "uint256"
        }
      ],
      "name": "Sweeped",
      "type": "event"
    },
    {
      "anonymous": false,
      "inputs": [
        {
          "indexed": false,
          "internalType": "address",
          "name": "to",
          "type": "address"
        },
        {
          "indexed": false,
          "internalType": "uint256",
          "name": "value",
          "type": "uint256"
        }
      ],
      "name": "Withdrawn",
      "type": "event"
    },
    {
      "inputs": [],
      "name": "admin",
      "outputs": [
        {
          "internalType": "address",
          "name": "",
          "type": "address"
        }
      ],
      "stateMutability": "view",
      "type": "function"
    },
    {
      "inputs": [
        {
          "internalType": "address",
          "name": "",
          "type": "address"
        }
      ],
      "name": "balances",
      "outputs": [
        {
          "internalType": "uint256",
          "name": "",
          "type": "uint256"
        }
      ],
      "stateMutability": "view",
      "type": "function"
    },
    {
      "inputs": [],
      "name": "deposit",
      "outputs": [],
      "stateMutability": "payable",
      "type": "function"
    },
    {
      "inputs": [],
      "name": "feePercentage",
      "outputs": [
        {
          "internalType": "uint256",
          "name": "",
          "type": "uint256"
        }
      ],
      "stateMutability": "view",
      "type": "function"
    },
    {
      "inputs": [],
      "name": "feesCollected",
      "outputs": [
        {
          "internalType": "uint256",
          "name": "",
          "type": "uint256"
        }
      ],
      "stateMutability": "view",
      "type": "function"
    },
    {
      "inputs": [
        {
          "internalType": "uint256",
          "name": "_fee",
          "type": "uint256"
        },
        {
          "internalType": "address",
          "name": "_admin",
          "type": "address"
        },
        {
          "internalType": "address payable",
          "name": "_wallet",
          "type": "address"
        }
      ],
      "name": "initialize",
      "outputs": [],
      "stateMutability": "nonpayable",
      "type": "function"
    },
    {
      "inputs": [
        {
          "internalType": "uint256",
          "name": "_fee",
          "type": "uint256"
        }
      ],
      "name": "setFee",
      "outputs": [],
      "stateMutability": "nonpayable",
      "type": "function"
    },
    {
      "inputs": [],
      "name": "sweep",
      "outputs": [],
      "stateMutability": "nonpayable",
      "type": "function"
    },
    {
      "inputs": [],
      "name": "version",
      "outputs": [
        {
          "internalType": "string",
          "name": "",
          "type": "string"
        }
      ],
      "stateMutability": "pure",
      "type": "function"
    },
    {
      "inputs": [],
      "name": "wallet",
      "outputs": [
        {
          "internalType": "address payable",
          "name": "",
          "type": "address"
        }
      ],
      "stateMutability": "view",
      "type": "function"
    },
    {
      "inputs": [],
      "name": "withdraw",
      "outputs": [],
      "stateMutability": "nonpayable",
      "type": "function"
    }
  ],
  "bytecode": "0x608060405234801561001057600080fd5b50610d8b806100206000396000f3fe60806040526004361061009c5760003560e01c806369fe0e2d1161006457806369fe0e2d14610162578063a001ecdd1461018b578063b4988fd0146101b6578063d0e30db0146101df578063f071db5a146101e9578063f851a440146102145761009c565b806327e235e3146100a157806335faa416146100de5780633ccfd60b146100f5578063521eb2731461010c57806354fd4d5014610137575b600080fd5b3480156100ad57600080fd5b506100c860048036038101906100c391906107cf565b61023f565b6040516100d59190610a4c565b60405180910390f35b3480156100ea57600080fd5b506100f3610257565b005b34801561010157600080fd5b5061010a610329565b005b34801561011857600080fd5b50610121610435565b60405161012e9190610946565b60405180910390f35b34801561014357600080fd5b5061014c61045b565b60405161015991906109ea565b60405180910390f35b34801561016e57600080fd5b50610189600480360381019061018491906107f8565b610498565b005b34801561019757600080fd5b506101a0610569565b6040516101ad9190610a4c565b60405180910390f35b3480156101c257600080fd5b506101dd60048036038101906101d89190610821565b61056f565b005b6101e761068e565b005b3480156101f557600080fd5b506101fe610764565b60405161020b9190610a4c565b60405180910390f35b34801561022057600080fd5b5061022961076a565b604051610236919061092b565b60405180910390f35b60046020528060005260406000206000915090505481565b600360009054906101000a900473ffffffffffffffffffffffffffffffffffffffff1673ffffffffffffffffffffffffffffffffffffffff166108fc6001549081150290604051600060405180830381858888f193505050501580156102c1573d6000803e3d6000fd5b507f1b94d65e3a03a98b13e90142a41884547fdd622b7f14a4daf94f6338e2e85cf0600360009054906101000a900473ffffffffffffffffffffffffffffffffffffffff16600154604051610317929190610961565b60405180910390a16000600181905550565b6000600460003373ffffffffffffffffffffffffffffffffffffffff1673ffffffffffffffffffffffffffffffffffffffff1681526020019081526020016000205490506000600460003373ffffffffffffffffffffffffffffffffffffffff1673ffffffffffffffffffffffffffffffffffffffff168152602001908152602001600020819055503373ffffffffffffffffffffffffffffffffffffffff166108fc829081150290604051600060405180830381858888f193505050501580156103f8573d6000803e3d6000fd5b507f7084f5476618d8e60b11ef0d7d3f06914655adb8793e28ff7f018d4c76d505d5338260405161042a92919061098a565b60405180910390a150565b600360009054906101000a900473ffffffffffffffffffffffffffffffffffffffff1681565b60606040518060400160405280600281526020017f7631000000000000000000000000000000000000000000000000000000000000815250905090565b600260009054906101000a900473ffffffffffffffffffffffffffffffffffffffff1673ffffffffffffffffffffffffffffffffffffffff163373ffffffffffffffffffffffffffffffffffffffff1614610528576040517f08c379a000000000000000000000000000000000000000000000000000000000815260040161051f90610a0c565b60405180910390fd5b806000819055507f6bbc57480a46553fa4d156ce702beef5f3ad66303b0ed1a5d4cb44966c6584c38160405161055e9190610a4c565b60405180910390a150565b60005481565b600073ffffffffffffffffffffffffffffffffffffffff16600260009054906101000a900473ffffffffffffffffffffffffffffffffffffffff1673ffffffffffffffffffffffffffffffffffffffff1614610600576040517f08c379a00000000000000000000000000000000000000000000000000000000081526004016105f790610a2c565b60405180910390fd5b80600360006101000a81548173ffffffffffffffffffffffffffffffffffffffff021916908373ffffffffffffffffffffffffffffffffffffffff16021790555081600260006101000a81548173ffffffffffffffffffffffffffffffffffffffff021916908373ffffffffffffffffffffffffffffffffffffffff16021790555082600081905550505050565b60006064600054346106a09190610b0a565b6106aa9190610ad9565b905080346106b89190610b64565b600460003373ffffffffffffffffffffffffffffffffffffffff1673ffffffffffffffffffffffffffffffffffffffff16815260200190815260200160002060008282546107069190610a83565b92505081905550806001600082825461071f9190610a83565b925050819055507f73a19dd210f1a7f902193214c0ee91dd35ee5b4d920cba8d519eca65a7b488ca333483604051610759939291906109b3565b60405180910390a150565b60015481565b600260009054906101000a900473ffffffffffffffffffffffffffffffffffffffff1681565b60008135905061079f81610d10565b92915050565b6000813590506107b481610d27565b92915050565b6000813590506107c981610d3e565b92915050565b6000602082840312156107e157600080fd5b60006107ef84828501610790565b91505092915050565b60006020828403121561080a57600080fd5b6000610818848285016107ba565b91505092915050565b60008060006060848603121561083657600080fd5b6000610844868287016107ba565b935050602061085586828701610790565b9250506040610866868287016107a5565b9150509250925092565b61087981610be6565b82525050565b61088881610baa565b82525050565b61089781610b98565b82525050565b60006108a882610a67565b6108b28185610a72565b93506108c2818560208601610c1c565b6108cb81610cad565b840191505092915050565b60006108e3600c83610a72565b91506108ee82610cbe565b602082019050919050565b6000610906601383610a72565b915061091182610ce7565b602082019050919050565b61092581610bdc565b82525050565b6000602082019050610940600083018461088e565b92915050565b600060208201905061095b600083018461087f565b92915050565b60006040820190506109766000830185610870565b610983602083018461091c565b9392505050565b600060408201905061099f600083018561088e565b6109ac602083018461091c565b9392505050565b60006060820190506109c8600083018661088e565b6109d5602083018561091c565b6109e2604083018461091c565b949350505050565b60006020820190508181036000830152610a04818461089d565b905092915050565b60006020820190508181036000830152610a25816108d6565b9050919050565b60006020820190508181036000830152610a45816108f9565b9050919050565b6000602082019050610a61600083018461091c565b92915050565b600081519050919050565b600082825260208201905092915050565b6000610a8e82610bdc565b9150610a9983610bdc565b9250827fffffffffffffffffffffffffffffffffffffffffffffffffffffffffffffffff03821115610ace57610acd610c4f565b5b828201905092915050565b6000610ae482610bdc565b9150610aef83610bdc565b925082610aff57610afe610c7e565b5b828204905092915050565b6000610b1582610bdc565b9150610b2083610bdc565b9250817fffffffffffffffffffffffffffffffffffffffffffffffffffffffffffffffff0483118215151615610b5957610b58610c4f565b5b828202905092915050565b6000610b6f82610bdc565b9150610b7a83610bdc565b925082821015610b8d57610b8c610c4f565b5b828203905092915050565b6000610ba382610bbc565b9050919050565b6000610bb582610bbc565b9050919050565b600073ffffffffffffffffffffffffffffffffffffffff82169050919050565b6000819050919050565b6000610bf182610bf8565b9050919050565b6000610c0382610c0a565b9050919050565b6000610c1582610bbc565b9050919050565b60005b83811015610c3a578082015181840152602081019050610c1f565b83811115610c49576000848401525b50505050565b7f4e487b7100000000000000000000000000000000000000000000000000000000600052601160045260246000fd5b7f4e487b7100000000000000000000000000000000000000000000000000000000600052601260045260246000fd5b6000601f19601f8301169050919050565b7f556e617574686f72697a65640000000000000000000000000000000000000000600082015250565b7f416c726561647920696e697469616c697a656400000000000000000000000000600082015250565b610d1981610b98565b8114610d2457600080fd5b50565b610d3081610baa565b8114610d3b57600080fd5b50565b610d4781610bdc565b8114610d5257600080fd5b5056fea26469706673582212206e22d5109c43a3041ba5e529f3c7394bfa097b6c28162b5b00d8dc1c237b8bc364736f6c63430008040033",
  "linkReferences": {},
  "deployedLinkReferences": {}
}