{
  "_format": "hh-sol-artifact-1",
  "contractName": "DummyGovernor",
  "sourceName": "contracts/DummyGovernor.sol",
  "abi": [
    {
      "inputs": [],
      "stateMutability": "nonpayable",
      "type": "constructor"
    },
    {
      "inputs": [],
      "name": "Empty",
      "type": "error"
    },
    {
      "anonymous": false,
      "inputs": [
        {
          "indexed": false,
          "internalType": "uint256",
          "name": "proposalId",
          "type": "uint256"
        }
      ],
      "name": "ProposalCanceled",
      "type": "event"
    },
    {
      "anonymous": false,
      "inputs": [
        {
          "indexed": false,
          "internalType": "uint256",
          "name": "proposalId",
          "type": "uint256"
        },
        {
          "indexed": false,
          "internalType": "address",
          "name": "proposer",
          "type": "address"
        },
        {
          "indexed": false,
          "internalType": "address[]",
          "name": "targets",
          "type": "address[]"
        },
        {
          "indexed": false,
          "internalType": "uint256[]",
          "name": "values",
          "type": "uint256[]"
        },
        {
          "indexed": false,
          "internalType": "string[]",
          "name": "signatures",
          "type": "string[]"
        },
        {
          "indexed": false,
          "internalType": "bytes[]",
          "name": "calldatas",
          "type": "bytes[]"
        },
        {
          "indexed": false,
          "internalType": "uint256",
          "name": "startBlock",
          "type": "uint256"
        },
        {
          "indexed": false,
          "internalType": "uint256",
          "name": "endBlock",
          "type": "uint256"
        },
        {
          "indexed": false,
          "internalType": "string",
          "name": "description",
          "type": "string"
        }
      ],
      "name": "ProposalCreated",
      "type": "event"
    },
    {
      "anonymous": false,
      "inputs": [
        {
          "indexed": false,
          "internalType": "uint256",
          "name": "proposalId",
          "type": "uint256"
        }
      ],
      "name": "ProposalExecuted",
      "type": "event"
    },
    {
      "anonymous": false,
      "inputs": [
        {
          "indexed": false,
          "internalType": "uint256",
          "name": "oldProposalThreshold",
          "type": "uint256"
        },
        {
          "indexed": false,
          "internalType": "uint256",
          "name": "newProposalThreshold",
          "type": "uint256"
        }
      ],
      "name": "ProposalThresholdSet",
      "type": "event"
    },
    {
      "anonymous": false,
      "inputs": [
        {
          "indexed": true,
          "internalType": "address",
          "name": "voter",
          "type": "address"
        },
        {
          "indexed": false,
          "internalType": "uint256",
          "name": "proposalId",
          "type": "uint256"
        },
        {
          "indexed": false,
          "internalType": "uint8",
          "name": "support",
          "type": "uint8"
        },
        {
          "indexed": false,
          "internalType": "uint256",
          "name": "weight",
          "type": "uint256"
        },
        {
          "indexed": false,
          "internalType": "string",
          "name": "reason",
          "type": "string"
        }
      ],
      "name": "VoteCast",
      "type": "event"
    },
    {
      "anonymous": false,
      "inputs": [
        {
          "indexed": true,
          "internalType": "address",
          "name": "voter",
          "type": "address"
        },
        {
          "indexed": false,
          "internalType": "uint256",
          "name": "proposalId",
          "type": "uint256"
        },
        {
          "indexed": false,
          "internalType": "uint8",
          "name": "support",
          "type": "uint8"
        },
        {
          "indexed": false,
          "internalType": "uint256",
          "name": "weight",
          "type": "uint256"
        },
        {
          "indexed": false,
          "internalType": "string",
          "name": "reason",
          "type": "string"
        },
        {
          "indexed": false,
          "internalType": "bytes",
          "name": "params",
          "type": "bytes"
        }
      ],
      "name": "VoteCastWithParams",
      "type": "event"
    },
    {
      "anonymous": false,
      "inputs": [
        {
          "indexed": false,
          "internalType": "uint256",
          "name": "oldVotingDelay",
          "type": "uint256"
        },
        {
          "indexed": false,
          "internalType": "uint256",
          "name": "newVotingDelay",
          "type": "uint256"
        }
      ],
      "name": "VotingDelaySet",
      "type": "event"
    },
    {
      "anonymous": false,
      "inputs": [
        {
          "indexed": false,
          "internalType": "uint256",
          "name": "oldVotingPeriod",
          "type": "uint256"
        },
        {
          "indexed": false,
          "internalType": "uint256",
          "name": "newVotingPeriod",
          "type": "uint256"
        }
      ],
      "name": "VotingPeriodSet",
      "type": "event"
    },
    {
      "inputs": [],
      "name": "BALLOT_TYPEHASH",
      "outputs": [
        {
          "internalType": "bytes32",
          "name": "",
          "type": "bytes32"
        }
      ],
      "stateMutability": "view",
      "type": "function"
    },
    {
      "inputs": [],
      "name": "COUNTING_MODE",
      "outputs": [
        {
          "internalType": "string",
          "name": "",
          "type": "string"
        }
      ],
      "stateMutability": "pure",
      "type": "function"
    },
    {
      "inputs": [],
      "name": "EXTENDED_BALLOT_TYPEHASH",
      "outputs": [
        {
          "internalType": "bytes32",
          "name": "",
          "type": "bytes32"
        }
      ],
      "stateMutability": "view",
      "type": "function"
    },
    {
      "inputs": [
        {
          "internalType": "uint256",
          "name": "proposalId",
          "type": "uint256"
        },
        {
          "internalType": "uint8",
          "name": "support",
          "type": "uint8"
        }
      ],
      "name": "castVote",
      "outputs": [
        {
          "internalType": "uint256",
          "name": "",
          "type": "uint256"
        }
      ],
      "stateMutability": "nonpayable",
      "type": "function"
    },
    {
      "inputs": [
        {
          "internalType": "uint256",
          "name": "proposalId",
          "type": "uint256"
        },
        {
          "internalType": "uint8",
          "name": "support",
          "type": "uint8"
        },
        {
          "internalType": "uint8",
          "name": "v",
          "type": "uint8"
        },
        {
          "internalType": "bytes32",
          "name": "r",
          "type": "bytes32"
        },
        {
          "internalType": "bytes32",
          "name": "s",
          "type": "bytes32"
        }
      ],
      "name": "castVoteBySig",
      "outputs": [
        {
          "internalType": "uint256",
          "name": "",
          "type": "uint256"
        }
      ],
      "stateMutability": "nonpayable",
      "type": "function"
    },
    {
      "inputs": [
        {
          "internalType": "uint256",
          "name": "proposalId",
          "type": "uint256"
        },
        {
          "internalType": "uint8",
          "name": "support",
          "type": "uint8"
        },
        {
          "internalType": "string",
          "name": "reason",
          "type": "string"
        }
      ],
      "name": "castVoteWithReason",
      "outputs": [
        {
          "internalType": "uint256",
          "name": "",
          "type": "uint256"
        }
      ],
      "stateMutability": "nonpayable",
      "type": "function"
    },
    {
      "inputs": [
        {
          "internalType": "uint256",
          "name": "proposalId",
          "type": "uint256"
        },
        {
          "internalType": "uint8",
          "name": "support",
          "type": "uint8"
        },
        {
          "internalType": "string",
          "name": "reason",
          "type": "string"
        },
        {
          "internalType": "bytes",
          "name": "params",
          "type": "bytes"
        }
      ],
      "name": "castVoteWithReasonAndParams",
      "outputs": [
        {
          "internalType": "uint256",
          "name": "",
          "type": "uint256"
        }
      ],
      "stateMutability": "nonpayable",
      "type": "function"
    },
    {
      "inputs": [
        {
          "internalType": "uint256",
          "name": "proposalId",
          "type": "uint256"
        },
        {
          "internalType": "uint8",
          "name": "support",
          "type": "uint8"
        },
        {
          "internalType": "string",
          "name": "reason",
          "type": "string"
        },
        {
          "internalType": "bytes",
          "name": "params",
          "type": "bytes"
        },
        {
          "internalType": "uint8",
          "name": "v",
          "type": "uint8"
        },
        {
          "internalType": "bytes32",
          "name": "r",
          "type": "bytes32"
        },
        {
          "internalType": "bytes32",
          "name": "s",
          "type": "bytes32"
        }
      ],
      "name": "castVoteWithReasonAndParamsBySig",
      "outputs": [
        {
          "internalType": "uint256",
          "name": "",
          "type": "uint256"
        }
      ],
      "stateMutability": "nonpayable",
      "type": "function"
    },
    {
      "inputs": [
        {
          "internalType": "address[]",
          "name": "targets",
          "type": "address[]"
        },
        {
          "internalType": "uint256[]",
          "name": "values",
          "type": "uint256[]"
        },
        {
          "internalType": "bytes[]",
          "name": "calldatas",
          "type": "bytes[]"
        },
        {
          "internalType": "bytes32",
          "name": "descriptionHash",
          "type": "bytes32"
        }
      ],
      "name": "execute",
      "outputs": [
        {
          "internalType": "uint256",
          "name": "",
          "type": "uint256"
        }
      ],
      "stateMutability": "payable",
      "type": "function"
    },
    {
      "inputs": [],
      "name": "getAllProposalsId",
      "outputs": [
        {
          "internalType": "uint256[]",
          "name": "",
          "type": "uint256[]"
        }
      ],
      "stateMutability": "view",
      "type": "function"
    },
    {
      "inputs": [
        {
          "internalType": "uint256",
          "name": "proposalId",
          "type": "uint256"
        }
      ],
      "name": "getProposal",
      "outputs": [
        {
          "components": [
            {
              "internalType": "address[]",
              "name": "targets",
              "type": "address[]"
            },
            {
              "internalType": "uint256[]",
              "name": "values",
              "type": "uint256[]"
            },
            {
              "internalType": "bytes[]",
              "name": "calldatas",
              "type": "bytes[]"
            },
            {
              "internalType": "string",
              "name": "description",
              "type": "string"
            }
          ],
          "internalType": "struct DummyGovernor.ProposalInfo",
          "name": "",
          "type": "tuple"
        }
      ],
      "stateMutability": "view",
      "type": "function"
    },
    {
      "inputs": [
        {
          "internalType": "address",
          "name": "account",
          "type": "address"
        },
        {
          "internalType": "uint256",
          "name": "blockNumber",
          "type": "uint256"
        }
      ],
      "name": "getVotes",
      "outputs": [
        {
          "internalType": "uint256",
          "name": "",
          "type": "uint256"
        }
      ],
      "stateMutability": "view",
      "type": "function"
    },
    {
      "inputs": [
        {
          "internalType": "address",
          "name": "account",
          "type": "address"
        },
        {
          "internalType": "uint256",
          "name": "blockNumber",
          "type": "uint256"
        },
        {
          "internalType": "bytes",
          "name": "params",
          "type": "bytes"
        }
      ],
      "name": "getVotesWithParams",
      "outputs": [
        {
          "internalType": "uint256",
          "name": "",
          "type": "uint256"
        }
      ],
      "stateMutability": "view",
      "type": "function"
    },
    {
      "inputs": [
        {
          "internalType": "uint256",
          "name": "proposalId",
          "type": "uint256"
        },
        {
          "internalType": "address",
          "name": "account",
          "type": "address"
        }
      ],
      "name": "hasVoted",
      "outputs": [
        {
          "internalType": "bool",
          "name": "",
          "type": "bool"
        }
      ],
      "stateMutability": "view",
      "type": "function"
    },
    {
      "inputs": [
        {
          "internalType": "address[]",
          "name": "targets",
          "type": "address[]"
        },
        {
          "internalType": "uint256[]",
          "name": "values",
          "type": "uint256[]"
        },
        {
          "internalType": "bytes[]",
          "name": "calldatas",
          "type": "bytes[]"
        },
        {
          "internalType": "bytes32",
          "name": "descriptionHash",
          "type": "bytes32"
        }
      ],
      "name": "hashProposal",
      "outputs": [
        {
          "internalType": "uint256",
          "name": "",
          "type": "uint256"
        }
      ],
      "stateMutability": "pure",
      "type": "function"
    },
    {
      "inputs": [],
      "name": "name",
      "outputs": [
        {
          "internalType": "string",
          "name": "",
          "type": "string"
        }
      ],
      "stateMutability": "view",
      "type": "function"
    },
    {
      "inputs": [
        {
          "internalType": "address",
          "name": "",
          "type": "address"
        },
        {
          "internalType": "address",
          "name": "",
          "type": "address"
        },
        {
          "internalType": "uint256[]",
          "name": "",
          "type": "uint256[]"
        },
        {
          "internalType": "uint256[]",
          "name": "",
          "type": "uint256[]"
        },
        {
          "internalType": "bytes",
          "name": "",
          "type": "bytes"
        }
      ],
      "name": "onERC1155BatchReceived",
      "outputs": [
        {
          "internalType": "bytes4",
          "name": "",
          "type": "bytes4"
        }
      ],
      "stateMutability": "nonpayable",
      "type": "function"
    },
    {
      "inputs": [
        {
          "internalType": "address",
          "name": "",
          "type": "address"
        },
        {
          "internalType": "address",
          "name": "",
          "type": "address"
        },
        {
          "internalType": "uint256",
          "name": "",
          "type": "uint256"
        },
        {
          "internalType": "uint256",
          "name": "",
          "type": "uint256"
        },
        {
          "internalType": "bytes",
          "name": "",
          "type": "bytes"
        }
      ],
      "name": "onERC1155Received",
      "outputs": [
        {
          "internalType": "bytes4",
          "name": "",
          "type": "bytes4"
        }
      ],
      "stateMutability": "nonpayable",
      "type": "function"
    },
    {
      "inputs": [
        {
          "internalType": "address",
          "name": "",
          "type": "address"
        },
        {
          "internalType": "address",
          "name": "",
          "type": "address"
        },
        {
          "internalType": "uint256",
          "name": "",
          "type": "uint256"
        },
        {
          "internalType": "bytes",
          "name": "",
          "type": "bytes"
        }
      ],
      "name": "onERC721Received",
      "outputs": [
        {
          "internalType": "bytes4",
          "name": "",
          "type": "bytes4"
        }
      ],
      "stateMutability": "nonpayable",
      "type": "function"
    },
    {
      "inputs": [
        {
          "internalType": "uint256",
          "name": "proposalId",
          "type": "uint256"
        }
      ],
      "name": "proposalDeadline",
      "outputs": [
        {
          "internalType": "uint256",
          "name": "",
          "type": "uint256"
        }
      ],
      "stateMutability": "view",
      "type": "function"
    },
    {
      "inputs": [
        {
          "internalType": "uint256",
          "name": "proposalId",
          "type": "uint256"
        }
      ],
      "name": "proposalSnapshot",
      "outputs": [
        {
          "internalType": "uint256",
          "name": "",
          "type": "uint256"
        }
      ],
      "stateMutability": "view",
      "type": "function"
    },
    {
      "inputs": [],
      "name": "proposalThreshold",
      "outputs": [
        {
          "internalType": "uint256",
          "name": "",
          "type": "uint256"
        }
      ],
      "stateMutability": "view",
      "type": "function"
    },
    {
      "inputs": [
        {
          "internalType": "uint256",
          "name": "proposalId",
          "type": "uint256"
        }
      ],
      "name": "proposalVotes",
      "outputs": [
        {
          "internalType": "uint256",
          "name": "againstVotes",
          "type": "uint256"
        },
        {
          "internalType": "uint256",
          "name": "forVotes",
          "type": "uint256"
        },
        {
          "internalType": "uint256",
          "name": "abstainVotes",
          "type": "uint256"
        }
      ],
      "stateMutability": "view",
      "type": "function"
    },
    {
      "inputs": [
        {
          "internalType": "uint256",
          "name": "",
          "type": "uint256"
        }
      ],
      "name": "proposalsId",
      "outputs": [
        {
          "internalType": "uint256",
          "name": "",
          "type": "uint256"
        }
      ],
      "stateMutability": "view",
      "type": "function"
    },
    {
      "inputs": [
        {
          "internalType": "address[]",
          "name": "targets",
          "type": "address[]"
        },
        {
          "internalType": "uint256[]",
          "name": "values",
          "type": "uint256[]"
        },
        {
          "internalType": "bytes[]",
          "name": "calldatas",
          "type": "bytes[]"
        },
        {
          "internalType": "string",
          "name": "description",
          "type": "string"
        }
      ],
      "name": "propose",
      "outputs": [
        {
          "internalType": "uint256",
          "name": "",
          "type": "uint256"
        }
      ],
      "stateMutability": "nonpayable",
      "type": "function"
    },
    {
      "inputs": [
        {
          "internalType": "uint256",
          "name": "blockNumber",
          "type": "uint256"
        }
      ],
      "name": "quorum",
      "outputs": [
        {
          "internalType": "uint256",
          "name": "",
          "type": "uint256"
        }
      ],
      "stateMutability": "pure",
      "type": "function"
    },
    {
      "inputs": [
        {
          "internalType": "address",
          "name": "target",
          "type": "address"
        },
        {
          "internalType": "uint256",
          "name": "value",
          "type": "uint256"
        },
        {
          "internalType": "bytes",
          "name": "data",
          "type": "bytes"
        }
      ],
      "name": "relay",
      "outputs": [],
      "stateMutability": "nonpayable",
      "type": "function"
    },
    {
      "inputs": [
        {
          "internalType": "uint256",
          "name": "newProposalThreshold",
          "type": "uint256"
        }
      ],
      "name": "setProposalThreshold",
      "outputs": [],
      "stateMutability": "nonpayable",
      "type": "function"
    },
    {
      "inputs": [
        {
          "internalType": "uint256",
          "name": "newVotingDelay",
          "type": "uint256"
        }
      ],
      "name": "setVotingDelay",
      "outputs": [],
      "stateMutability": "nonpayable",
      "type": "function"
    },
    {
      "inputs": [
        {
          "internalType": "uint256",
          "name": "newVotingPeriod",
          "type": "uint256"
        }
      ],
      "name": "setVotingPeriod",
      "outputs": [],
      "stateMutability": "nonpayable",
      "type": "function"
    },
    {
      "inputs": [
        {
          "internalType": "uint256",
          "name": "proposalId",
          "type": "uint256"
        }
      ],
      "name": "state",
      "outputs": [
        {
          "internalType": "enum IGovernor.ProposalState",
          "name": "",
          "type": "uint8"
        }
      ],
      "stateMutability": "view",
      "type": "function"
    },
    {
      "inputs": [
        {
          "internalType": "bytes4",
          "name": "interfaceId",
          "type": "bytes4"
        }
      ],
      "name": "supportsInterface",
      "outputs": [
        {
          "internalType": "bool",
          "name": "",
          "type": "bool"
        }
      ],
      "stateMutability": "view",
      "type": "function"
    },
    {
      "inputs": [],
      "name": "version",
      "outputs": [
        {
          "internalType": "string",
          "name": "",
          "type": "string"
        }
      ],
      "stateMutability": "view",
      "type": "function"
    },
    {
      "inputs": [],
      "name": "votingDelay",
      "outputs": [
        {
          "internalType": "uint256",
          "name": "",
          "type": "uint256"
        }
      ],
      "stateMutability": "view",
      "type": "function"
    },
    {
      "inputs": [],
      "name": "votingPeriod",
      "outputs": [
        {
          "internalType": "uint256",
          "name": "",
          "type": "uint256"
        }
      ],
      "stateMutability": "view",
      "type": "function"
    },
    {
      "stateMutability": "payable",
      "type": "receive"
    }
  ],
  "bytecode": "0x6101406040523480156200001257600080fd5b506001600560006040518060400160405280600d81526020016c223ab6b6bca3b7bb32b93737b960991b81525080620000506200012660201b60201c565b815160208084019190912082518383012060e08290526101008190524660a0818152604080517f8b73c3c69bb8fe3d512ecc4cf759cc79239f7b179b0ffacaa9a75d522b39400f81880181905281830187905260608201869052608082019490945230818401528151808203909301835260c00190528051940193909320919290916080523060601b60c0526101205250508251620000f9925060009150602084019062000269565b506200010790508362000141565b620001128262000182565b6200011d8162000228565b5050506200034c565b6040805180820190915260018152603160f81b602082015290565b60045460408051918252602082018390527fc565b045403dc03c2eea82b81a0465edad9e2e7fc4d97e11421c209da93d7a93910160405180910390a1600455565b60008111620001e75760405162461bcd60e51b815260206004820152602760248201527f476f7665726e6f7253657474696e67733a20766f74696e6720706572696f6420604482015266746f6f206c6f7760c81b606482015260840160405180910390fd5b60055460408051918252602082018390527f7e3f7f0708a84de9203036abaa450dccc85ad5ff52f78c170f3edb55cf5e8828910160405180910390a1600555565b60065460408051918252602082018390527fccb45da8d5717e6c4544694297c4ba5cf151d455c9bb0ed4fc7a38411bc05461910160405180910390a1600655565b82805462000277906200030f565b90600052602060002090601f0160209004810192826200029b5760008555620002e6565b82601f10620002b657805160ff1916838001178555620002e6565b82800160010185558215620002e6579182015b82811115620002e6578251825591602001919060010190620002c9565b50620002f4929150620002f8565b5090565b5b80821115620002f45760008155600101620002f9565b600181811c908216806200032457607f821691505b602082108114156200034657634e487b7160e01b600052602260045260246000fd5b50919050565b60805160a05160c05160601c60e05161010051610120516132e26200039f6000396000611c4501526000611c9401526000611c6f01526000611bc801526000611bf201526000611c1c01526132e26000f3fe6080604052600436106102085760003560e01c806370b0f66011610118578063c59057e4116100a0578063ea0217cf1161006f578063ea0217cf146106d0578063eb9019d4146106f0578063ece40cc114610710578063f23a6e6114610730578063f8ce560a1461075c57600080fd5b8063c59057e414610609578063c7f758a814610629578063dd4e2ba514610656578063deaaa7cc1461069c57600080fd5b80639a802a6d116100e75780639a802a6d14610568578063b58131b014610588578063bc197c811461059d578063c01f9e37146105c9578063c28bc2fa146105e957600080fd5b806370b0f660146104e65780637b3c71d3146105065780637d5e81e21461052657806399a1d8db1461054657600080fd5b80633932abb11161019b578063476c88011161016a578063476c880114610407578063544ffc9c1461042757806354fd4d501461047c57806356781388146104a65780635f398a14146104c657600080fd5b80633932abb11461035b5780633bccf4fd146103705780633e4f49e61461039057806343859632146103bd57600080fd5b8063150b7a02116101d7578063150b7a02146102b05780632656227d146102f45780632d63f693146103075780632fe3e2611461032757600080fd5b806301ffc9a71461021657806302a251a31461024b578063034201811461026e57806306fdde031461028e57600080fd5b3661021157005b005b600080fd5b34801561022257600080fd5b50610236610231366004612ae8565b61077d565b60405190151581526020015b60405180910390f35b34801561025757600080fd5b506102606107ea565b604051908152602001610242565b34801561027a57600080fd5b50610260610289366004612c1a565b6107fa565b34801561029a57600080fd5b506102a36108f2565b6040516102429190612ea1565b3480156102bc57600080fd5b506102db6102cb366004612814565b630a85bd0160e11b949350505050565b6040516001600160e01b03199091168152602001610242565b6102606103023660046129af565b610984565b34801561031357600080fd5b50610260610322366004612b10565b610acc565b34801561033357600080fd5b506102607fb3b3f3b703cd84ce352197dcff232b1b5d3cfb2025ce47cf04742d0651f1af8881565b34801561036757600080fd5b50610260610b03565b34801561037c57600080fd5b5061026061038b366004612cbd565b610b0e565b34801561039c57600080fd5b506103b06103ab366004612b10565b610b84565b6040516102429190612e79565b3480156103c957600080fd5b506102366103d8366004612b28565b60008281526007602090815260408083206001600160a01b038516845260030190915290205460ff1692915050565b34801561041357600080fd5b50610260610422366004612b10565b610c90565b34801561043357600080fd5b50610461610442366004612b10565b6000908152600760205260409020805460018201546002909201549092565b60408051938452602084019290925290820152606001610242565b34801561048857600080fd5b506040805180820190915260018152603160f81b60208201526102a3565b3480156104b257600080fd5b506102606104c1366004612b53565b610cb1565b3480156104d257600080fd5b506102606104e1366004612bb4565b610cda565b3480156104f257600080fd5b5061020f610501366004612b10565b610d24565b34801561051257600080fd5b50610260610521366004612b75565b610d6b565b34801561053257600080fd5b50610260610541366004612a3a565b610dbd565b34801561055257600080fd5b5061055b610ea2565b6040516102429190612e66565b34801561057457600080fd5b5061026061058336600461295b565b610ef9565b34801561059457600080fd5b50610260610f08565b3480156105a957600080fd5b506102db6105b836600461276f565b63bc197c8160e01b95945050505050565b3480156105d557600080fd5b506102606105e4366004612b10565b610f13565b3480156105f557600080fd5b5061020f610604366004612904565b610f42565b34801561061557600080fd5b506102606106243660046129af565b610fc6565b34801561063557600080fd5b50610649610644366004612b10565b611000565b6040516102429190612f2c565b34801561066257600080fd5b506040805180820190915260208082527f737570706f72743d627261766f2671756f72756d3d666f722c6162737461696e908201526102a3565b3480156106a857600080fd5b506102607f150214d74d59b7d1e90c73fc22ef3d991dd0a76b046543d4d80ab92d2a50328f81565b3480156106dc57600080fd5b5061020f6106eb366004612b10565b611268565b3480156106fc57600080fd5b5061026061070b3660046128db565b6112ac565b34801561071c57600080fd5b5061020f61072b366004612b10565b6112d1565b34801561073c57600080fd5b506102db61074b366004612879565b63f23a6e6160e01b95945050505050565b34801561076857600080fd5b50610260610777366004612b10565b50600090565b60006001600160e01b0319821663bf26d89760e01b14806107ae57506001600160e01b031982166379dd796f60e01b145b806107c957506001600160e01b03198216630271189760e51b145b806107e457506301ffc9a760e01b6001600160e01b03198316145b92915050565b60006107f560055490565b905090565b60008061089e6108967fb3b3f3b703cd84ce352197dcff232b1b5d3cfb2025ce47cf04742d0651f1af888c8c8c8c604051610836929190612def565b60405180910390208b8051906020012060405160200161087b959493929190948552602085019390935260ff9190911660408401526060830152608082015260a00190565b60405160208183030381529060405280519060200120611315565b868686611363565b90506108e48a828b8b8b8080601f0160208091040260200160405190810160405280939291908181526020018383808284376000920191909152508d9250611381915050565b9a9950505050505050505050565b606060008054610901906131da565b80601f016020809104026020016040519081016040528092919081815260200182805461092d906131da565b801561097a5780601f1061094f5761010080835404028352916020019161097a565b820191906000526020600020905b81548152906001019060200180831161095d57829003601f168201915b5050505050905090565b60008061099386868686610fc6565b905060006109a082610b84565b905060048160078111156109c457634e487b7160e01b600052602160045260246000fd5b14806109ef575060058160078111156109ed57634e487b7160e01b600052602160045260246000fd5b145b610a4a5760405162461bcd60e51b815260206004820152602160248201527f476f7665726e6f723a2070726f706f73616c206e6f74207375636365737366756044820152601b60fa1b60648201526084015b60405180910390fd5b600082815260016020818152604092839020600201805460ff191690921790915590518381527f712ae1383f79ac853f8d882153778e0260ef8f03b504e2866e0593e04d2b291f910160405180910390a1610aa882888888886114e0565b610ab58288888888611589565b610ac282888888886114e0565b5095945050505050565b60008181526001602090815260408083208151928301909152546001600160401b0316908190525b6001600160401b031692915050565b60006107f560045490565b604080517f150214d74d59b7d1e90c73fc22ef3d991dd0a76b046543d4d80ab92d2a50328f602082015290810186905260ff851660608201526000908190610b5c906108969060800161087b565b9050610b79878288604051806020016040528060008152506116b2565b979650505050505050565b6000818152600160205260408120600281015460ff1615610ba85750600792915050565b6002810154610100900460ff1615610bc35750600292915050565b6000610bce84610acc565b905080610c1d5760405162461bcd60e51b815260206004820152601d60248201527f476f7665726e6f723a20756e6b6e6f776e2070726f706f73616c2069640000006044820152606401610a41565b438110610c2e575060009392505050565b6000610c3985610f13565b9050438110610c4d57506001949350505050565b610c56856116de565b8015610c75575060008581526007602052604090208054600190910154115b15610c8557506004949350505050565b506003949350505050565b60088181548110610ca057600080fd5b600091825260209091200154905081565b600080339050610cd2848285604051806020016040528060008152506116b2565b949350505050565b600080339050610b7987828888888080601f0160208091040260200160405190810160405280939291908181526020018383808284376000920191909152508a9250611381915050565b333014610d435760405162461bcd60e51b8152600401610a4190612eb4565b610d5f565b80610d536002611715565b14610d5d57610d48565b505b610d68816117a1565b50565b600080339050610db386828787878080601f0160208091040260200160405190810160405280939291908181526020018383808284376000920191909152506116b292505050565b9695505050505050565b600080610dcc868686866117e2565b60088054600181019091557ff3f7a9fe364faab93b216da50a3214154f22a0a2b415b23a84c8169e8b636ee30181905560408051608081018252888152602081810189905281830188905260608201879052600084815260098252929092208151805194955091939092610e44928492910190612360565b506020828101518051610e5d92600185019201906123c1565b5060408201518051610e799160028401916020909101906123fc565b5060608201518051610e95916003840191602090910190612455565b5091979650505050505050565b6060600880548060200260200160405190810160405280929190818152602001828054801561097a57602002820191906000526020600020905b815481526020019060010190808311610edc575050505050905090565b600060015b90505b9392505050565b60006107f560065490565b60008181526001602081815260408084208151928301909152909101546001600160401b031690819052610af4565b333014610f615760405162461bcd60e51b8152600401610a4190612eb4565b610f7d565b80610f716002611715565b14610f7b57610f66565b505b610fbf8483838080601f016020809104026020016040519081016040528093929190818152602001838380828437600092019190915250889250611ab3915050565b5050505050565b600084848484604051602001610fdf9493929190612e1b565b60408051601f19818403018152919052805160209091012095945050505050565b61102b6040518060800160405280606081526020016060815260200160608152602001606081525090565b6000828152600960209081526040918290208251815460a09381028201840190945260808101848152909391928492849184018282801561109557602002820191906000526020600020905b81546001600160a01b03168152600190910190602001808311611077575b50505050508152602001600182018054806020026020016040519081016040528092919081815260200182805480156110ed57602002820191906000526020600020905b8154815260200190600101908083116110d9575b5050505050815260200160028201805480602002602001604051908101604052809291908181526020016000905b828210156111c757838290600052602060002001805461113a906131da565b80601f0160208091040260200160405190810160405280929190818152602001828054611166906131da565b80156111b35780601f10611188576101008083540402835291602001916111b3565b820191906000526020600020905b81548152906001019060200180831161119657829003601f168201915b50505050508152602001906001019061111b565b5050505081526020016003820180546111df906131da565b80601f016020809104026020016040519081016040528092919081815260200182805461120b906131da565b80156112585780601f1061122d57610100808354040283529160200191611258565b820191906000526020600020905b81548152906001019060200180831161123b57829003601f168201915b5050505050815250509050919050565b3330146112875760405162461bcd60e51b8152600401610a4190612eb4565b6112a3565b806112976002611715565b146112a15761128c565b505b610d6881611ad9565b6000610f0183836112c860408051602081019091526000815290565b60019392505050565b3330146112f05760405162461bcd60e51b8152600401610a4190612eb4565b61130c565b806113006002611715565b1461130a576112f5565b505b610d6881611b7a565b60006107e4611322611bbb565b8360405161190160f01b6020820152602281018390526042810182905260009060620160405160208183030381529060405280519060200120905092915050565b600080600061137487878787611ce2565b91509150610ac281611dcf565b600085815260016020819052604082209061139b88610b84565b60078111156113ba57634e487b7160e01b600052602160045260246000fd5b146114135760405162461bcd60e51b815260206004820152602360248201527f476f7665726e6f723a20766f7465206e6f742063757272656e746c792061637460448201526269766560e81b6064820152608401610a41565b604080516020810190915281546001600160401b03169052600161143a8888888488611fd0565b835161148c57866001600160a01b03167fb8e138887d0aa13bab447e82de9d5c1777041ecd21ca36ba824ff1e6c07ddda48988848960405161147f949392919061308f565b60405180910390a2610b79565b866001600160a01b03167fe2babfbac5889a709b63bb7f598b324e08bc5a4fb9ec647fb3cbc9ec07eb871289888489896040516114cd9594939291906130b7565b60405180910390a2979650505050505050565b610fbf565b845181101561158157306001600160a01b031685828151811061151857634e487b7160e01b600052603260045260246000fd5b60200260200101516001600160a01b031614156115715761157183828151811061155257634e487b7160e01b600052603260045260246000fd5b602002602001015180519060200120600261214f90919063ffffffff16565b61157a81613215565b90506114e5565b505050505050565b600060405180606001604052806027815260200161325d60279139905060005b85518110156116a9576000808783815181106115d557634e487b7160e01b600052603260045260246000fd5b60200260200101516001600160a01b031687848151811061160657634e487b7160e01b600052603260045260246000fd5b602002602001015187858151811061162e57634e487b7160e01b600052603260045260246000fd5b60200260200101516040516116439190612dff565b60006040518083038185875af1925050503d8060008114611680576040519150601f19603f3d011682016040523d82523d6000602084013e611685565b606091505b5091509150611695828286612195565b505050806116a290613215565b90506115a9565b50505050505050565b60006116d5858585856116d060408051602081019091526000815290565b611381565b95945050505050565b6000818152600760205260408120600281015460018201546117009190613150565b61170c61077785610acc565b11159392505050565b60006117348254600f81810b810b600160801b909204810b900b131590565b1561175257604051631ed9509560e11b815260040160405180910390fd5b508054600f90810b80820b820b600090815260018085016020526040822080549290558454920190920b6001600160801b03166fffffffffffffffffffffffffffffffff199091161790915590565b60045460408051918252602082018390527fc565b045403dc03c2eea82b81a0465edad9e2e7fc4d97e11421c209da93d7a93910160405180910390a1600455565b60006117ec610f08565b6117fb3361070b600143613193565b10156118635760405162461bcd60e51b815260206004820152603160248201527f476f7665726e6f723a2070726f706f73657220766f7465732062656c6f7720706044820152701c9bdc1bdcd85b081d1a1c995cda1bdb19607a1b6064820152608401610a41565b60006118788686868680519060200120610fc6565b9050845186511461189b5760405162461bcd60e51b8152600401610a4190612eeb565b83518651146118bc5760405162461bcd60e51b8152600401610a4190612eeb565b600086511161190d5760405162461bcd60e51b815260206004820152601860248201527f476f7665726e6f723a20656d7074792070726f706f73616c00000000000000006044820152606401610a41565b600081815260016020908152604091829020825191820190925281546001600160401b0316908190521561198d5760405162461bcd60e51b815260206004820152602160248201527f476f7665726e6f723a2070726f706f73616c20616c72656164792065786973746044820152607360f81b6064820152608401610a41565b600061199f61199a610b03565b6121ce565b6119a8436121ce565b6119b29190613168565b905060006119c161199a6107ea565b6119cb9083613168565b835467ffffffffffffffff19166001600160401b038416178455905060018301805467ffffffffffffffff19166001600160401b0383161790557f7d84a6263ae0d98d3329bd7b46bb4e8d6f98cd35a7adb45c274c8b7fd5ebd5e084338b8b8d516001600160401b03811115611a5157634e487b7160e01b600052604160045260246000fd5b604051908082528060200260200182016040528015611a8457816020015b6060815260200190600190039081611a6f5790505b508c88888e604051611a9e99989796959493929190612fa1565b60405180910390a15091979650505050505050565b6060610efe8484846040518060600160405280602981526020016132846029913961223a565b60008111611b395760405162461bcd60e51b815260206004820152602760248201527f476f7665726e6f7253657474696e67733a20766f74696e6720706572696f6420604482015266746f6f206c6f7760c81b6064820152608401610a41565b60055460408051918252602082018390527f7e3f7f0708a84de9203036abaa450dccc85ad5ff52f78c170f3edb55cf5e8828910160405180910390a1600555565b60065460408051918252602082018390527fccb45da8d5717e6c4544694297c4ba5cf151d455c9bb0ed4fc7a38411bc05461910160405180910390a1600655565b6000306001600160a01b037f000000000000000000000000000000000000000000000000000000000000000016148015611c1457507f000000000000000000000000000000000000000000000000000000000000000046145b15611c3e57507f000000000000000000000000000000000000000000000000000000000000000090565b50604080517f00000000000000000000000000000000000000000000000000000000000000006020808301919091527f0000000000000000000000000000000000000000000000000000000000000000828401527f000000000000000000000000000000000000000000000000000000000000000060608301524660808301523060a0808401919091528351808403909101815260c0909201909252805191012090565b6000807f7fffffffffffffffffffffffffffffff5d576e7357a4501ddfe92f46681b20a0831115611d195750600090506003611dc6565b8460ff16601b14158015611d3157508460ff16601c14155b15611d425750600090506004611dc6565b6040805160008082526020820180845289905260ff881692820192909252606081018690526080810185905260019060a0016020604051602081039080840390855afa158015611d96573d6000803e3d6000fd5b5050604051601f1901519150506001600160a01b038116611dbf57600060019250925050611dc6565b9150600090505b94509492505050565b6000816004811115611df157634e487b7160e01b600052602160045260246000fd5b1415611dfa5750565b6001816004811115611e1c57634e487b7160e01b600052602160045260246000fd5b1415611e6a5760405162461bcd60e51b815260206004820152601860248201527f45434453413a20696e76616c6964207369676e617475726500000000000000006044820152606401610a41565b6002816004811115611e8c57634e487b7160e01b600052602160045260246000fd5b1415611eda5760405162461bcd60e51b815260206004820152601f60248201527f45434453413a20696e76616c6964207369676e6174757265206c656e677468006044820152606401610a41565b6003816004811115611efc57634e487b7160e01b600052602160045260246000fd5b1415611f555760405162461bcd60e51b815260206004820152602260248201527f45434453413a20696e76616c6964207369676e6174757265202773272076616c604482015261756560f01b6064820152608401610a41565b6004816004811115611f7757634e487b7160e01b600052602160045260246000fd5b1415610d685760405162461bcd60e51b815260206004820152602260248201527f45434453413a20696e76616c6964207369676e6174757265202776272076616c604482015261756560f01b6064820152608401610a41565b60008581526007602090815260408083206001600160a01b0388168452600381019092529091205460ff16156120585760405162461bcd60e51b815260206004820152602760248201527f476f7665726e6f72566f74696e6753696d706c653a20766f746520616c726561604482015266191e4818d85cdd60ca1b6064820152608401610a41565b6001600160a01b03851660009081526003820160205260408120805460ff1916600117905560ff168460ff1614156120a9578281600001600082825461209e9190613150565b909155506115819050565b60ff8416600114156120c9578281600101600082825461209e9190613150565b60ff8416600214156120e9578281600201600082825461209e9190613150565b60405162461bcd60e51b815260206004820152603560248201527f476f7665726e6f72566f74696e6753696d706c653a20696e76616c69642076616044820152746c756520666f7220656e756d20566f74655479706560581b6064820152608401610a41565b8154600160801b90819004600f90810b80820b820b6000908152600180870160205260409091209490945584549301900b6001600160801b039081169091029116179055565b606083156121a4575081610f01565b8251156121b45782518084602001fd5b8160405162461bcd60e51b8152600401610a419190612ea1565b60006001600160401b038211156122365760405162461bcd60e51b815260206004820152602660248201527f53616665436173743a2076616c756520646f65736e27742066697420696e203660448201526534206269747360d01b6064820152608401610a41565b5090565b60608247101561229b5760405162461bcd60e51b815260206004820152602660248201527f416464726573733a20696e73756666696369656e742062616c616e636520666f6044820152651c8818d85b1b60d21b6064820152608401610a41565b6001600160a01b0385163b6122f25760405162461bcd60e51b815260206004820152601d60248201527f416464726573733a2063616c6c20746f206e6f6e2d636f6e74726163740000006044820152606401610a41565b600080866001600160a01b0316858760405161230e9190612dff565b60006040518083038185875af1925050503d806000811461234b576040519150601f19603f3d011682016040523d82523d6000602084013e612350565b606091505b5091509150610b79828286612195565b8280548282559060005260206000209081019282156123b5579160200282015b828111156123b557825182546001600160a01b0319166001600160a01b03909116178255602090920191600190910190612380565b506122369291506124c8565b8280548282559060005260206000209081019282156123b5579160200282015b828111156123b55782518255916020019190600101906123e1565b828054828255906000526020600020908101928215612449579160200282015b828111156124495782518051612439918491602090910190612455565b509160200191906001019061241c565b506122369291506124dd565b828054612461906131da565b90600052602060002090601f01602090048101928261248357600085556123b5565b82601f1061249c57805160ff19168380011785556123b5565b828001600101855582156123b557918201828111156123b55782518255916020019190600101906123e1565b5b8082111561223657600081556001016124c9565b808211156122365760006124f182826124fa565b506001016124dd565b508054612506906131da565b6000825580601f10612516575050565b601f016020900490600052602060002090810190610d6891906124c8565b60006001600160401b0383111561254d5761254d613246565b612560601f8401601f19166020016130fd565b905082815283838301111561257457600080fd5b828260208301376000602084830101529392505050565b80356001600160a01b03811681146125a257600080fd5b919050565b600082601f8301126125b7578081fd5b813560206125cc6125c78361312d565b6130fd565b80838252828201915082860187848660051b89010111156125eb578586fd5b855b85811015612610576125fe8261258b565b845292840192908401906001016125ed565b5090979650505050505050565b600082601f83011261262d578081fd5b8135602061263d6125c78361312d565b80838252828201915082860187848660051b890101111561265c578586fd5b855b858110156126105781356001600160401b0381111561267b578788fd5b6126898a87838c010161273f565b855250928401929084019060010161265e565b600082601f8301126126ac578081fd5b813560206126bc6125c78361312d565b80838252828201915082860187848660051b89010111156126db578586fd5b855b85811015612610578135845292840192908401906001016126dd565b60008083601f84011261270a578182fd5b5081356001600160401b03811115612720578182fd5b60208301915083602082850101111561273857600080fd5b9250929050565b600082601f83011261274f578081fd5b610f0183833560208501612534565b803560ff811681146125a257600080fd5b600080600080600060a08688031215612786578081fd5b61278f8661258b565b945061279d6020870161258b565b935060408601356001600160401b03808211156127b8578283fd5b6127c489838a0161269c565b945060608801359150808211156127d9578283fd5b6127e589838a0161269c565b935060808801359150808211156127fa578283fd5b506128078882890161273f565b9150509295509295909350565b60008060008060808587031215612829578384fd5b6128328561258b565b93506128406020860161258b565b92506040850135915060608501356001600160401b03811115612861578182fd5b61286d8782880161273f565b91505092959194509250565b600080600080600060a08688031215612890578081fd5b6128998661258b565b94506128a76020870161258b565b9350604086013592506060860135915060808601356001600160401b038111156128cf578182fd5b6128078882890161273f565b600080604083850312156128ed578182fd5b6128f68361258b565b946020939093013593505050565b60008060008060608587031215612919578182fd5b6129228561258b565b93506020850135925060408501356001600160401b03811115612943578283fd5b61294f878288016126f9565b95989497509550505050565b60008060006060848603121561296f578081fd5b6129788461258b565b92506020840135915060408401356001600160401b03811115612999578182fd5b6129a58682870161273f565b9150509250925092565b600080600080608085870312156129c4578182fd5b84356001600160401b03808211156129da578384fd5b6129e6888389016125a7565b955060208701359150808211156129fb578384fd5b612a078883890161269c565b94506040870135915080821115612a1c578384fd5b50612a298782880161261d565b949793965093946060013593505050565b60008060008060808587031215612a4f578182fd5b84356001600160401b0380821115612a65578384fd5b612a71888389016125a7565b95506020870135915080821115612a86578384fd5b612a928883890161269c565b94506040870135915080821115612aa7578384fd5b612ab38883890161261d565b93506060870135915080821115612ac8578283fd5b508501601f81018713612ad9578182fd5b61286d87823560208401612534565b600060208284031215612af9578081fd5b81356001600160e01b031981168114610f01578182fd5b600060208284031215612b21578081fd5b5035919050565b60008060408385031215612b3a578182fd5b82359150612b4a6020840161258b565b90509250929050565b60008060408385031215612b65578182fd5b82359150612b4a6020840161275e565b60008060008060608587031215612b8a578182fd5b84359350612b9a6020860161275e565b925060408501356001600160401b03811115612943578283fd5b600080600080600060808688031215612bcb578283fd5b85359450612bdb6020870161275e565b935060408601356001600160401b0380821115612bf6578485fd5b612c0289838a016126f9565b909550935060608801359150808211156127fa578283fd5b60008060008060008060008060e0898b031215612c35578586fd5b88359750612c4560208a0161275e565b965060408901356001600160401b0380821115612c60578788fd5b612c6c8c838d016126f9565b909850965060608b0135915080821115612c84578485fd5b50612c918b828c0161273f565b945050612ca060808a0161275e565b925060a0890135915060c089013590509295985092959890939650565b600080600080600060a08688031215612cd4578283fd5b85359450612ce46020870161275e565b9350612cf26040870161275e565b94979396509394606081013594506080013592915050565b6000815180845260208085019450808401835b83811015612d425781516001600160a01b031687529582019590820190600101612d1d565b509495945050505050565b600081518084526020808501808196508360051b81019150828601855b85811015610e95578284038952612d82848351612dc3565b98850198935090840190600101612d6a565b6000815180845260208085019450808401835b83811015612d4257815187529582019590820190600101612da7565b60008151808452612ddb8160208601602086016131aa565b601f01601f19169290920160200192915050565b8183823760009101908152919050565b60008251612e118184602087016131aa565b9190910192915050565b608081526000612e2e6080830187612d0a565b8281036020840152612e408187612d94565b90508281036040840152612e548186612d4d565b91505082606083015295945050505050565b602081526000610f016020830184612d94565b6020810160088310612e9b57634e487b7160e01b600052602160045260246000fd5b91905290565b602081526000610f016020830184612dc3565b60208082526018908201527f476f7665726e6f723a206f6e6c79476f7665726e616e63650000000000000000604082015260600190565b60208082526021908201527f476f7665726e6f723a20696e76616c69642070726f706f73616c206c656e67746040820152600d60fb1b606082015260800190565b602081526000825160806020840152612f4860a0840182612d0a565b90506020840151601f1980858403016040860152612f668383612d94565b92506040860151915080858403016060860152612f838383612d4d565b92506060860151915080858403016080860152506116d58282612dc3565b60006101208b8352602060018060a01b038c1681850152816040850152612fca8285018c612d0a565b91508382036060850152612fde828b612d94565b915083820360808501528189518084528284019150828160051b850101838c01865b8381101561302e57601f1987840301855261301c838351612dc3565b94860194925090850190600101613000565b505086810360a0880152613042818c612d4d565b94505050505061305d60c08401876001600160401b03169052565b6001600160401b03851660e084015282810361010084015261307f8185612dc3565b9c9b505050505050505050505050565b84815260ff84166020820152826040820152608060608201526000610db36080830184612dc3565b85815260ff8516602082015283604082015260a0606082015260006130df60a0830185612dc3565b82810360808401526130f18185612dc3565b98975050505050505050565b604051601f8201601f191681016001600160401b038111828210171561312557613125613246565b604052919050565b60006001600160401b0382111561314657613146613246565b5060051b60200190565b6000821982111561316357613163613230565b500190565b60006001600160401b0380831681851680830382111561318a5761318a613230565b01949350505050565b6000828210156131a5576131a5613230565b500390565b60005b838110156131c55781810151838201526020016131ad565b838111156131d4576000848401525b50505050565b600181811c908216806131ee57607f821691505b6020821081141561320f57634e487b7160e01b600052602260045260246000fd5b50919050565b600060001982141561322957613229613230565b5060010190565b634e487b7160e01b600052601160045260246000fd5b634e487b7160e01b600052604160045260246000fdfe476f7665726e6f723a2063616c6c20726576657274656420776974686f7574206d657373616765416464726573733a206c6f772d6c6576656c2063616c6c20776974682076616c7565206661696c6564a2646970667358221220f041db7fa78f932a666b7997edaa1a281e60597c6393219764f43fe44a60621764736f6c63430008040033",
  "linkReferences": {},
  "deployedLinkReferences": {}
}