{
  "_format": "hh-sol-artifact-1",
  "contractName": "DummyGovernor",
  "sourceName": "contracts/DummyGovernor.sol",
  "abi": [
    {
      "inputs": [],
      "stateMutability": "nonpayable",
      "type": "constructor"
    },
    {
      "inputs": [],
      "name": "Empty",
      "type": "error"
    },
    {
      "anonymous": false,
      "inputs": [
        {
          "indexed": false,
          "internalType": "uint256",
          "name": "proposalId",
          "type": "uint256"
        }
      ],
      "name": "ProposalCanceled",
      "type": "event"
    },
    {
      "anonymous": false,
      "inputs": [
        {
          "indexed": false,
          "internalType": "uint256",
          "name": "proposalId",
          "type": "uint256"
        },
        {
          "indexed": false,
          "internalType": "address",
          "name": "proposer",
          "type": "address"
        },
        {
          "indexed": false,
          "internalType": "address[]",
          "name": "targets",
          "type": "address[]"
        },
        {
          "indexed": false,
          "internalType": "uint256[]",
          "name": "values",
          "type": "uint256[]"
        },
        {
          "indexed": false,
          "internalType": "string[]",
          "name": "signatures",
          "type": "string[]"
        },
        {
          "indexed": false,
          "internalType": "bytes[]",
          "name": "calldatas",
          "type": "bytes[]"
        },
        {
          "indexed": false,
          "internalType": "uint256",
          "name": "startBlock",
          "type": "uint256"
        },
        {
          "indexed": false,
          "internalType": "uint256",
          "name": "endBlock",
          "type": "uint256"
        },
        {
          "indexed": false,
          "internalType": "string",
          "name": "description",
          "type": "string"
        }
      ],
      "name": "ProposalCreated",
      "type": "event"
    },
    {
      "anonymous": false,
      "inputs": [
        {
          "indexed": false,
          "internalType": "uint256",
          "name": "proposalId",
          "type": "uint256"
        }
      ],
      "name": "ProposalExecuted",
      "type": "event"
    },
    {
      "anonymous": false,
      "inputs": [
        {
          "indexed": false,
          "internalType": "uint256",
          "name": "oldProposalThreshold",
          "type": "uint256"
        },
        {
          "indexed": false,
          "internalType": "uint256",
          "name": "newProposalThreshold",
          "type": "uint256"
        }
      ],
      "name": "ProposalThresholdSet",
      "type": "event"
    },
    {
      "anonymous": false,
      "inputs": [
        {
          "indexed": true,
          "internalType": "address",
          "name": "voter",
          "type": "address"
        },
        {
          "indexed": false,
          "internalType": "uint256",
          "name": "proposalId",
          "type": "uint256"
        },
        {
          "indexed": false,
          "internalType": "uint8",
          "name": "support",
          "type": "uint8"
        },
        {
          "indexed": false,
          "internalType": "uint256",
          "name": "weight",
          "type": "uint256"
        },
        {
          "indexed": false,
          "internalType": "string",
          "name": "reason",
          "type": "string"
        }
      ],
      "name": "VoteCast",
      "type": "event"
    },
    {
      "anonymous": false,
      "inputs": [
        {
          "indexed": true,
          "internalType": "address",
          "name": "voter",
          "type": "address"
        },
        {
          "indexed": false,
          "internalType": "uint256",
          "name": "proposalId",
          "type": "uint256"
        },
        {
          "indexed": false,
          "internalType": "uint8",
          "name": "support",
          "type": "uint8"
        },
        {
          "indexed": false,
          "internalType": "uint256",
          "name": "weight",
          "type": "uint256"
        },
        {
          "indexed": false,
          "internalType": "string",
          "name": "reason",
          "type": "string"
        },
        {
          "indexed": false,
          "internalType": "bytes",
          "name": "params",
          "type": "bytes"
        }
      ],
      "name": "VoteCastWithParams",
      "type": "event"
    },
    {
      "anonymous": false,
      "inputs": [
        {
          "indexed": false,
          "internalType": "uint256",
          "name": "oldVotingDelay",
          "type": "uint256"
        },
        {
          "indexed": false,
          "internalType": "uint256",
          "name": "newVotingDelay",
          "type": "uint256"
        }
      ],
      "name": "VotingDelaySet",
      "type": "event"
    },
    {
      "anonymous": false,
      "inputs": [
        {
          "indexed": false,
          "internalType": "uint256",
          "name": "oldVotingPeriod",
          "type": "uint256"
        },
        {
          "indexed": false,
          "internalType": "uint256",
          "name": "newVotingPeriod",
          "type": "uint256"
        }
      ],
      "name": "VotingPeriodSet",
      "type": "event"
    },
    {
      "inputs": [],
      "name": "BALLOT_TYPEHASH",
      "outputs": [
        {
          "internalType": "bytes32",
          "name": "",
          "type": "bytes32"
        }
      ],
      "stateMutability": "view",
      "type": "function"
    },
    {
      "inputs": [],
      "name": "COUNTING_MODE",
      "outputs": [
        {
          "internalType": "string",
          "name": "",
          "type": "string"
        }
      ],
      "stateMutability": "pure",
      "type": "function"
    },
    {
      "inputs": [],
      "name": "EXTENDED_BALLOT_TYPEHASH",
      "outputs": [
        {
          "internalType": "bytes32",
          "name": "",
          "type": "bytes32"
        }
      ],
      "stateMutability": "view",
      "type": "function"
    },
    {
      "inputs": [
        {
          "internalType": "uint256",
          "name": "proposalId",
          "type": "uint256"
        },
        {
          "internalType": "uint8",
          "name": "support",
          "type": "uint8"
        }
      ],
      "name": "castVote",
      "outputs": [
        {
          "internalType": "uint256",
          "name": "",
          "type": "uint256"
        }
      ],
      "stateMutability": "nonpayable",
      "type": "function"
    },
    {
      "inputs": [
        {
          "internalType": "uint256",
          "name": "proposalId",
          "type": "uint256"
        },
        {
          "internalType": "uint8",
          "name": "support",
          "type": "uint8"
        },
        {
          "internalType": "uint8",
          "name": "v",
          "type": "uint8"
        },
        {
          "internalType": "bytes32",
          "name": "r",
          "type": "bytes32"
        },
        {
          "internalType": "bytes32",
          "name": "s",
          "type": "bytes32"
        }
      ],
      "name": "castVoteBySig",
      "outputs": [
        {
          "internalType": "uint256",
          "name": "",
          "type": "uint256"
        }
      ],
      "stateMutability": "nonpayable",
      "type": "function"
    },
    {
      "inputs": [
        {
          "internalType": "uint256",
          "name": "proposalId",
          "type": "uint256"
        },
        {
          "internalType": "uint8",
          "name": "support",
          "type": "uint8"
        },
        {
          "internalType": "string",
          "name": "reason",
          "type": "string"
        }
      ],
      "name": "castVoteWithReason",
      "outputs": [
        {
          "internalType": "uint256",
          "name": "",
          "type": "uint256"
        }
      ],
      "stateMutability": "nonpayable",
      "type": "function"
    },
    {
      "inputs": [
        {
          "internalType": "uint256",
          "name": "proposalId",
          "type": "uint256"
        },
        {
          "internalType": "uint8",
          "name": "support",
          "type": "uint8"
        },
        {
          "internalType": "string",
          "name": "reason",
          "type": "string"
        },
        {
          "internalType": "bytes",
          "name": "params",
          "type": "bytes"
        }
      ],
      "name": "castVoteWithReasonAndParams",
      "outputs": [
        {
          "internalType": "uint256",
          "name": "",
          "type": "uint256"
        }
      ],
      "stateMutability": "nonpayable",
      "type": "function"
    },
    {
      "inputs": [
        {
          "internalType": "uint256",
          "name": "proposalId",
          "type": "uint256"
        },
        {
          "internalType": "uint8",
          "name": "support",
          "type": "uint8"
        },
        {
          "internalType": "string",
          "name": "reason",
          "type": "string"
        },
        {
          "internalType": "bytes",
          "name": "params",
          "type": "bytes"
        },
        {
          "internalType": "uint8",
          "name": "v",
          "type": "uint8"
        },
        {
          "internalType": "bytes32",
          "name": "r",
          "type": "bytes32"
        },
        {
          "internalType": "bytes32",
          "name": "s",
          "type": "bytes32"
        }
      ],
      "name": "castVoteWithReasonAndParamsBySig",
      "outputs": [
        {
          "internalType": "uint256",
          "name": "",
          "type": "uint256"
        }
      ],
      "stateMutability": "nonpayable",
      "type": "function"
    },
    {
      "inputs": [
        {
          "internalType": "address[]",
          "name": "targets",
          "type": "address[]"
        },
        {
          "internalType": "uint256[]",
          "name": "values",
          "type": "uint256[]"
        },
        {
          "internalType": "bytes[]",
          "name": "calldatas",
          "type": "bytes[]"
        },
        {
          "internalType": "bytes32",
          "name": "descriptionHash",
          "type": "bytes32"
        }
      ],
      "name": "execute",
      "outputs": [
        {
          "internalType": "uint256",
          "name": "",
          "type": "uint256"
        }
      ],
      "stateMutability": "payable",
      "type": "function"
    },
    {
      "inputs": [],
      "name": "getAllProposalsId",
      "outputs": [
        {
          "internalType": "uint256[]",
          "name": "",
          "type": "uint256[]"
        }
      ],
      "stateMutability": "view",
      "type": "function"
    },
    {
      "inputs": [
        {
          "internalType": "uint256",
          "name": "proposalId",
          "type": "uint256"
        }
      ],
      "name": "getProposal",
      "outputs": [
        {
          "components": [
            {
              "internalType": "address[]",
              "name": "targets",
              "type": "address[]"
            },
            {
              "internalType": "uint256[]",
              "name": "values",
              "type": "uint256[]"
            },
            {
              "internalType": "bytes[]",
              "name": "calldatas",
              "type": "bytes[]"
            },
            {
              "internalType": "string",
              "name": "description",
              "type": "string"
            }
          ],
          "internalType": "struct DummyGovernor.ProposalInfo",
          "name": "",
          "type": "tuple"
        }
      ],
      "stateMutability": "view",
      "type": "function"
    },
    {
      "inputs": [
        {
          "internalType": "address",
          "name": "account",
          "type": "address"
        },
        {
          "internalType": "uint256",
          "name": "blockNumber",
          "type": "uint256"
        }
      ],
      "name": "getVotes",
      "outputs": [
        {
          "internalType": "uint256",
          "name": "",
          "type": "uint256"
        }
      ],
      "stateMutability": "view",
      "type": "function"
    },
    {
      "inputs": [
        {
          "internalType": "address",
          "name": "account",
          "type": "address"
        },
        {
          "internalType": "uint256",
          "name": "blockNumber",
          "type": "uint256"
        },
        {
          "internalType": "bytes",
          "name": "params",
          "type": "bytes"
        }
      ],
      "name": "getVotesWithParams",
      "outputs": [
        {
          "internalType": "uint256",
          "name": "",
          "type": "uint256"
        }
      ],
      "stateMutability": "view",
      "type": "function"
    },
    {
      "inputs": [
        {
          "internalType": "uint256",
          "name": "proposalId",
          "type": "uint256"
        },
        {
          "internalType": "address",
          "name": "account",
          "type": "address"
        }
      ],
      "name": "hasVoted",
      "outputs": [
        {
          "internalType": "bool",
          "name": "",
          "type": "bool"
        }
      ],
      "stateMutability": "view",
      "type": "function"
    },
    {
      "inputs": [
        {
          "internalType": "address[]",
          "name": "targets",
          "type": "address[]"
        },
        {
          "internalType": "uint256[]",
          "name": "values",
          "type": "uint256[]"
        },
        {
          "internalType": "bytes[]",
          "name": "calldatas",
          "type": "bytes[]"
        },
        {
          "internalType": "bytes32",
          "name": "descriptionHash",
          "type": "bytes32"
        }
      ],
      "name": "hashProposal",
      "outputs": [
        {
          "internalType": "uint256",
          "name": "",
          "type": "uint256"
        }
      ],
      "stateMutability": "pure",
      "type": "function"
    },
    {
      "inputs": [],
      "name": "name",
      "outputs": [
        {
          "internalType": "string",
          "name": "",
          "type": "string"
        }
      ],
      "stateMutability": "view",
      "type": "function"
    },
    {
      "inputs": [
        {
          "internalType": "address",
          "name": "",
          "type": "address"
        },
        {
          "internalType": "address",
          "name": "",
          "type": "address"
        },
        {
          "internalType": "uint256[]",
          "name": "",
          "type": "uint256[]"
        },
        {
          "internalType": "uint256[]",
          "name": "",
          "type": "uint256[]"
        },
        {
          "internalType": "bytes",
          "name": "",
          "type": "bytes"
        }
      ],
      "name": "onERC1155BatchReceived",
      "outputs": [
        {
          "internalType": "bytes4",
          "name": "",
          "type": "bytes4"
        }
      ],
      "stateMutability": "nonpayable",
      "type": "function"
    },
    {
      "inputs": [
        {
          "internalType": "address",
          "name": "",
          "type": "address"
        },
        {
          "internalType": "address",
          "name": "",
          "type": "address"
        },
        {
          "internalType": "uint256",
          "name": "",
          "type": "uint256"
        },
        {
          "internalType": "uint256",
          "name": "",
          "type": "uint256"
        },
        {
          "internalType": "bytes",
          "name": "",
          "type": "bytes"
        }
      ],
      "name": "onERC1155Received",
      "outputs": [
        {
          "internalType": "bytes4",
          "name": "",
          "type": "bytes4"
        }
      ],
      "stateMutability": "nonpayable",
      "type": "function"
    },
    {
      "inputs": [
        {
          "internalType": "address",
          "name": "",
          "type": "address"
        },
        {
          "internalType": "address",
          "name": "",
          "type": "address"
        },
        {
          "internalType": "uint256",
          "name": "",
          "type": "uint256"
        },
        {
          "internalType": "bytes",
          "name": "",
          "type": "bytes"
        }
      ],
      "name": "onERC721Received",
      "outputs": [
        {
          "internalType": "bytes4",
          "name": "",
          "type": "bytes4"
        }
      ],
      "stateMutability": "nonpayable",
      "type": "function"
    },
    {
      "inputs": [
        {
          "internalType": "uint256",
          "name": "proposalId",
          "type": "uint256"
        }
      ],
      "name": "proposalDeadline",
      "outputs": [
        {
          "internalType": "uint256",
          "name": "",
          "type": "uint256"
        }
      ],
      "stateMutability": "view",
      "type": "function"
    },
    {
      "inputs": [
        {
          "internalType": "uint256",
          "name": "proposalId",
          "type": "uint256"
        }
      ],
      "name": "proposalSnapshot",
      "outputs": [
        {
          "internalType": "uint256",
          "name": "",
          "type": "uint256"
        }
      ],
      "stateMutability": "view",
      "type": "function"
    },
    {
      "inputs": [],
      "name": "proposalThreshold",
      "outputs": [
        {
          "internalType": "uint256",
          "name": "",
          "type": "uint256"
        }
      ],
      "stateMutability": "view",
      "type": "function"
    },
    {
      "inputs": [
        {
          "internalType": "uint256",
          "name": "proposalId",
          "type": "uint256"
        }
      ],
      "name": "proposalVotes",
      "outputs": [
        {
          "internalType": "uint256",
          "name": "againstVotes",
          "type": "uint256"
        },
        {
          "internalType": "uint256",
          "name": "forVotes",
          "type": "uint256"
        },
        {
          "internalType": "uint256",
          "name": "abstainVotes",
          "type": "uint256"
        }
      ],
      "stateMutability": "view",
      "type": "function"
    },
    {
      "inputs": [
        {
          "internalType": "uint256",
          "name": "",
          "type": "uint256"
        }
      ],
      "name": "proposalsId",
      "outputs": [
        {
          "internalType": "uint256",
          "name": "",
          "type": "uint256"
        }
      ],
      "stateMutability": "view",
      "type": "function"
    },
    {
      "inputs": [
        {
          "internalType": "address[]",
          "name": "targets",
          "type": "address[]"
        },
        {
          "internalType": "uint256[]",
          "name": "values",
          "type": "uint256[]"
        },
        {
          "internalType": "bytes[]",
          "name": "calldatas",
          "type": "bytes[]"
        },
        {
          "internalType": "string",
          "name": "description",
          "type": "string"
        }
      ],
      "name": "propose",
      "outputs": [
        {
          "internalType": "uint256",
          "name": "",
          "type": "uint256"
        }
      ],
      "stateMutability": "nonpayable",
      "type": "function"
    },
    {
      "inputs": [
        {
          "internalType": "uint256",
          "name": "blockNumber",
          "type": "uint256"
        }
      ],
      "name": "quorum",
      "outputs": [
        {
          "internalType": "uint256",
          "name": "",
          "type": "uint256"
        }
      ],
      "stateMutability": "pure",
      "type": "function"
    },
    {
      "inputs": [
        {
          "internalType": "address",
          "name": "target",
          "type": "address"
        },
        {
          "internalType": "uint256",
          "name": "value",
          "type": "uint256"
        },
        {
          "internalType": "bytes",
          "name": "data",
          "type": "bytes"
        }
      ],
      "name": "relay",
      "outputs": [],
      "stateMutability": "nonpayable",
      "type": "function"
    },
    {
      "inputs": [
        {
          "internalType": "uint256",
          "name": "newProposalThreshold",
          "type": "uint256"
        }
      ],
      "name": "setProposalThreshold",
      "outputs": [],
      "stateMutability": "nonpayable",
      "type": "function"
    },
    {
      "inputs": [
        {
          "internalType": "uint256",
          "name": "newVotingDelay",
          "type": "uint256"
        }
      ],
      "name": "setVotingDelay",
      "outputs": [],
      "stateMutability": "nonpayable",
      "type": "function"
    },
    {
      "inputs": [
        {
          "internalType": "uint256",
          "name": "newVotingPeriod",
          "type": "uint256"
        }
      ],
      "name": "setVotingPeriod",
      "outputs": [],
      "stateMutability": "nonpayable",
      "type": "function"
    },
    {
      "inputs": [
        {
          "internalType": "uint256",
          "name": "proposalId",
          "type": "uint256"
        }
      ],
      "name": "state",
      "outputs": [
        {
          "internalType": "enum IGovernor.ProposalState",
          "name": "",
          "type": "uint8"
        }
      ],
      "stateMutability": "view",
      "type": "function"
    },
    {
      "inputs": [
        {
          "internalType": "bytes4",
          "name": "interfaceId",
          "type": "bytes4"
        }
      ],
      "name": "supportsInterface",
      "outputs": [
        {
          "internalType": "bool",
          "name": "",
          "type": "bool"
        }
      ],
      "stateMutability": "view",
      "type": "function"
    },
    {
      "inputs": [],
      "name": "version",
      "outputs": [
        {
          "internalType": "string",
          "name": "",
          "type": "string"
        }
      ],
      "stateMutability": "view",
      "type": "function"
    },
    {
      "inputs": [],
      "name": "votingDelay",
      "outputs": [
        {
          "internalType": "uint256",
          "name": "",
          "type": "uint256"
        }
      ],
      "stateMutability": "view",
      "type": "function"
    },
    {
      "inputs": [],
      "name": "votingPeriod",
      "outputs": [
        {
          "internalType": "uint256",
          "name": "",
          "type": "uint256"
        }
      ],
      "stateMutability": "view",
      "type": "function"
    },
    {
      "stateMutability": "payable",
      "type": "receive"
    }
  ],
  "bytecode": "0x6101406040523480156200001257600080fd5b506001600560006040518060400160405280600d81526020016c223ab6b6bca3b7bb32b93737b960991b81525080620000506200012660201b60201c565b815160208084019190912082518383012060e08290526101008190524660a0818152604080517f8b73c3c69bb8fe3d512ecc4cf759cc79239f7b179b0ffacaa9a75d522b39400f81880181905281830187905260608201869052608082019490945230818401528151808203909301835260c00190528051940193909320919290916080523060601b60c0526101205250508251620000f9925060009150602084019062000269565b506200010790508362000141565b620001128262000182565b6200011d8162000228565b5050506200034c565b6040805180820190915260018152603160f81b602082015290565b60045460408051918252602082018390527fc565b045403dc03c2eea82b81a0465edad9e2e7fc4d97e11421c209da93d7a93910160405180910390a1600455565b60008111620001e75760405162461bcd60e51b815260206004820152602760248201527f476f7665726e6f7253657474696e67733a20766f74696e6720706572696f6420604482015266746f6f206c6f7760c81b606482015260840160405180910390fd5b60055460408051918252602082018390527f7e3f7f0708a84de9203036abaa450dccc85ad5ff52f78c170f3edb55cf5e8828910160405180910390a1600555565b60065460408051918252602082018390527fccb45da8d5717e6c4544694297c4ba5cf151d455c9bb0ed4fc7a38411bc05461910160405180910390a1600655565b82805462000277906200030f565b90600052602060002090601f0160209004810192826200029b5760008555620002e6565b82601f10620002b657805160ff1916838001178555620002e6565b82800160010185558215620002e6579182015b82811115620002e6578251825591602001919060010190620002c9565b50620002f4929150620002f8565b5090565b5b80821115620002f45760008155600101620002f9565b600181811c908216806200032457607f821691505b602082108114156200034657634e487b7160e01b600052602260045260246000fd5b50919050565b60805160a05160c05160601c60e05161010051610120516130d06200039f6000396000611bca01526000611c1901526000611bf401526000611b4d01526000611b7701526000611ba101526130d06000f3fe6080604052600436106102085760003560e01c806370b0f66011610118578063c59057e4116100a0578063ea0217cf1161006f578063ea0217cf146106d0578063eb9019d4146106f0578063ece40cc114610710578063f23a6e6114610730578063f8ce560a1461075c57600080fd5b8063c59057e414610609578063c7f758a814610629578063dd4e2ba514610656578063deaaa7cc1461069c57600080fd5b80639a802a6d116100e75780639a802a6d14610568578063b58131b014610588578063bc197c811461059d578063c01f9e37146105c9578063c28bc2fa146105e957600080fd5b806370b0f660146104e65780637b3c71d3146105065780637d5e81e21461052657806399a1d8db1461054657600080fd5b80633932abb11161019b578063476c88011161016a578063476c880114610407578063544ffc9c1461042757806354fd4d501461047c57806356781388146104a65780635f398a14146104c657600080fd5b80633932abb11461035b5780633bccf4fd146103705780633e4f49e61461039057806343859632146103bd57600080fd5b8063150b7a02116101d7578063150b7a02146102b05780632656227d146102f45780632d63f693146103075780632fe3e2611461032757600080fd5b806301ffc9a71461021657806302a251a31461024b578063034201811461026e57806306fdde031461028e57600080fd5b3661021157005b005b600080fd5b34801561022257600080fd5b506102366102313660046128ee565b61077d565b60405190151581526020015b60405180910390f35b34801561025757600080fd5b506102606107ea565b604051908152602001610242565b34801561027a57600080fd5b50610260610289366004612a20565b6107fa565b34801561029a57600080fd5b506102a36108f2565b6040516102429190612ca7565b3480156102bc57600080fd5b506102db6102cb36600461261a565b630a85bd0160e11b949350505050565b6040516001600160e01b03199091168152602001610242565b6102606103023660046127b5565b610984565b34801561031357600080fd5b50610260610322366004612916565b610acc565b34801561033357600080fd5b506102607fb3b3f3b703cd84ce352197dcff232b1b5d3cfb2025ce47cf04742d0651f1af8881565b34801561036757600080fd5b50610260610b03565b34801561037c57600080fd5b5061026061038b366004612ac3565b610b0e565b34801561039c57600080fd5b506103b06103ab366004612916565b610b84565b6040516102429190612c7f565b3480156103c957600080fd5b506102366103d836600461292e565b60008281526007602090815260408083206001600160a01b038516845260030190915290205460ff1692915050565b34801561041357600080fd5b50610260610422366004612916565b610c58565b34801561043357600080fd5b50610461610442366004612916565b6000908152600760205260409020805460018201546002909201549092565b60408051938452602084019290925290820152606001610242565b34801561048857600080fd5b506040805180820190915260018152603160f81b60208201526102a3565b3480156104b257600080fd5b506102606104c1366004612959565b610c79565b3480156104d257600080fd5b506102606104e13660046129ba565b610ca2565b3480156104f257600080fd5b5061020f610501366004612916565b610cec565b34801561051257600080fd5b5061026061052136600461297b565b610d33565b34801561053257600080fd5b50610260610541366004612840565b610d85565b34801561055257600080fd5b5061055b610e6a565b6040516102429190612c6c565b34801561057457600080fd5b50610260610583366004612761565b610ec1565b34801561059457600080fd5b50610260610ed0565b3480156105a957600080fd5b506102db6105b8366004612575565b63bc197c8160e01b95945050505050565b3480156105d557600080fd5b506102606105e4366004612916565b610edb565b3480156105f557600080fd5b5061020f61060436600461270a565b610f0a565b34801561061557600080fd5b506102606106243660046127b5565b610f8e565b34801561063557600080fd5b50610649610644366004612916565b610fc8565b6040516102429190612d32565b34801561066257600080fd5b506040805180820190915260208082527f737570706f72743d627261766f2671756f72756d3d666f722c6162737461696e908201526102a3565b3480156106a857600080fd5b506102607f150214d74d59b7d1e90c73fc22ef3d991dd0a76b046543d4d80ab92d2a50328f81565b3480156106dc57600080fd5b5061020f6106eb366004612916565b611230565b3480156106fc57600080fd5b5061026061070b3660046126e1565b611274565b34801561071c57600080fd5b5061020f61072b366004612916565b611299565b34801561073c57600080fd5b506102db61074b36600461267f565b63f23a6e6160e01b95945050505050565b34801561076857600080fd5b50610260610777366004612916565b50600090565b60006001600160e01b0319821663bf26d89760e01b14806107ae57506001600160e01b031982166379dd796f60e01b145b806107c957506001600160e01b03198216630271189760e51b145b806107e457506301ffc9a760e01b6001600160e01b03198316145b92915050565b60006107f560055490565b905090565b60008061089e6108967fb3b3f3b703cd84ce352197dcff232b1b5d3cfb2025ce47cf04742d0651f1af888c8c8c8c604051610836929190612bf5565b60405180910390208b8051906020012060405160200161087b959493929190948552602085019390935260ff9190911660408401526060830152608082015260a00190565b604051602081830303815290604052805190602001206112dd565b86868661132b565b90506108e48a828b8b8b8080601f0160208091040260200160405190810160405280939291908181526020018383808284376000920191909152508d9250611349915050565b9a9950505050505050505050565b60606000805461090190612fc8565b80601f016020809104026020016040519081016040528092919081815260200182805461092d90612fc8565b801561097a5780601f1061094f5761010080835404028352916020019161097a565b820191906000526020600020905b81548152906001019060200180831161095d57829003601f168201915b5050505050905090565b60008061099386868686610f8e565b905060006109a082610b84565b905060048160078111156109c457634e487b7160e01b600052602160045260246000fd5b14806109ef575060058160078111156109ed57634e487b7160e01b600052602160045260246000fd5b145b610a4a5760405162461bcd60e51b815260206004820152602160248201527f476f7665726e6f723a2070726f706f73616c206e6f74207375636365737366756044820152601b60fa1b60648201526084015b60405180910390fd5b600082815260016020818152604092839020600201805460ff191690921790915590518381527f712ae1383f79ac853f8d882153778e0260ef8f03b504e2866e0593e04d2b291f910160405180910390a1610aa8828888888861149c565b610ab58288888888611545565b610ac2828888888861149c565b5095945050505050565b60008181526001602090815260408083208151928301909152546001600160401b0316908190525b6001600160401b031692915050565b60006107f560045490565b604080517f150214d74d59b7d1e90c73fc22ef3d991dd0a76b046543d4d80ab92d2a50328f602082015290810186905260ff851660608201526000908190610b5c906108969060800161087b565b9050610b798782886040518060200160405280600081525061166e565b979650505050505050565b6000818152600160205260408120600281015460ff1615610ba85750600792915050565b6002810154610100900460ff1615610bc35750600292915050565b6000610bce84610acc565b905080610c1d5760405162461bcd60e51b815260206004820152601d60248201527f476f7665726e6f723a20756e6b6e6f776e2070726f706f73616c2069640000006044820152606401610a41565b438110610c2e575060009392505050565b6000610c3985610edb565b9050438110610c4d57506001949350505050565b506004949350505050565b60088181548110610c6857600080fd5b600091825260209091200154905081565b600080339050610c9a8482856040518060200160405280600081525061166e565b949350505050565b600080339050610b7987828888888080601f0160208091040260200160405190810160405280939291908181526020018383808284376000920191909152508a9250611349915050565b333014610d0b5760405162461bcd60e51b8152600401610a4190612cba565b610d27565b80610d1b600261169a565b14610d2557610d10565b505b610d3081611726565b50565b600080339050610d7b86828787878080601f01602080910402602001604051908101604052809392919081815260200183838082843760009201919091525061166e92505050565b9695505050505050565b600080610d9486868686611767565b60088054600181019091557ff3f7a9fe364faab93b216da50a3214154f22a0a2b415b23a84c8169e8b636ee30181905560408051608081018252888152602081810189905281830188905260608201879052600084815260098252929092208151805194955091939092610e0c928492910190612166565b506020828101518051610e2592600185019201906121c7565b5060408201518051610e41916002840191602090910190612202565b5060608201518051610e5d91600384019160209091019061225b565b5091979650505050505050565b6060600880548060200260200160405190810160405280929190818152602001828054801561097a57602002820191906000526020600020905b815481526020019060010190808311610ea4575050505050905090565b600060015b90505b9392505050565b60006107f560065490565b60008181526001602081815260408084208151928301909152909101546001600160401b031690819052610af4565b333014610f295760405162461bcd60e51b8152600401610a4190612cba565b610f45565b80610f39600261169a565b14610f4357610f2e565b505b610f878483838080601f016020809104026020016040519081016040528093929190818152602001838380828437600092019190915250889250611a38915050565b5050505050565b600084848484604051602001610fa79493929190612c21565b60408051601f19818403018152919052805160209091012095945050505050565b610ff36040518060800160405280606081526020016060815260200160608152602001606081525090565b6000828152600960209081526040918290208251815460a09381028201840190945260808101848152909391928492849184018282801561105d57602002820191906000526020600020905b81546001600160a01b0316815260019091019060200180831161103f575b50505050508152602001600182018054806020026020016040519081016040528092919081815260200182805480156110b557602002820191906000526020600020905b8154815260200190600101908083116110a1575b5050505050815260200160028201805480602002602001604051908101604052809291908181526020016000905b8282101561118f57838290600052602060002001805461110290612fc8565b80601f016020809104026020016040519081016040528092919081815260200182805461112e90612fc8565b801561117b5780601f106111505761010080835404028352916020019161117b565b820191906000526020600020905b81548152906001019060200180831161115e57829003601f168201915b5050505050815260200190600101906110e3565b5050505081526020016003820180546111a790612fc8565b80601f01602080910402602001604051908101604052809291908181526020018280546111d390612fc8565b80156112205780601f106111f557610100808354040283529160200191611220565b820191906000526020600020905b81548152906001019060200180831161120357829003601f168201915b5050505050815250509050919050565b33301461124f5760405162461bcd60e51b8152600401610a4190612cba565b61126b565b8061125f600261169a565b1461126957611254565b505b610d3081611a5e565b6000610ec9838361129060408051602081019091526000815290565b60019392505050565b3330146112b85760405162461bcd60e51b8152600401610a4190612cba565b6112d4565b806112c8600261169a565b146112d2576112bd565b505b610d3081611aff565b60006107e46112ea611b40565b8360405161190160f01b6020820152602281018390526042810182905260009060620160405160208183030381529060405280519060200120905092915050565b600080600061133c87878787611c67565b91509150610ac281611d54565b600085815260016020819052604082209061136388610b84565b600781111561138257634e487b7160e01b600052602160045260246000fd5b146113db5760405162461bcd60e51b815260206004820152602360248201527f476f7665726e6f723a20766f7465206e6f742063757272656e746c792061637460448201526269766560e81b6064820152608401610a41565b604080516020810190915281546001600160401b03169052825160019061144857866001600160a01b03167fb8e138887d0aa13bab447e82de9d5c1777041ecd21ca36ba824ff1e6c07ddda48988848960405161143b9493929190612e95565b60405180910390a2610b79565b866001600160a01b03167fe2babfbac5889a709b63bb7f598b324e08bc5a4fb9ec647fb3cbc9ec07eb87128988848989604051611489959493929190612ebd565b60405180910390a2979650505050505050565b610f87565b845181101561153d57306001600160a01b03168582815181106114d457634e487b7160e01b600052603260045260246000fd5b60200260200101516001600160a01b0316141561152d5761152d83828151811061150e57634e487b7160e01b600052603260045260246000fd5b6020026020010151805190602001206002611f5590919063ffffffff16565b61153681613003565b90506114a1565b505050505050565b600060405180606001604052806027815260200161304b60279139905060005b85518110156116655760008087838151811061159157634e487b7160e01b600052603260045260246000fd5b60200260200101516001600160a01b03168784815181106115c257634e487b7160e01b600052603260045260246000fd5b60200260200101518785815181106115ea57634e487b7160e01b600052603260045260246000fd5b60200260200101516040516115ff9190612c05565b60006040518083038185875af1925050503d806000811461163c576040519150601f19603f3d011682016040523d82523d6000602084013e611641565b606091505b5091509150611651828286611f9b565b5050508061165e90613003565b9050611565565b50505050505050565b60006116918585858561168c60408051602081019091526000815290565b611349565b95945050505050565b60006116b98254600f81810b810b600160801b909204810b900b131590565b156116d757604051631ed9509560e11b815260040160405180910390fd5b508054600f90810b80820b820b600090815260018085016020526040822080549290558454920190920b6001600160801b03166fffffffffffffffffffffffffffffffff199091161790915590565b60045460408051918252602082018390527fc565b045403dc03c2eea82b81a0465edad9e2e7fc4d97e11421c209da93d7a93910160405180910390a1600455565b6000611771610ed0565b6117803361070b600143612f81565b10156117e85760405162461bcd60e51b815260206004820152603160248201527f476f7665726e6f723a2070726f706f73657220766f7465732062656c6f7720706044820152701c9bdc1bdcd85b081d1a1c995cda1bdb19607a1b6064820152608401610a41565b60006117fd8686868680519060200120610f8e565b905084518651146118205760405162461bcd60e51b8152600401610a4190612cf1565b83518651146118415760405162461bcd60e51b8152600401610a4190612cf1565b60008651116118925760405162461bcd60e51b815260206004820152601860248201527f476f7665726e6f723a20656d7074792070726f706f73616c00000000000000006044820152606401610a41565b600081815260016020908152604091829020825191820190925281546001600160401b031690819052156119125760405162461bcd60e51b815260206004820152602160248201527f476f7665726e6f723a2070726f706f73616c20616c72656164792065786973746044820152607360f81b6064820152608401610a41565b600061192461191f610b03565b611fd4565b61192d43611fd4565b6119379190612f56565b9050600061194661191f6107ea565b6119509083612f56565b835467ffffffffffffffff19166001600160401b038416178455905060018301805467ffffffffffffffff19166001600160401b0383161790557f7d84a6263ae0d98d3329bd7b46bb4e8d6f98cd35a7adb45c274c8b7fd5ebd5e084338b8b8d516001600160401b038111156119d657634e487b7160e01b600052604160045260246000fd5b604051908082528060200260200182016040528015611a0957816020015b60608152602001906001900390816119f45790505b508c88888e604051611a2399989796959493929190612da7565b60405180910390a15091979650505050505050565b6060610ec684848460405180606001604052806029815260200161307260299139612040565b60008111611abe5760405162461bcd60e51b815260206004820152602760248201527f476f7665726e6f7253657474696e67733a20766f74696e6720706572696f6420604482015266746f6f206c6f7760c81b6064820152608401610a41565b60055460408051918252602082018390527f7e3f7f0708a84de9203036abaa450dccc85ad5ff52f78c170f3edb55cf5e8828910160405180910390a1600555565b60065460408051918252602082018390527fccb45da8d5717e6c4544694297c4ba5cf151d455c9bb0ed4fc7a38411bc05461910160405180910390a1600655565b6000306001600160a01b037f000000000000000000000000000000000000000000000000000000000000000016148015611b9957507f000000000000000000000000000000000000000000000000000000000000000046145b15611bc357507f000000000000000000000000000000000000000000000000000000000000000090565b50604080517f00000000000000000000000000000000000000000000000000000000000000006020808301919091527f0000000000000000000000000000000000000000000000000000000000000000828401527f000000000000000000000000000000000000000000000000000000000000000060608301524660808301523060a0808401919091528351808403909101815260c0909201909252805191012090565b6000807f7fffffffffffffffffffffffffffffff5d576e7357a4501ddfe92f46681b20a0831115611c9e5750600090506003611d4b565b8460ff16601b14158015611cb657508460ff16601c14155b15611cc75750600090506004611d4b565b6040805160008082526020820180845289905260ff881692820192909252606081018690526080810185905260019060a0016020604051602081039080840390855afa158015611d1b573d6000803e3d6000fd5b5050604051601f1901519150506001600160a01b038116611d4457600060019250925050611d4b565b9150600090505b94509492505050565b6000816004811115611d7657634e487b7160e01b600052602160045260246000fd5b1415611d7f5750565b6001816004811115611da157634e487b7160e01b600052602160045260246000fd5b1415611def5760405162461bcd60e51b815260206004820152601860248201527f45434453413a20696e76616c6964207369676e617475726500000000000000006044820152606401610a41565b6002816004811115611e1157634e487b7160e01b600052602160045260246000fd5b1415611e5f5760405162461bcd60e51b815260206004820152601f60248201527f45434453413a20696e76616c6964207369676e6174757265206c656e677468006044820152606401610a41565b6003816004811115611e8157634e487b7160e01b600052602160045260246000fd5b1415611eda5760405162461bcd60e51b815260206004820152602260248201527f45434453413a20696e76616c6964207369676e6174757265202773272076616c604482015261756560f01b6064820152608401610a41565b6004816004811115611efc57634e487b7160e01b600052602160045260246000fd5b1415610d305760405162461bcd60e51b815260206004820152602260248201527f45434453413a20696e76616c6964207369676e6174757265202776272076616c604482015261756560f01b6064820152608401610a41565b8154600160801b90819004600f90810b80820b820b6000908152600180870160205260409091209490945584549301900b6001600160801b039081169091029116179055565b60608315611faa575081610ec9565b825115611fba5782518084602001fd5b8160405162461bcd60e51b8152600401610a419190612ca7565b60006001600160401b0382111561203c5760405162461bcd60e51b815260206004820152602660248201527f53616665436173743a2076616c756520646f65736e27742066697420696e203660448201526534206269747360d01b6064820152608401610a41565b5090565b6060824710156120a15760405162461bcd60e51b815260206004820152602660248201527f416464726573733a20696e73756666696369656e742062616c616e636520666f6044820152651c8818d85b1b60d21b6064820152608401610a41565b6001600160a01b0385163b6120f85760405162461bcd60e51b815260206004820152601d60248201527f416464726573733a2063616c6c20746f206e6f6e2d636f6e74726163740000006044820152606401610a41565b600080866001600160a01b031685876040516121149190612c05565b60006040518083038185875af1925050503d8060008114612151576040519150601f19603f3d011682016040523d82523d6000602084013e612156565b606091505b5091509150610b79828286611f9b565b8280548282559060005260206000209081019282156121bb579160200282015b828111156121bb57825182546001600160a01b0319166001600160a01b03909116178255602090920191600190910190612186565b5061203c9291506122ce565b8280548282559060005260206000209081019282156121bb579160200282015b828111156121bb5782518255916020019190600101906121e7565b82805482825590600052602060002090810192821561224f579160200282015b8281111561224f578251805161223f91849160209091019061225b565b5091602001919060010190612222565b5061203c9291506122e3565b82805461226790612fc8565b90600052602060002090601f01602090048101928261228957600085556121bb565b82601f106122a257805160ff19168380011785556121bb565b828001600101855582156121bb57918201828111156121bb5782518255916020019190600101906121e7565b5b8082111561203c57600081556001016122cf565b8082111561203c5760006122f78282612300565b506001016122e3565b50805461230c90612fc8565b6000825580601f1061231c575050565b601f016020900490600052602060002090810190610d3091906122ce565b60006001600160401b0383111561235357612353613034565b612366601f8401601f1916602001612f03565b905082815283838301111561237a57600080fd5b828260208301376000602084830101529392505050565b80356001600160a01b03811681146123a857600080fd5b919050565b600082601f8301126123bd578081fd5b813560206123d26123cd83612f33565b612f03565b80838252828201915082860187848660051b89010111156123f1578586fd5b855b858110156124165761240482612391565b845292840192908401906001016123f3565b5090979650505050505050565b600082601f830112612433578081fd5b813560206124436123cd83612f33565b80838252828201915082860187848660051b8901011115612462578586fd5b855b858110156124165781356001600160401b03811115612481578788fd5b61248f8a87838c0101612545565b8552509284019290840190600101612464565b600082601f8301126124b2578081fd5b813560206124c26123cd83612f33565b80838252828201915082860187848660051b89010111156124e1578586fd5b855b85811015612416578135845292840192908401906001016124e3565b60008083601f840112612510578182fd5b5081356001600160401b03811115612526578182fd5b60208301915083602082850101111561253e57600080fd5b9250929050565b600082601f830112612555578081fd5b610ec98383356020850161233a565b803560ff811681146123a857600080fd5b600080600080600060a0868803121561258c578081fd5b61259586612391565b94506125a360208701612391565b935060408601356001600160401b03808211156125be578283fd5b6125ca89838a016124a2565b945060608801359150808211156125df578283fd5b6125eb89838a016124a2565b93506080880135915080821115612600578283fd5b5061260d88828901612545565b9150509295509295909350565b6000806000806080858703121561262f578384fd5b61263885612391565b935061264660208601612391565b92506040850135915060608501356001600160401b03811115612667578182fd5b61267387828801612545565b91505092959194509250565b600080600080600060a08688031215612696578081fd5b61269f86612391565b94506126ad60208701612391565b9350604086013592506060860135915060808601356001600160401b038111156126d5578182fd5b61260d88828901612545565b600080604083850312156126f3578182fd5b6126fc83612391565b946020939093013593505050565b6000806000806060858703121561271f578182fd5b61272885612391565b93506020850135925060408501356001600160401b03811115612749578283fd5b612755878288016124ff565b95989497509550505050565b600080600060608486031215612775578081fd5b61277e84612391565b92506020840135915060408401356001600160401b0381111561279f578182fd5b6127ab86828701612545565b9150509250925092565b600080600080608085870312156127ca578182fd5b84356001600160401b03808211156127e0578384fd5b6127ec888389016123ad565b95506020870135915080821115612801578384fd5b61280d888389016124a2565b94506040870135915080821115612822578384fd5b5061282f87828801612423565b949793965093946060013593505050565b60008060008060808587031215612855578182fd5b84356001600160401b038082111561286b578384fd5b612877888389016123ad565b9550602087013591508082111561288c578384fd5b612898888389016124a2565b945060408701359150808211156128ad578384fd5b6128b988838901612423565b935060608701359150808211156128ce578283fd5b508501601f810187136128df578182fd5b6126738782356020840161233a565b6000602082840312156128ff578081fd5b81356001600160e01b031981168114610ec9578182fd5b600060208284031215612927578081fd5b5035919050565b60008060408385031215612940578182fd5b8235915061295060208401612391565b90509250929050565b6000806040838503121561296b578182fd5b8235915061295060208401612564565b60008060008060608587031215612990578182fd5b843593506129a060208601612564565b925060408501356001600160401b03811115612749578283fd5b6000806000806000608086880312156129d1578283fd5b853594506129e160208701612564565b935060408601356001600160401b03808211156129fc578485fd5b612a0889838a016124ff565b90955093506060880135915080821115612600578283fd5b60008060008060008060008060e0898b031215612a3b578586fd5b88359750612a4b60208a01612564565b965060408901356001600160401b0380821115612a66578788fd5b612a728c838d016124ff565b909850965060608b0135915080821115612a8a578485fd5b50612a978b828c01612545565b945050612aa660808a01612564565b925060a0890135915060c089013590509295985092959890939650565b600080600080600060a08688031215612ada578283fd5b85359450612aea60208701612564565b9350612af860408701612564565b94979396509394606081013594506080013592915050565b6000815180845260208085019450808401835b83811015612b485781516001600160a01b031687529582019590820190600101612b23565b509495945050505050565b600081518084526020808501808196508360051b81019150828601855b85811015610e5d578284038952612b88848351612bc9565b98850198935090840190600101612b70565b6000815180845260208085019450808401835b83811015612b4857815187529582019590820190600101612bad565b60008151808452612be1816020860160208601612f98565b601f01601f19169290920160200192915050565b8183823760009101908152919050565b60008251612c17818460208701612f98565b9190910192915050565b608081526000612c346080830187612b10565b8281036020840152612c468187612b9a565b90508281036040840152612c5a8186612b53565b91505082606083015295945050505050565b602081526000610ec96020830184612b9a565b6020810160088310612ca157634e487b7160e01b600052602160045260246000fd5b91905290565b602081526000610ec96020830184612bc9565b60208082526018908201527f476f7665726e6f723a206f6e6c79476f7665726e616e63650000000000000000604082015260600190565b60208082526021908201527f476f7665726e6f723a20696e76616c69642070726f706f73616c206c656e67746040820152600d60fb1b606082015260800190565b602081526000825160806020840152612d4e60a0840182612b10565b90506020840151601f1980858403016040860152612d6c8383612b9a565b92506040860151915080858403016060860152612d898383612b53565b92506060860151915080858403016080860152506116918282612bc9565b60006101208b8352602060018060a01b038c1681850152816040850152612dd08285018c612b10565b91508382036060850152612de4828b612b9a565b915083820360808501528189518084528284019150828160051b850101838c01865b83811015612e3457601f19878403018552612e22838351612bc9565b94860194925090850190600101612e06565b505086810360a0880152612e48818c612b53565b945050505050612e6360c08401876001600160401b03169052565b6001600160401b03851660e0840152828103610100840152612e858185612bc9565b9c9b505050505050505050505050565b84815260ff84166020820152826040820152608060608201526000610d7b6080830184612bc9565b85815260ff8516602082015283604082015260a060608201526000612ee560a0830185612bc9565b8281036080840152612ef78185612bc9565b98975050505050505050565b604051601f8201601f191681016001600160401b0381118282101715612f2b57612f2b613034565b604052919050565b60006001600160401b03821115612f4c57612f4c613034565b5060051b60200190565b60006001600160401b03808316818516808303821115612f7857612f7861301e565b01949350505050565b600082821015612f9357612f9361301e565b500390565b60005b83811015612fb3578181015183820152602001612f9b565b83811115612fc2576000848401525b50505050565b600181811c90821680612fdc57607f821691505b60208210811415612ffd57634e487b7160e01b600052602260045260246000fd5b50919050565b60006000198214156130175761301761301e565b5060010190565b634e487b7160e01b600052601160045260246000fd5b634e487b7160e01b600052604160045260246000fdfe476f7665726e6f723a2063616c6c20726576657274656420776974686f7574206d657373616765416464726573733a206c6f772d6c6576656c2063616c6c20776974682076616c7565206661696c6564a2646970667358221220a9755e129e5a4121d925b9e11fb8795eb80a6c40ac9c8a43b7ebebfdb10e5d5e64736f6c63430008040033",
  "linkReferences": {},
  "deployedLinkReferences": {}
}