{
  "_format": "hh-sol-artifact-1",
  "contractName": "ColorBoxV2",
  "sourceName": "contracts/ColorBoxV2.sol",
  "abi": [
    {
      "anonymous": false,
      "inputs": [
        {
          "indexed": false,
          "internalType": "string",
          "name": "newValue",
          "type": "string"
        }
      ],
      "name": "ColorChanged",
      "type": "event"
    },
    {
      "anonymous": false,
      "inputs": [
        {
          "indexed": false,
          "internalType": "uint8",
          "name": "version",
          "type": "uint8"
        }
      ],
      "name": "Initialized",
      "type": "event"
    },
    {
      "anonymous": false,
      "inputs": [
        {
          "indexed": true,
          "internalType": "address",
          "name": "previousOwner",
          "type": "address"
        },
        {
          "indexed": true,
          "internalType": "address",
          "name": "newOwner",
          "type": "address"
        }
      ],
      "name": "OwnershipTransferred",
      "type": "event"
    },
    {
      "anonymous": false,
      "inputs": [
        {
          "indexed": false,
          "internalType": "bool",
          "name": "newValue",
          "type": "bool"
        }
      ],
      "name": "ShouldRevertChanged",
      "type": "event"
    },
    {
      "inputs": [
        {
          "internalType": "string",
          "name": "newColor",
          "type": "string"
        }
      ],
      "name": "changeColorCouldRevert",
      "outputs": [],
      "stateMutability": "nonpayable",
      "type": "function"
    },
    {
      "inputs": [
        {
          "internalType": "string",
          "name": "newColor",
          "type": "string"
        }
      ],
      "name": "changeColorDryRun",
      "outputs": [],
      "stateMutability": "nonpayable",
      "type": "function"
    },
    {
      "inputs": [
        {
          "internalType": "string",
          "name": "newColor",
          "type": "string"
        }
      ],
      "name": "changeColorOwner",
      "outputs": [],
      "stateMutability": "nonpayable",
      "type": "function"
    },
    {
      "inputs": [
        {
          "internalType": "string",
          "name": "newValue",
          "type": "string"
        }
      ],
      "name": "changeValueNoRevert",
      "outputs": [],
      "stateMutability": "nonpayable",
      "type": "function"
    },
    {
      "inputs": [],
      "name": "getColor",
      "outputs": [
        {
          "internalType": "string",
          "name": "",
          "type": "string"
        }
      ],
      "stateMutability": "view",
      "type": "function"
    },
    {
      "inputs": [
        {
          "internalType": "string",
          "name": "_testKey",
          "type": "string"
        }
      ],
      "name": "getMapping",
      "outputs": [
        {
          "internalType": "uint256",
          "name": "",
          "type": "uint256"
        }
      ],
      "stateMutability": "view",
      "type": "function"
    },
    {
      "inputs": [],
      "name": "getVersion",
      "outputs": [
        {
          "internalType": "string",
          "name": "",
          "type": "string"
        }
      ],
      "stateMutability": "pure",
      "type": "function"
    },
    {
      "inputs": [
        {
          "internalType": "string",
          "name": "initialColor",
          "type": "string"
        }
      ],
      "name": "initialize",
      "outputs": [],
      "stateMutability": "nonpayable",
      "type": "function"
    },
    {
      "inputs": [],
      "name": "isV2",
      "outputs": [
        {
          "internalType": "bool",
          "name": "",
          "type": "bool"
        }
      ],
      "stateMutability": "pure",
      "type": "function"
    },
    {
      "inputs": [],
      "name": "owner",
      "outputs": [
        {
          "internalType": "address",
          "name": "",
          "type": "address"
        }
      ],
      "stateMutability": "view",
      "type": "function"
    },
    {
      "inputs": [],
      "name": "renounceOwnership",
      "outputs": [],
      "stateMutability": "nonpayable",
      "type": "function"
    },
    {
      "inputs": [],
      "name": "shouldRevert",
      "outputs": [
        {
          "internalType": "bool",
          "name": "",
          "type": "bool"
        }
      ],
      "stateMutability": "view",
      "type": "function"
    },
    {
      "inputs": [],
      "name": "switchShouldRevert",
      "outputs": [],
      "stateMutability": "nonpayable",
      "type": "function"
    },
    {
      "inputs": [
        {
          "internalType": "string",
          "name": "",
          "type": "string"
        }
      ],
      "name": "testMapping",
      "outputs": [
        {
          "internalType": "uint256",
          "name": "",
          "type": "uint256"
        }
      ],
      "stateMutability": "view",
      "type": "function"
    },
    {
      "inputs": [],
      "name": "testRevert",
      "outputs": [],
      "stateMutability": "pure",
      "type": "function"
    },
    {
      "inputs": [
        {
          "internalType": "address",
          "name": "newOwner",
          "type": "address"
        }
      ],
      "name": "transferOwnership",
      "outputs": [],
      "stateMutability": "nonpayable",
      "type": "function"
    },
    {
      "inputs": [
        {
          "internalType": "string",
          "name": "_testKey",
          "type": "string"
        },
        {
          "internalType": "uint256",
          "name": "_testVal",
          "type": "uint256"
        }
      ],
      "name": "updateMapping",
      "outputs": [],
      "stateMutability": "nonpayable",
      "type": "function"
    }
  ],
  "bytecode": "0x608060405234801561001057600080fd5b50610bab806100206000396000f3fe608060405234801561001057600080fd5b506004361061010b5760003560e01c80638da5cb5b116100a2578063b85b299511610071578063b85b299514610215578063d3072d8214610228578063e186e72714610235578063f2fde38b14610248578063f62d18881461025b57600080fd5b80638da5cb5b146101d75780639a86139b146101f2578063a26388bb146101fa578063ac7a25ee1461020257600080fd5b806315b60141116100de57806315b601411461017e5780632d94a2d0146101a95780635f606662146101bc578063715018a6146101cf57600080fd5b80630cab219a146101105780630d8e6e2c1461012557806311f45e9c14610155578063142c9eb514610176575b600080fd5b61012361011e36600461098b565b61026e565b005b6040805180820190915260028152612b1960f11b60208201525b60405161014c9190610ac1565b60405180910390f35b6101686101633660046109f8565b610300565b60405190815260200161014c565b610123610328565b61016861018c3660046109f8565b805160208183018101805160678252928201919093012091525481565b60015b604051901515815260200161014c565b6101236101ca366004610a33565b61037d565b6101236103a2565b6033546040516001600160a01b03909116815260200161014c565b61013f6103b6565b61012361048c565b61012361021036600461098b565b6104d4565b61012361022336600461098b565b6102b6565b6066546101ac9060ff1681565b61012361024336600461098b565b610505565b61012361025636600461095d565b61050d565b6101236102693660046109f8565b610586565b60665460ff16156102b65760405162461bcd60e51b815260206004820152600d60248201526c14d95d081d1bc81c995d995c9d609a1b60448201526064015b60405180910390fd5b6102c2606583836107c9565b507fea8482eb24fdcbd88250f9fd14644f201467fcaf3c5f08a0675ed9d46977ae3b82826040516102f4929190610a92565b60405180910390a15050565b60006067826040516103129190610a76565b9081526020016040518091039020549050919050565b6103306106b2565b6066805460ff8082161560ff1990921682179092556040519116151581527f88e95cf2f314e458491f98f3be8f296ee704bfc5b2cbeddcda73b61d44c9060b9060200160405180910390a1565b8060678360405161038e9190610a76565b908152604051908190036020019020555050565b6103aa6106b2565b6103b4600061070c565b565b60665460609060ff16156103fc5760405162461bcd60e51b815260206004820152600d60248201526c14d95d081d1bc81c995d995c9d609a1b60448201526064016102ad565b6065805461040990610b24565b80601f016020809104026020016040519081016040528092919081815260200182805461043590610b24565b80156104825780601f1061045757610100808354040283529160200191610482565b820191906000526020600020905b81548152906001019060200180831161046557829003601f168201915b5050505050905090565b60405162461bcd60e51b815260206004820152601760248201527f43616c6c20686173206265656e2072657665727465642100000000000000000060448201526064016102ad565b7fea8482eb24fdcbd88250f9fd14644f201467fcaf3c5f08a0675ed9d46977ae3b82826040516102f4929190610a92565b6102b66106b2565b6105156106b2565b6001600160a01b03811661057a5760405162461bcd60e51b815260206004820152602660248201527f4f776e61626c653a206e6577206f776e657220697320746865207a65726f206160448201526564647265737360d01b60648201526084016102ad565b6105838161070c565b50565b600054610100900460ff16158080156105a65750600054600160ff909116105b806105c05750303b1580156105c0575060005460ff166001145b6106235760405162461bcd60e51b815260206004820152602e60248201527f496e697469616c697a61626c653a20636f6e747261637420697320616c72656160448201526d191e481a5b9a5d1a585b1a5e995960921b60648201526084016102ad565b6000805460ff191660011790558015610646576000805461ff0019166101001790555b61064e61075e565b815161066190606590602085019061084d565b506066805460ff1916905580156106ae576000805461ff0019169055604051600181527f7f26b83ff96e1f2b6a682f133852f6798a09c465da95921460cefb3847402498906020016102f4565b5050565b6033546001600160a01b031633146103b45760405162461bcd60e51b815260206004820181905260248201527f4f776e61626c653a2063616c6c6572206973206e6f7420746865206f776e657260448201526064016102ad565b603380546001600160a01b038381166001600160a01b0319831681179093556040519116919082907f8be0079c531659141344cd1fd0a4f28419497f9722a3daafe3b4186f6b6457e090600090a35050565b600054610100900460ff166103b45760405162461bcd60e51b815260206004820152602b60248201527f496e697469616c697a61626c653a20636f6e7472616374206973206e6f74206960448201526a6e697469616c697a696e6760a81b60648201526084016102ad565b8280546107d590610b24565b90600052602060002090601f0160209004810192826107f7576000855561083d565b82601f106108105782800160ff1982351617855561083d565b8280016001018555821561083d579182015b8281111561083d578235825591602001919060010190610822565b506108499291506108c1565b5090565b82805461085990610b24565b90600052602060002090601f01602090048101928261087b576000855561083d565b82601f1061089457805160ff191683800117855561083d565b8280016001018555821561083d579182015b8281111561083d5782518255916020019190600101906108a6565b5b8082111561084957600081556001016108c2565b600082601f8301126108e6578081fd5b813567ffffffffffffffff8082111561090157610901610b5f565b604051601f8301601f19908116603f0116810190828211818310171561092957610929610b5f565b81604052838152866020858801011115610941578485fd5b8360208701602083013792830160200193909352509392505050565b60006020828403121561096e578081fd5b81356001600160a01b0381168114610984578182fd5b9392505050565b6000806020838503121561099d578081fd5b823567ffffffffffffffff808211156109b4578283fd5b818501915085601f8301126109c7578283fd5b8135818111156109d5578384fd5b8660208285010111156109e6578384fd5b60209290920196919550909350505050565b600060208284031215610a09578081fd5b813567ffffffffffffffff811115610a1f578182fd5b610a2b848285016108d6565b949350505050565b60008060408385031215610a45578182fd5b823567ffffffffffffffff811115610a5b578283fd5b610a67858286016108d6565b95602094909401359450505050565b60008251610a88818460208701610af4565b9190910192915050565b60208152816020820152818360408301376000818301604090810191909152601f909201601f19160101919050565b6020815260008251806020840152610ae0816040850160208701610af4565b601f01601f19169190910160400192915050565b60005b83811015610b0f578181015183820152602001610af7565b83811115610b1e576000848401525b50505050565b600181811c90821680610b3857607f821691505b60208210811415610b5957634e487b7160e01b600052602260045260246000fd5b50919050565b634e487b7160e01b600052604160045260246000fdfea2646970667358221220d236d7401c8f60813bde49a6cdc8a06041433d82405214b1f60e987981fc722364736f6c63430008040033",
  "linkReferences": {},
  "deployedLinkReferences": {}
}