{
  "_format": "hh-sol-artifact-1",
  "contractName": "ColorBoxV2",
  "sourceName": "contracts/ColorBoxV2.sol",
  "abi": [
    {
      "anonymous": false,
      "inputs": [
        {
          "indexed": false,
          "internalType": "string",
          "name": "newValue",
          "type": "string"
        }
      ],
      "name": "ColorChanged",
      "type": "event"
    },
    {
      "anonymous": false,
      "inputs": [
        {
          "indexed": false,
          "internalType": "uint8",
          "name": "version",
          "type": "uint8"
        }
      ],
      "name": "Initialized",
      "type": "event"
    },
    {
      "anonymous": false,
      "inputs": [
        {
          "indexed": true,
          "internalType": "address",
          "name": "previousOwner",
          "type": "address"
        },
        {
          "indexed": true,
          "internalType": "address",
          "name": "newOwner",
          "type": "address"
        }
      ],
      "name": "OwnershipTransferred",
      "type": "event"
    },
    {
      "anonymous": false,
      "inputs": [
        {
          "indexed": false,
          "internalType": "bool",
          "name": "newValue",
          "type": "bool"
        }
      ],
      "name": "ShouldRevertChanged",
      "type": "event"
    },
    {
      "inputs": [
        {
          "internalType": "string",
          "name": "newColor",
          "type": "string"
        }
      ],
      "name": "changeColorCouldRevert",
      "outputs": [],
      "stateMutability": "nonpayable",
      "type": "function"
    },
    {
      "inputs": [
        {
          "internalType": "string",
          "name": "newColor",
          "type": "string"
        }
      ],
      "name": "changeColorDryRun",
      "outputs": [],
      "stateMutability": "nonpayable",
      "type": "function"
    },
    {
      "inputs": [
        {
          "internalType": "string",
          "name": "newColor",
          "type": "string"
        }
      ],
      "name": "changeColorOwner",
      "outputs": [],
      "stateMutability": "nonpayable",
      "type": "function"
    },
    {
      "inputs": [
        {
          "internalType": "string",
          "name": "newValue",
          "type": "string"
        }
      ],
      "name": "changeValueNoRevert",
      "outputs": [],
      "stateMutability": "nonpayable",
      "type": "function"
    },
    {
      "inputs": [],
      "name": "getColor",
      "outputs": [
        {
          "internalType": "string",
          "name": "",
          "type": "string"
        }
      ],
      "stateMutability": "view",
      "type": "function"
    },
    {
      "inputs": [
        {
          "internalType": "string",
          "name": "_testKey",
          "type": "string"
        }
      ],
      "name": "getMapping",
      "outputs": [
        {
          "internalType": "uint256",
          "name": "",
          "type": "uint256"
        }
      ],
      "stateMutability": "view",
      "type": "function"
    },
    {
      "inputs": [],
      "name": "getVersion",
      "outputs": [
        {
          "internalType": "string",
          "name": "",
          "type": "string"
        }
      ],
      "stateMutability": "pure",
      "type": "function"
    },
    {
      "inputs": [
        {
          "internalType": "string",
          "name": "initialColor",
          "type": "string"
        }
      ],
      "name": "initialize",
      "outputs": [],
      "stateMutability": "nonpayable",
      "type": "function"
    },
    {
      "inputs": [],
      "name": "isV2",
      "outputs": [
        {
          "internalType": "bool",
          "name": "",
          "type": "bool"
        }
      ],
      "stateMutability": "pure",
      "type": "function"
    },
    {
      "inputs": [],
      "name": "owner",
      "outputs": [
        {
          "internalType": "address",
          "name": "",
          "type": "address"
        }
      ],
      "stateMutability": "view",
      "type": "function"
    },
    {
      "inputs": [],
      "name": "renounceOwnership",
      "outputs": [],
      "stateMutability": "nonpayable",
      "type": "function"
    },
    {
      "inputs": [],
      "name": "shouldRevert",
      "outputs": [
        {
          "internalType": "bool",
          "name": "",
          "type": "bool"
        }
      ],
      "stateMutability": "view",
      "type": "function"
    },
    {
      "inputs": [],
      "name": "switchShouldRevert",
      "outputs": [],
      "stateMutability": "nonpayable",
      "type": "function"
    },
    {
      "inputs": [
        {
          "internalType": "string",
          "name": "",
          "type": "string"
        }
      ],
      "name": "testMapping",
      "outputs": [
        {
          "internalType": "uint256",
          "name": "",
          "type": "uint256"
        }
      ],
      "stateMutability": "view",
      "type": "function"
    },
    {
      "inputs": [],
      "name": "testRevert",
      "outputs": [],
      "stateMutability": "pure",
      "type": "function"
    },
    {
      "inputs": [
        {
          "internalType": "address",
          "name": "newOwner",
          "type": "address"
        }
      ],
      "name": "transferOwnership",
      "outputs": [],
      "stateMutability": "nonpayable",
      "type": "function"
    },
    {
      "inputs": [
        {
          "internalType": "string",
          "name": "_testKey",
          "type": "string"
        },
        {
          "internalType": "uint256",
          "name": "_testVal",
          "type": "uint256"
        }
      ],
      "name": "updateMapping",
      "outputs": [],
      "stateMutability": "nonpayable",
      "type": "function"
    }
  ],
  "bytecode": "0x608060405234801561001057600080fd5b506114cc806100206000396000f3fe608060405234801561001057600080fd5b506004361061010b5760003560e01c80638da5cb5b116100a2578063b85b299511610071578063b85b29951461025a578063d3072d8214610276578063e186e72714610294578063f2fde38b146102b0578063f62d1888146102cc5761010b565b80638da5cb5b146101f85780639a86139b14610216578063a26388bb14610234578063ac7a25ee1461023e5761010b565b806315b60141116100de57806315b60141146101845780632d94a2d0146101b45780635f606662146101d2578063715018a6146101ee5761010b565b80630cab219a146101105780630d8e6e2c1461012c57806311f45e9c1461014a578063142c9eb51461017a575b600080fd5b61012a60048036038101906101259190610d00565b6102e8565b005b610134610387565b604051610141919061100b565b60405180910390f35b610164600480360381019061015f9190610d45565b6103c4565b60405161017191906110ed565b60405180910390f35b6101826103ec565b005b61019e60048036038101906101999190610d45565b610466565b6040516101ab91906110ed565b60405180910390f35b6101bc610494565b6040516101c99190610fb1565b60405180910390f35b6101ec60048036038101906101e79190610d86565b61049d565b005b6101f66104c4565b005b6102006104d8565b60405161020d9190610f96565b60405180910390f35b61021e610502565b60405161022b919061100b565b60405180910390f35b61023c6105e4565b005b61025860048036038101906102539190610d00565b610627565b005b610274600480360381019061026f9190610d00565b610664565b005b61027e6106b3565b60405161028b9190610fb1565b60405180910390f35b6102ae60048036038101906102a99190610d00565b6106c6565b005b6102ca60048036038101906102c59190610cd7565b61071d565b005b6102e660048036038101906102e19190610d45565b6107a1565b005b606660009054906101000a900460ff1615610338576040517f08c379a000000000000000000000000000000000000000000000000000000000815260040161032f906110cd565b60405180910390fd5b818160659190610349929190610ad2565b507fea8482eb24fdcbd88250f9fd14644f201467fcaf3c5f08a0675ed9d46977ae3b828260405161037b929190610fe7565b60405180910390a15050565b60606040518060400160405280600281526020017f5632000000000000000000000000000000000000000000000000000000000000815250905090565b60006067826040516103d69190610f7f565b9081526020016040518091039020549050919050565b6103f4610912565b606660009054906101000a900460ff1615606660006101000a81548160ff0219169083151502179055507f88e95cf2f314e458491f98f3be8f296ee704bfc5b2cbeddcda73b61d44c9060b606660009054906101000a900460ff1660405161045c9190610fb1565b60405180910390a1565b6067818051602081018201805184825260208301602085012081835280955050505050506000915090505481565b60006001905090565b806067836040516104ae9190610f7f565b9081526020016040518091039020819055505050565b6104cc610912565b6104d66000610990565b565b6000603360009054906101000a900473ffffffffffffffffffffffffffffffffffffffff16905090565b6060606660009054906101000a900460ff1615610554576040517f08c379a000000000000000000000000000000000000000000000000000000000815260040161054b906110cd565b60405180910390fd5b606580546105619061122e565b80601f016020809104026020016040519081016040528092919081815260200182805461058d9061122e565b80156105da5780601f106105af576101008083540402835291602001916105da565b820191906000526020600020905b8154815290600101906020018083116105bd57829003601f168201915b5050505050905090565b6000610625576040517f08c379a000000000000000000000000000000000000000000000000000000000815260040161061c9061102d565b60405180910390fd5b565b7fea8482eb24fdcbd88250f9fd14644f201467fcaf3c5f08a0675ed9d46977ae3b8282604051610658929190610fe7565b60405180910390a15050565b818160659190610675929190610ad2565b507fea8482eb24fdcbd88250f9fd14644f201467fcaf3c5f08a0675ed9d46977ae3b82826040516106a7929190610fe7565b60405180910390a15050565b606660009054906101000a900460ff1681565b6106ce610912565b8181606591906106df929190610ad2565b507fea8482eb24fdcbd88250f9fd14644f201467fcaf3c5f08a0675ed9d46977ae3b8282604051610711929190610fe7565b60405180910390a15050565b610725610912565b600073ffffffffffffffffffffffffffffffffffffffff168173ffffffffffffffffffffffffffffffffffffffff161415610795576040517f08c379a000000000000000000000000000000000000000000000000000000000815260040161078c9061104d565b60405180910390fd5b61079e81610990565b50565b60008060019054906101000a900460ff161590508080156107d25750600160008054906101000a900460ff1660ff16105b806107ff57506107e130610a56565b1580156107fe5750600160008054906101000a900460ff1660ff16145b5b61083e576040517f08c379a00000000000000000000000000000000000000000000000000000000081526004016108359061106d565b60405180910390fd5b60016000806101000a81548160ff021916908360ff160217905550801561087b576001600060016101000a81548160ff0219169083151502179055505b610883610a79565b8160659080519060200190610899929190610b58565b506000606660006101000a81548160ff021916908315150217905550801561090e5760008060016101000a81548160ff0219169083151502179055507f7f26b83ff96e1f2b6a682f133852f6798a09c465da95921460cefb384740249860016040516109059190610fcc565b60405180910390a15b5050565b61091a610aca565b73ffffffffffffffffffffffffffffffffffffffff166109386104d8565b73ffffffffffffffffffffffffffffffffffffffff161461098e576040517f08c379a00000000000000000000000000000000000000000000000000000000081526004016109859061108d565b60405180910390fd5b565b6000603360009054906101000a900473ffffffffffffffffffffffffffffffffffffffff16905081603360006101000a81548173ffffffffffffffffffffffffffffffffffffffff021916908373ffffffffffffffffffffffffffffffffffffffff1602179055508173ffffffffffffffffffffffffffffffffffffffff168173ffffffffffffffffffffffffffffffffffffffff167f8be0079c531659141344cd1fd0a4f28419497f9722a3daafe3b4186f6b6457e060405160405180910390a35050565b6000808273ffffffffffffffffffffffffffffffffffffffff163b119050919050565b600060019054906101000a900460ff16610ac8576040517f08c379a0000000000000000000000000000000000000000000000000000000008152600401610abf906110ad565b60405180910390fd5b565b600033905090565b828054610ade9061122e565b90600052602060002090601f016020900481019282610b005760008555610b47565b82601f10610b1957803560ff1916838001178555610b47565b82800160010185558215610b47579182015b82811115610b46578235825591602001919060010190610b2b565b5b509050610b549190610bde565b5090565b828054610b649061122e565b90600052602060002090601f016020900481019282610b865760008555610bcd565b82601f10610b9f57805160ff1916838001178555610bcd565b82800160010185558215610bcd579182015b82811115610bcc578251825591602001919060010190610bb1565b5b509050610bda9190610bde565b5090565b5b80821115610bf7576000816000905550600101610bdf565b5090565b6000610c0e610c098461112d565b611108565b905082815260208101848484011115610c2657600080fd5b610c318482856111ec565b509392505050565b600081359050610c4881611468565b92915050565b60008083601f840112610c6057600080fd5b8235905067ffffffffffffffff811115610c7957600080fd5b602083019150836001820283011115610c9157600080fd5b9250929050565b600082601f830112610ca957600080fd5b8135610cb9848260208601610bfb565b91505092915050565b600081359050610cd18161147f565b92915050565b600060208284031215610ce957600080fd5b6000610cf784828501610c39565b91505092915050565b60008060208385031215610d1357600080fd5b600083013567ffffffffffffffff811115610d2d57600080fd5b610d3985828601610c4e565b92509250509250929050565b600060208284031215610d5757600080fd5b600082013567ffffffffffffffff811115610d7157600080fd5b610d7d84828501610c98565b91505092915050565b60008060408385031215610d9957600080fd5b600083013567ffffffffffffffff811115610db357600080fd5b610dbf85828601610c98565b9250506020610dd085828601610cc2565b9150509250929050565b610de381611185565b82525050565b610df281611197565b82525050565b610e01816111da565b82525050565b6000610e138385611169565b9350610e208385846111ec565b610e29836112ef565b840190509392505050565b6000610e3f8261115e565b610e498185611169565b9350610e598185602086016111fb565b610e62816112ef565b840191505092915050565b6000610e788261115e565b610e82818561117a565b9350610e928185602086016111fb565b80840191505092915050565b6000610eab601783611169565b9150610eb682611300565b602082019050919050565b6000610ece602683611169565b9150610ed982611329565b604082019050919050565b6000610ef1602e83611169565b9150610efc82611378565b604082019050919050565b6000610f14602083611169565b9150610f1f826113c7565b602082019050919050565b6000610f37602b83611169565b9150610f42826113f0565b604082019050919050565b6000610f5a600d83611169565b9150610f658261143f565b602082019050919050565b610f79816111c3565b82525050565b6000610f8b8284610e6d565b915081905092915050565b6000602082019050610fab6000830184610dda565b92915050565b6000602082019050610fc66000830184610de9565b92915050565b6000602082019050610fe16000830184610df8565b92915050565b60006020820190508181036000830152611002818486610e07565b90509392505050565b600060208201905081810360008301526110258184610e34565b905092915050565b6000602082019050818103600083015261104681610e9e565b9050919050565b6000602082019050818103600083015261106681610ec1565b9050919050565b6000602082019050818103600083015261108681610ee4565b9050919050565b600060208201905081810360008301526110a681610f07565b9050919050565b600060208201905081810360008301526110c681610f2a565b9050919050565b600060208201905081810360008301526110e681610f4d565b9050919050565b60006020820190506111026000830184610f70565b92915050565b6000611112611123565b905061111e8282611260565b919050565b6000604051905090565b600067ffffffffffffffff821115611148576111476112c0565b5b611151826112ef565b9050602081019050919050565b600081519050919050565b600082825260208201905092915050565b600081905092915050565b6000611190826111a3565b9050919050565b60008115159050919050565b600073ffffffffffffffffffffffffffffffffffffffff82169050919050565b6000819050919050565b600060ff82169050919050565b60006111e5826111cd565b9050919050565b82818337600083830152505050565b60005b838110156112195780820151818401526020810190506111fe565b83811115611228576000848401525b50505050565b6000600282049050600182168061124657607f821691505b6020821081141561125a57611259611291565b5b50919050565b611269826112ef565b810181811067ffffffffffffffff82111715611288576112876112c0565b5b80604052505050565b7f4e487b7100000000000000000000000000000000000000000000000000000000600052602260045260246000fd5b7f4e487b7100000000000000000000000000000000000000000000000000000000600052604160045260246000fd5b6000601f19601f8301169050919050565b7f43616c6c20686173206265656e20726576657274656421000000000000000000600082015250565b7f4f776e61626c653a206e6577206f776e657220697320746865207a65726f206160008201527f6464726573730000000000000000000000000000000000000000000000000000602082015250565b7f496e697469616c697a61626c653a20636f6e747261637420697320616c72656160008201527f647920696e697469616c697a6564000000000000000000000000000000000000602082015250565b7f4f776e61626c653a2063616c6c6572206973206e6f7420746865206f776e6572600082015250565b7f496e697469616c697a61626c653a20636f6e7472616374206973206e6f74206960008201527f6e697469616c697a696e67000000000000000000000000000000000000000000602082015250565b7f53657420746f2072657665727400000000000000000000000000000000000000600082015250565b61147181611185565b811461147c57600080fd5b50565b611488816111c3565b811461149357600080fd5b5056fea2646970667358221220c1df1221d024daf9847260b4143afc8df52a9ff84caa9dab9117370cf313553564736f6c63430008040033",
  "linkReferences": {},
  "deployedLinkReferences": {}
}