{
  "address": "0x612F23Ffbc1b432aeaf0d6C309e45E44D2874F84",
  "abi": [
    {
      "inputs": [
        {
          "internalType": "string",
          "name": "initialColor",
          "type": "string"
        }
      ],
      "stateMutability": "nonpayable",
      "type": "constructor"
    },
    {
      "anonymous": false,
      "inputs": [
        {
          "indexed": false,
          "internalType": "string",
          "name": "newValue",
          "type": "string"
        }
      ],
      "name": "ColorChanged",
      "type": "event"
    },
    {
      "anonymous": false,
      "inputs": [
        {
          "indexed": true,
          "internalType": "address",
          "name": "previousOwner",
          "type": "address"
        },
        {
          "indexed": true,
          "internalType": "address",
          "name": "newOwner",
          "type": "address"
        }
      ],
      "name": "OwnershipTransferred",
      "type": "event"
    },
    {
      "anonymous": false,
      "inputs": [
        {
          "indexed": false,
          "internalType": "bool",
          "name": "newValue",
          "type": "bool"
        }
      ],
      "name": "ShouldRevertChanged",
      "type": "event"
    },
    {
      "inputs": [
        {
          "internalType": "string",
          "name": "newValue",
          "type": "string"
        }
      ],
      "name": "changeColorDryRun",
      "outputs": [],
      "stateMutability": "nonpayable",
      "type": "function"
    },
    {
      "inputs": [
        {
          "internalType": "string",
          "name": "newValue",
          "type": "string"
        }
      ],
      "name": "changeValue",
      "outputs": [],
      "stateMutability": "nonpayable",
      "type": "function"
    },
    {
      "inputs": [
        {
          "internalType": "string",
          "name": "newValue",
          "type": "string"
        }
      ],
      "name": "changeValueOwner",
      "outputs": [],
      "stateMutability": "nonpayable",
      "type": "function"
    },
    {
      "inputs": [],
      "name": "getValue",
      "outputs": [
        {
          "internalType": "string",
          "name": "",
          "type": "string"
        }
      ],
      "stateMutability": "view",
      "type": "function"
    },
    {
      "inputs": [],
      "name": "getVersion",
      "outputs": [
        {
          "internalType": "string",
          "name": "",
          "type": "string"
        }
      ],
      "stateMutability": "pure",
      "type": "function"
    },
    {
      "inputs": [],
      "name": "owner",
      "outputs": [
        {
          "internalType": "address",
          "name": "",
          "type": "address"
        }
      ],
      "stateMutability": "view",
      "type": "function"
    },
    {
      "inputs": [],
      "name": "renounceOwnership",
      "outputs": [],
      "stateMutability": "nonpayable",
      "type": "function"
    },
    {
      "inputs": [],
      "name": "shouldRevert",
      "outputs": [
        {
          "internalType": "bool",
          "name": "",
          "type": "bool"
        }
      ],
      "stateMutability": "view",
      "type": "function"
    },
    {
      "inputs": [],
      "name": "switchShouldRevert",
      "outputs": [],
      "stateMutability": "nonpayable",
      "type": "function"
    },
    {
      "inputs": [
        {
          "internalType": "address",
          "name": "newOwner",
          "type": "address"
        }
      ],
      "name": "transferOwnership",
      "outputs": [],
      "stateMutability": "nonpayable",
      "type": "function"
    }
  ],
  "transactionHash": "0xab9c19b8b3fa26ef4ea9e1feb9de600be1810ff209b96f69d5f9a57b4f3c764c",
  "args": [
    "GreatValue"
  ],
  "numDeployments": 1,
  "solcInputHash": "52e477554c0157e947a2e47931ca4f3c",
  "bytecode": "0x608060405234801561001057600080fd5b50604051620009ac380380620009ac8339810160408190526100319161015d565b61003a3361005e565b805161004d9060019060208401906100ae565b50506002805460ff19169055610267565b600080546001600160a01b038381166001600160a01b0319831681178455604051919092169283917f8be0079c531659141344cd1fd0a4f28419497f9722a3daafe3b4186f6b6457e09190a35050565b8280546100ba9061022c565b90600052602060002090601f0160209004810192826100dc5760008555610122565b82601f106100f557805160ff1916838001178555610122565b82800160010185558215610122579182015b82811115610122578251825591602001919060010190610107565b5061012e929150610132565b5090565b5b8082111561012e5760008155600101610133565b634e487b7160e01b600052604160045260246000fd5b6000602080838503121561017057600080fd5b82516001600160401b038082111561018757600080fd5b818501915085601f83011261019b57600080fd5b8151818111156101ad576101ad610147565b604051601f8201601f19908116603f011681019083821181831017156101d5576101d5610147565b8160405282815288868487010111156101ed57600080fd5b600093505b8284101561020f57848401860151818501870152928501926101f2565b828411156102205760008684830101525b98975050505050505050565b600181811c9082168061024057607f821691505b6020821081141561026157634e487b7160e01b600052602260045260246000fd5b50919050565b61073580620002776000396000f3fe608060405234801561001057600080fd5b506004361061009e5760003560e01c80638da5cb5b116100665780638da5cb5b14610100578063ac7a25ee1461011b578063d3072d821461012e578063e3a07ac01461014b578063f2fde38b1461015e57600080fd5b80630d8e6e2c146100a3578063142c9eb5146100d357806320965255146100dd578063715018a6146100e55780638d73fe89146100ed575b600080fd5b604080518082019091526002815261563160f01b60208201525b6040516100ca9190610569565b60405180910390f35b6100db610171565b005b6100bd6101f1565b6100db6102c7565b6100db6100fb3660046105be565b6102fd565b6000546040516001600160a01b0390911681526020016100ca565b6100db6101293660046105be565b610371565b60025461013b9060ff1681565b60405190151581526020016100ca565b6100db6101593660046105be565b6103a2565b6100db61016c366004610630565b6103e5565b6000546001600160a01b031633146101a45760405162461bcd60e51b815260040161019b90610660565b60405180910390fd5b6002805460ff8082161560ff1990921682179092556040519116151581527f88e95cf2f314e458491f98f3be8f296ee704bfc5b2cbeddcda73b61d44c9060b9060200160405180910390a1565b60025460609060ff16156102375760405162461bcd60e51b815260206004820152600d60248201526c14d95d081d1bc81c995d995c9d609a1b604482015260640161019b565b6001805461024490610695565b80601f016020809104026020016040519081016040528092919081815260200182805461027090610695565b80156102bd5780601f10610292576101008083540402835291602001916102bd565b820191906000526020600020905b8154815290600101906020018083116102a057829003601f168201915b5050505050905090565b6000546001600160a01b031633146102f15760405162461bcd60e51b815260040161019b90610660565b6102fb6000610480565b565b6000546001600160a01b031633146103275760405162461bcd60e51b815260040161019b90610660565b610333600183836104d0565b507fea8482eb24fdcbd88250f9fd14644f201467fcaf3c5f08a0675ed9d46977ae3b82826040516103659291906106d0565b60405180910390a15050565b7fea8482eb24fdcbd88250f9fd14644f201467fcaf3c5f08a0675ed9d46977ae3b82826040516103659291906106d0565b60025460ff16156103275760405162461bcd60e51b815260206004820152600d60248201526c14d95d081d1bc81c995d995c9d609a1b604482015260640161019b565b6000546001600160a01b0316331461040f5760405162461bcd60e51b815260040161019b90610660565b6001600160a01b0381166104745760405162461bcd60e51b815260206004820152602660248201527f4f776e61626c653a206e6577206f776e657220697320746865207a65726f206160448201526564647265737360d01b606482015260840161019b565b61047d81610480565b50565b600080546001600160a01b038381166001600160a01b0319831681178455604051919092169283917f8be0079c531659141344cd1fd0a4f28419497f9722a3daafe3b4186f6b6457e09190a35050565b8280546104dc90610695565b90600052602060002090601f0160209004810192826104fe5760008555610544565b82601f106105175782800160ff19823516178555610544565b82800160010185558215610544579182015b82811115610544578235825591602001919060010190610529565b50610550929150610554565b5090565b5b808211156105505760008155600101610555565b600060208083528351808285015260005b818110156105965785810183015185820160400152820161057a565b818111156105a8576000604083870101525b50601f01601f1916929092016040019392505050565b600080602083850312156105d157600080fd5b823567ffffffffffffffff808211156105e957600080fd5b818501915085601f8301126105fd57600080fd5b81358181111561060c57600080fd5b86602082850101111561061e57600080fd5b60209290920196919550909350505050565b60006020828403121561064257600080fd5b81356001600160a01b038116811461065957600080fd5b9392505050565b6020808252818101527f4f776e61626c653a2063616c6c6572206973206e6f7420746865206f776e6572604082015260600190565b600181811c908216806106a957607f821691505b602082108114156106ca57634e487b7160e01b600052602260045260246000fd5b50919050565b60208152816020820152818360408301376000818301604090810191909152601f909201601f1916010191905056fea2646970667358221220b885d1aa0abe4824310807f9bb6193b729dff5373d7ede0aa2ac23a0fad7c97664736f6c63430008090033",
  "devdoc": {
    "author": "Mr Tumeric A. Gardner",
    "custom:experimental": "This is an experimental contract.",
    "details": "All function calls are currently implemented without..",
    "kind": "dev",
    "methods": {
      "changeColorDryRun(string)": {
        "custom:event-only": "This function simply emit an event.",
        "details": "The Alexandr N. Tetearing algorithm could increase precision",
        "params": {
          "newValue": "The new value to be stored in the box state"
        }
      },
      "changeValue(string)": {
        "details": "The Alexandr N. Tetearing algorithm could increase precision",
        "params": {
          "newValue": "The new value to be stored in the box state"
        }
      },
      "changeValueOwner(string)": {
        "details": "The Alexandr N. Tetearing algorithm could increase precision",
        "params": {
          "newValue": "The new value to be stored in the box state"
        }
      },
      "getValue()": {
        "details": "Returns only a string.",
        "returns": {
          "_0": "The current value of in the box state"
        }
      },
      "getVersion()": {
        "details": "Returns only a string.",
        "returns": {
          "_0": "The current version of the contract"
        }
      },
      "owner()": {
        "details": "Returns the address of the current owner."
      },
      "renounceOwnership()": {
        "details": "Leaves the contract without owner. It will not be possible to call `onlyOwner` functions anymore. Can only be called by the current owner. NOTE: Renouncing ownership will leave the contract without an owner, thereby removing any functionality that is only available to the owner."
      },
      "transferOwnership(address)": {
        "details": "Transfers ownership of the contract to a new account (`newOwner`). Can only be called by the current owner."
      }
    },
    "title": "A box containing some value",
    "version": 1
  },
  "userdoc": {
    "kind": "user",
    "methods": {
      "changeColorDryRun(string)": {
        "notice": "Allow to simulate changing the value stored in the Box"
      },
      "changeValue(string)": {
        "notice": "Allow to change the value stored in the BoxOnly the Owner can call this function"
      },
      "changeValueOwner(string)": {
        "notice": "Allow to change the value stored in the BoxOnly the Owner can call this function"
      },
      "getValue()": {
        "notice": "Returns current value in the box."
      },
      "getVersion()": {
        "notice": "Returns current version of the contract."
      }
    },
    "notice": "You can use this contract for only the most basic simulation",
    "version": 1
  },
  "storageLayout": {
    "storage": [
      {
        "astId": 389,
        "contract": "contracts/Box.sol:Box",
        "label": "_owner",
        "offset": 0,
        "slot": "0",
        "type": "t_address"
      },
      {
        "astId": 5937,
        "contract": "contracts/Box.sol:Box",
        "label": "value",
        "offset": 0,
        "slot": "1",
        "type": "t_string_storage"
      },
      {
        "astId": 5939,
        "contract": "contracts/Box.sol:Box",
        "label": "shouldRevert",
        "offset": 0,
        "slot": "2",
        "type": "t_bool"
      }
    ],
    "types": {
      "t_address": {
        "encoding": "inplace",
        "label": "address",
        "numberOfBytes": "20"
      },
      "t_bool": {
        "encoding": "inplace",
        "label": "bool",
        "numberOfBytes": "1"
      },
      "t_string_storage": {
        "encoding": "bytes",
        "label": "string",
        "numberOfBytes": "32"
      }
    }
  }
}