{
  "_format": "hh-sol-artifact-1",
  "contractName": "GreeterV1",
  "sourceName": "contracts/Greeter.sol",
  "abi": [
    {
      "inputs": [
        {
          "internalType": "string",
          "name": "_greeting",
          "type": "string"
        }
      ],
      "stateMutability": "nonpayable",
      "type": "constructor"
    },
    {
      "anonymous": false,
      "inputs": [
        {
          "indexed": false,
          "internalType": "uint8",
          "name": "version",
          "type": "uint8"
        }
      ],
      "name": "Initialized",
      "type": "event"
    },
    {
      "anonymous": false,
      "inputs": [
        {
          "indexed": true,
          "internalType": "address",
          "name": "previousOwner",
          "type": "address"
        },
        {
          "indexed": true,
          "internalType": "address",
          "name": "newOwner",
          "type": "address"
        }
      ],
      "name": "OwnershipTransferred",
      "type": "event"
    },
    {
      "anonymous": false,
      "inputs": [
        {
          "indexed": false,
          "internalType": "address",
          "name": "account",
          "type": "address"
        }
      ],
      "name": "Paused",
      "type": "event"
    },
    {
      "anonymous": false,
      "inputs": [
        {
          "indexed": false,
          "internalType": "address",
          "name": "account",
          "type": "address"
        }
      ],
      "name": "Unpaused",
      "type": "event"
    },
    {
      "inputs": [],
      "name": "greet",
      "outputs": [
        {
          "internalType": "string",
          "name": "",
          "type": "string"
        }
      ],
      "stateMutability": "view",
      "type": "function"
    },
    {
      "inputs": [
        {
          "internalType": "string",
          "name": "_initialGreet",
          "type": "string"
        }
      ],
      "name": "initialize",
      "outputs": [],
      "stateMutability": "nonpayable",
      "type": "function"
    },
    {
      "inputs": [],
      "name": "owner",
      "outputs": [
        {
          "internalType": "address",
          "name": "",
          "type": "address"
        }
      ],
      "stateMutability": "view",
      "type": "function"
    },
    {
      "inputs": [],
      "name": "paused",
      "outputs": [
        {
          "internalType": "bool",
          "name": "",
          "type": "bool"
        }
      ],
      "stateMutability": "view",
      "type": "function"
    },
    {
      "inputs": [],
      "name": "renounceOwnership",
      "outputs": [],
      "stateMutability": "nonpayable",
      "type": "function"
    },
    {
      "inputs": [
        {
          "internalType": "string",
          "name": "_greeting",
          "type": "string"
        }
      ],
      "name": "setGreeting",
      "outputs": [],
      "stateMutability": "nonpayable",
      "type": "function"
    },
    {
      "inputs": [
        {
          "internalType": "address",
          "name": "newOwner",
          "type": "address"
        }
      ],
      "name": "transferOwnership",
      "outputs": [],
      "stateMutability": "nonpayable",
      "type": "function"
    }
  ],
  "bytecode": "0x60806040523480156200001157600080fd5b5060405162000fc838038062000fc8833981810160405281019062000037919062000179565b80609790805190602001906200004f92919062000057565b50506200032e565b828054620000659062000253565b90600052602060002090601f016020900481019282620000895760008555620000d5565b82601f10620000a457805160ff1916838001178555620000d5565b82800160010185558215620000d5579182015b82811115620000d4578251825591602001919060010190620000b7565b5b509050620000e49190620000e8565b5090565b5b8082111562000103576000816000905550600101620000e9565b5090565b60006200011e6200011884620001e7565b620001be565b9050828152602081018484840111156200013757600080fd5b620001448482856200021d565b509392505050565b600082601f8301126200015e57600080fd5b81516200017084826020860162000107565b91505092915050565b6000602082840312156200018c57600080fd5b600082015167ffffffffffffffff811115620001a757600080fd5b620001b5848285016200014c565b91505092915050565b6000620001ca620001dd565b9050620001d8828262000289565b919050565b6000604051905090565b600067ffffffffffffffff821115620002055762000204620002ee565b5b62000210826200031d565b9050602081019050919050565b60005b838110156200023d57808201518184015260208101905062000220565b838111156200024d576000848401525b50505050565b600060028204905060018216806200026c57607f821691505b60208210811415620002835762000282620002bf565b5b50919050565b62000294826200031d565b810181811067ffffffffffffffff82111715620002b657620002b5620002ee565b5b80604052505050565b7f4e487b7100000000000000000000000000000000000000000000000000000000600052602260045260246000fd5b7f4e487b7100000000000000000000000000000000000000000000000000000000600052604160045260246000fd5b6000601f19601f8301169050919050565b610c8a806200033e6000396000f3fe608060405234801561001057600080fd5b506004361061007d5760003560e01c8063a41368621161005b578063a4136862146100c8578063cfae3217146100e4578063f2fde38b14610102578063f62d18881461011e5761007d565b80635c975abb14610082578063715018a6146100a05780638da5cb5b146100aa575b600080fd5b61008a61013a565b604051610097919061086c565b60405180910390f35b6100a8610151565b005b6100b2610165565b6040516100bf9190610851565b60405180910390f35b6100e260048036038101906100dd919061071e565b61018f565b005b6100ec6101a9565b6040516100f991906108a2565b60405180910390f35b61011c600480360381019061011791906106f5565b61023b565b005b6101386004803603810190610133919061071e565b6102bf565b005b6000606560009054906101000a900460ff16905090565b610159610415565b6101636000610493565b565b6000603360009054906101000a900473ffffffffffffffffffffffffffffffffffffffff16905090565b80609790805190602001906101a59291906105d5565b5050565b6060609780546101b890610a55565b80601f01602080910402602001604051908101604052809291908181526020018280546101e490610a55565b80156102315780601f1061020657610100808354040283529160200191610231565b820191906000526020600020905b81548152906001019060200180831161021457829003601f168201915b5050505050905090565b610243610415565b600073ffffffffffffffffffffffffffffffffffffffff168173ffffffffffffffffffffffffffffffffffffffff1614156102b3576040517f08c379a00000000000000000000000000000000000000000000000000000000081526004016102aa906108c4565b60405180910390fd5b6102bc81610493565b50565b60008060019054906101000a900460ff161590508080156102f05750600160008054906101000a900460ff1660ff16105b8061031d57506102ff30610559565b15801561031c5750600160008054906101000a900460ff1660ff16145b5b61035c576040517f08c379a0000000000000000000000000000000000000000000000000000000008152600401610353906108e4565b60405180910390fd5b60016000806101000a81548160ff021916908360ff1602179055508015610399576001600060016101000a81548160ff0219169083151502179055505b6103a161057c565b81609790805190602001906103b79291906105d5565b5080156104115760008060016101000a81548160ff0219169083151502179055507f7f26b83ff96e1f2b6a682f133852f6798a09c465da95921460cefb384740249860016040516104089190610887565b60405180910390a15b5050565b61041d6105cd565b73ffffffffffffffffffffffffffffffffffffffff1661043b610165565b73ffffffffffffffffffffffffffffffffffffffff1614610491576040517f08c379a000000000000000000000000000000000000000000000000000000000815260040161048890610904565b60405180910390fd5b565b6000603360009054906101000a900473ffffffffffffffffffffffffffffffffffffffff16905081603360006101000a81548173ffffffffffffffffffffffffffffffffffffffff021916908373ffffffffffffffffffffffffffffffffffffffff1602179055508173ffffffffffffffffffffffffffffffffffffffff168173ffffffffffffffffffffffffffffffffffffffff167f8be0079c531659141344cd1fd0a4f28419497f9722a3daafe3b4186f6b6457e060405160405180910390a35050565b6000808273ffffffffffffffffffffffffffffffffffffffff163b119050919050565b600060019054906101000a900460ff166105cb576040517f08c379a00000000000000000000000000000000000000000000000000000000081526004016105c290610924565b60405180910390fd5b565b600033905090565b8280546105e190610a55565b90600052602060002090601f016020900481019282610603576000855561064a565b82601f1061061c57805160ff191683800117855561064a565b8280016001018555821561064a579182015b8281111561064957825182559160200191906001019061062e565b5b509050610657919061065b565b5090565b5b8082111561067457600081600090555060010161065c565b5090565b600061068b61068684610969565b610944565b9050828152602081018484840111156106a357600080fd5b6106ae848285610a13565b509392505050565b6000813590506106c581610c3d565b92915050565b600082601f8301126106dc57600080fd5b81356106ec848260208601610678565b91505092915050565b60006020828403121561070757600080fd5b6000610715848285016106b6565b91505092915050565b60006020828403121561073057600080fd5b600082013567ffffffffffffffff81111561074a57600080fd5b610756848285016106cb565b91505092915050565b610768816109b6565b82525050565b610777816109c8565b82525050565b61078681610a01565b82525050565b60006107978261099a565b6107a181856109a5565b93506107b1818560208601610a22565b6107ba81610b16565b840191505092915050565b60006107d26026836109a5565b91506107dd82610b27565b604082019050919050565b60006107f5602e836109a5565b915061080082610b76565b604082019050919050565b60006108186020836109a5565b915061082382610bc5565b602082019050919050565b600061083b602b836109a5565b915061084682610bee565b604082019050919050565b6000602082019050610866600083018461075f565b92915050565b6000602082019050610881600083018461076e565b92915050565b600060208201905061089c600083018461077d565b92915050565b600060208201905081810360008301526108bc818461078c565b905092915050565b600060208201905081810360008301526108dd816107c5565b9050919050565b600060208201905081810360008301526108fd816107e8565b9050919050565b6000602082019050818103600083015261091d8161080b565b9050919050565b6000602082019050818103600083015261093d8161082e565b9050919050565b600061094e61095f565b905061095a8282610a87565b919050565b6000604051905090565b600067ffffffffffffffff82111561098457610983610ae7565b5b61098d82610b16565b9050602081019050919050565b600081519050919050565b600082825260208201905092915050565b60006109c1826109d4565b9050919050565b60008115159050919050565b600073ffffffffffffffffffffffffffffffffffffffff82169050919050565b600060ff82169050919050565b6000610a0c826109f4565b9050919050565b82818337600083830152505050565b60005b83811015610a40578082015181840152602081019050610a25565b83811115610a4f576000848401525b50505050565b60006002820490506001821680610a6d57607f821691505b60208210811415610a8157610a80610ab8565b5b50919050565b610a9082610b16565b810181811067ffffffffffffffff82111715610aaf57610aae610ae7565b5b80604052505050565b7f4e487b7100000000000000000000000000000000000000000000000000000000600052602260045260246000fd5b7f4e487b7100000000000000000000000000000000000000000000000000000000600052604160045260246000fd5b6000601f19601f8301169050919050565b7f4f776e61626c653a206e6577206f776e657220697320746865207a65726f206160008201527f6464726573730000000000000000000000000000000000000000000000000000602082015250565b7f496e697469616c697a61626c653a20636f6e747261637420697320616c72656160008201527f647920696e697469616c697a6564000000000000000000000000000000000000602082015250565b7f4f776e61626c653a2063616c6c6572206973206e6f7420746865206f776e6572600082015250565b7f496e697469616c697a61626c653a20636f6e7472616374206973206e6f74206960008201527f6e697469616c697a696e67000000000000000000000000000000000000000000602082015250565b610c46816109b6565b8114610c5157600080fd5b5056fea26469706673582212207ab5cb7d079098f17cbe9101604f09bfe1c7334c9774fa7f584b7de9888e395d64736f6c63430008040033",
  "linkReferences": {},
  "deployedLinkReferences": {}
}