{
  "_format": "hh-sol-artifact-1",
  "contractName": "MockV3Aggregator",
  "sourceName": "contracts/test/MockV3Aggregator.sol",
  "abi": [
    {
      "inputs": [
        {
          "internalType": "uint80",
          "name": "_roundId",
          "type": "uint80"
        },
        {
          "internalType": "int256",
          "name": "_answer",
          "type": "int256"
        },
        {
          "internalType": "uint256",
          "name": "_startedAt",
          "type": "uint256"
        },
        {
          "internalType": "uint256",
          "name": "_updatedAt",
          "type": "uint256"
        },
        {
          "internalType": "uint80",
          "name": "_answeredInRound",
          "type": "uint80"
        }
      ],
      "stateMutability": "nonpayable",
      "type": "constructor"
    },
    {
      "inputs": [],
      "name": "decimals",
      "outputs": [
        {
          "internalType": "uint8",
          "name": "",
          "type": "uint8"
        }
      ],
      "stateMutability": "pure",
      "type": "function"
    },
    {
      "inputs": [],
      "name": "description",
      "outputs": [
        {
          "internalType": "string",
          "name": "",
          "type": "string"
        }
      ],
      "stateMutability": "pure",
      "type": "function"
    },
    {
      "inputs": [
        {
          "internalType": "uint80",
          "name": "_roundId",
          "type": "uint80"
        }
      ],
      "name": "getRoundData",
      "outputs": [
        {
          "internalType": "uint80",
          "name": "",
          "type": "uint80"
        },
        {
          "internalType": "int256",
          "name": "",
          "type": "int256"
        },
        {
          "internalType": "uint256",
          "name": "",
          "type": "uint256"
        },
        {
          "internalType": "uint256",
          "name": "",
          "type": "uint256"
        },
        {
          "internalType": "uint80",
          "name": "",
          "type": "uint80"
        }
      ],
      "stateMutability": "view",
      "type": "function"
    },
    {
      "inputs": [],
      "name": "latestRoundData",
      "outputs": [
        {
          "internalType": "uint80",
          "name": "",
          "type": "uint80"
        },
        {
          "internalType": "int256",
          "name": "",
          "type": "int256"
        },
        {
          "internalType": "uint256",
          "name": "",
          "type": "uint256"
        },
        {
          "internalType": "uint256",
          "name": "",
          "type": "uint256"
        },
        {
          "internalType": "uint80",
          "name": "",
          "type": "uint80"
        }
      ],
      "stateMutability": "view",
      "type": "function"
    },
    {
      "inputs": [],
      "name": "version",
      "outputs": [
        {
          "internalType": "uint256",
          "name": "",
          "type": "uint256"
        }
      ],
      "stateMutability": "pure",
      "type": "function"
    }
  ],
  "bytecode": "0x608060405234801561001057600080fd5b506040516105e63803806105e6833981810160405281019061003291906100e9565b846000806101000a81548169ffffffffffffffffffff021916908369ffffffffffffffffffff16021790555083600181905550826002819055508160038190555080600460006101000a81548169ffffffffffffffffffff021916908369ffffffffffffffffffff16021790555050505050506101cf565b6000815190506100b98161018a565b92915050565b6000815190506100ce816101a1565b92915050565b6000815190506100e3816101b8565b92915050565b600080600080600060a0868803121561010157600080fd5b600061010f888289016100d4565b9550506020610120888289016100aa565b9450506040610131888289016100bf565b9350506060610142888289016100bf565b9250506080610153888289016100d4565b9150509295509295909350565b6000819050919050565b6000819050919050565b600069ffffffffffffffffffff82169050919050565b61019381610160565b811461019e57600080fd5b50565b6101aa8161016a565b81146101b557600080fd5b50565b6101c181610174565b81146101cc57600080fd5b50565b610408806101de6000396000f3fe608060405234801561001057600080fd5b50600436106100575760003560e01c8063313ce5671461005c57806354fd4d501461007a5780637284e416146100985780639a6fc8f5146100b6578063feaf968c146100ea575b600080fd5b61006461010c565b6040516100719190610309565b60405180910390f35b610082610115565b60405161008f919061029b565b60405180910390f35b6100a061011e565b6040516100ad9190610279565b60405180910390f35b6100d060048036038101906100cb91906101db565b610135565b6040516100e19594939291906102b6565b60405180910390f35b6100f2610173565b6040516101039594939291906102b6565b60405180910390f35b60006008905090565b60006007905090565b606060405180602001604052806000815250905090565b600080600080600085600154600254600354600460009054906101000a900469ffffffffffffffffffff169450945094509450945091939590929450565b60008060008060008060009054906101000a900469ffffffffffffffffffff16600154600254600354600460009054906101000a900469ffffffffffffffffffff16945094509450945094509091929394565b6000813590506101d5816103bb565b92915050565b6000602082840312156101ed57600080fd5b60006101fb848285016101c6565b91505092915050565b61020d81610340565b82525050565b600061021e82610324565b610228818561032f565b9350610238818560208601610377565b610241816103aa565b840191505092915050565b6102558161034a565b82525050565b61026481610361565b82525050565b61027381610354565b82525050565b600060208201905081810360008301526102938184610213565b905092915050565b60006020820190506102b0600083018461024c565b92915050565b600060a0820190506102cb600083018861025b565b6102d86020830187610204565b6102e5604083018661024c565b6102f2606083018561024c565b6102ff608083018461025b565b9695505050505050565b600060208201905061031e600083018461026a565b92915050565b600081519050919050565b600082825260208201905092915050565b6000819050919050565b6000819050919050565b600060ff82169050919050565b600069ffffffffffffffffffff82169050919050565b60005b8381101561039557808201518184015260208101905061037a565b838111156103a4576000848401525b50505050565b6000601f19601f8301169050919050565b6103c481610361565b81146103cf57600080fd5b5056fea2646970667358221220097805ca78670b9ed59e076a1f8bf23a8bb863413179043d07aefb2a2a4224c064736f6c63430008040033",
  "linkReferences": {},
  "deployedLinkReferences": {}
}