{
  "_format": "hh-sol-artifact-1",
  "contractName": "FactoredBox",
  "sourceName": "contracts/FactoredBox.sol",
  "abi": [
    {
      "inputs": [
        {
          "internalType": "string",
          "name": "initialValue",
          "type": "string"
        }
      ],
      "stateMutability": "nonpayable",
      "type": "constructor"
    },
    {
      "anonymous": false,
      "inputs": [
        {
          "indexed": true,
          "internalType": "address",
          "name": "previousOwner",
          "type": "address"
        },
        {
          "indexed": true,
          "internalType": "address",
          "name": "newOwner",
          "type": "address"
        }
      ],
      "name": "OwnershipTransferred",
      "type": "event"
    },
    {
      "anonymous": false,
      "inputs": [
        {
          "indexed": false,
          "internalType": "bool",
          "name": "newValue",
          "type": "bool"
        }
      ],
      "name": "ShouldRevertChanged",
      "type": "event"
    },
    {
      "anonymous": false,
      "inputs": [
        {
          "indexed": false,
          "internalType": "string",
          "name": "newValue",
          "type": "string"
        }
      ],
      "name": "ValueChanged",
      "type": "event"
    },
    {
      "inputs": [
        {
          "internalType": "string",
          "name": "newValue",
          "type": "string"
        }
      ],
      "name": "changeValueCouldRevert",
      "outputs": [],
      "stateMutability": "nonpayable",
      "type": "function"
    },
    {
      "inputs": [
        {
          "internalType": "string",
          "name": "newValue",
          "type": "string"
        }
      ],
      "name": "changeValueDryRun",
      "outputs": [],
      "stateMutability": "nonpayable",
      "type": "function"
    },
    {
      "inputs": [
        {
          "internalType": "string",
          "name": "newValue",
          "type": "string"
        }
      ],
      "name": "changeValueOwner",
      "outputs": [],
      "stateMutability": "nonpayable",
      "type": "function"
    },
    {
      "inputs": [
        {
          "internalType": "string",
          "name": "_testKey",
          "type": "string"
        }
      ],
      "name": "getMapping",
      "outputs": [
        {
          "internalType": "uint256",
          "name": "",
          "type": "uint256"
        }
      ],
      "stateMutability": "view",
      "type": "function"
    },
    {
      "inputs": [],
      "name": "getValue",
      "outputs": [
        {
          "internalType": "string",
          "name": "",
          "type": "string"
        }
      ],
      "stateMutability": "view",
      "type": "function"
    },
    {
      "inputs": [],
      "name": "getVersion",
      "outputs": [
        {
          "internalType": "string",
          "name": "",
          "type": "string"
        }
      ],
      "stateMutability": "pure",
      "type": "function"
    },
    {
      "inputs": [],
      "name": "owner",
      "outputs": [
        {
          "internalType": "address",
          "name": "",
          "type": "address"
        }
      ],
      "stateMutability": "view",
      "type": "function"
    },
    {
      "inputs": [],
      "name": "renounceOwnership",
      "outputs": [],
      "stateMutability": "nonpayable",
      "type": "function"
    },
    {
      "inputs": [],
      "name": "shouldRevert",
      "outputs": [
        {
          "internalType": "bool",
          "name": "",
          "type": "bool"
        }
      ],
      "stateMutability": "view",
      "type": "function"
    },
    {
      "inputs": [],
      "name": "switchShouldRevert",
      "outputs": [],
      "stateMutability": "nonpayable",
      "type": "function"
    },
    {
      "inputs": [
        {
          "internalType": "string",
          "name": "",
          "type": "string"
        }
      ],
      "name": "testMapping",
      "outputs": [
        {
          "internalType": "uint256",
          "name": "",
          "type": "uint256"
        }
      ],
      "stateMutability": "view",
      "type": "function"
    },
    {
      "inputs": [],
      "name": "testRevert",
      "outputs": [],
      "stateMutability": "pure",
      "type": "function"
    },
    {
      "inputs": [
        {
          "internalType": "address",
          "name": "newOwner",
          "type": "address"
        }
      ],
      "name": "transferOwnership",
      "outputs": [],
      "stateMutability": "nonpayable",
      "type": "function"
    },
    {
      "inputs": [
        {
          "internalType": "string",
          "name": "_testKey",
          "type": "string"
        },
        {
          "internalType": "uint256",
          "name": "_testVal",
          "type": "uint256"
        }
      ],
      "name": "updateMapping",
      "outputs": [],
      "stateMutability": "nonpayable",
      "type": "function"
    }
  ],
  "bytecode": "0x60806040523480156200001157600080fd5b506040516200146738038062001467833981810160405281019062000037919062000280565b620000576200004b6200009260201b60201c565b6200009a60201b60201c565b80600190805190602001906200006f9291906200015e565b506000600260006101000a81548160ff0219169083151502179055505062000435565b600033905090565b60008060009054906101000a900473ffffffffffffffffffffffffffffffffffffffff169050816000806101000a81548173ffffffffffffffffffffffffffffffffffffffff021916908373ffffffffffffffffffffffffffffffffffffffff1602179055508173ffffffffffffffffffffffffffffffffffffffff168173ffffffffffffffffffffffffffffffffffffffff167f8be0079c531659141344cd1fd0a4f28419497f9722a3daafe3b4186f6b6457e060405160405180910390a35050565b8280546200016c906200035a565b90600052602060002090601f016020900481019282620001905760008555620001dc565b82601f10620001ab57805160ff1916838001178555620001dc565b82800160010185558215620001dc579182015b82811115620001db578251825591602001919060010190620001be565b5b509050620001eb9190620001ef565b5090565b5b808211156200020a576000816000905550600101620001f0565b5090565b6000620002256200021f84620002ee565b620002c5565b9050828152602081018484840111156200023e57600080fd5b6200024b84828562000324565b509392505050565b600082601f8301126200026557600080fd5b8151620002778482602086016200020e565b91505092915050565b6000602082840312156200029357600080fd5b600082015167ffffffffffffffff811115620002ae57600080fd5b620002bc8482850162000253565b91505092915050565b6000620002d1620002e4565b9050620002df828262000390565b919050565b6000604051905090565b600067ffffffffffffffff8211156200030c576200030b620003f5565b5b620003178262000424565b9050602081019050919050565b60005b838110156200034457808201518184015260208101905062000327565b8381111562000354576000848401525b50505050565b600060028204905060018216806200037357607f821691505b602082108114156200038a5762000389620003c6565b5b50919050565b6200039b8262000424565b810181811067ffffffffffffffff82111715620003bd57620003bc620003f5565b5b80604052505050565b7f4e487b7100000000000000000000000000000000000000000000000000000000600052602260045260246000fd5b7f4e487b7100000000000000000000000000000000000000000000000000000000600052604160045260246000fd5b6000601f19601f8301169050919050565b61102280620004456000396000f3fe608060405234801561001057600080fd5b50600436106100ea5760003560e01c806363ba13371161008c5780638da5cb5b116100665780638da5cb5b1461020f578063a26388bb1461022d578063d3072d8214610237578063f2fde38b14610255576100ea565b806363ba1337146101cd578063715018a6146101e95780638d73fe89146101f3576100ea565b8063142c9eb5116100c8578063142c9eb51461015957806315b601411461016357806320965255146101935780635f606662146101b1576100ea565b80630d8e6e2c146100ef57806311f45e9c1461010d578063130e16331461013d575b600080fd5b6100f7610271565b6040516101049190610c5e565b60405180910390f35b61012760048036038101906101229190610a08565b6102ae565b6040516101349190610d00565b60405180910390f35b610157600480360381019061015291906109c3565b6102d6565b005b610161610375565b005b61017d60048036038101906101789190610a08565b6103ef565b60405161018a9190610d00565b60405180910390f35b61019b61041d565b6040516101a89190610c5e565b60405180910390f35b6101cb60048036038101906101c69190610a49565b6104ff565b005b6101e760048036038101906101e291906109c3565b610526565b005b6101f1610563565b005b61020d600480360381019061020891906109c3565b610577565b005b6102176105ce565b6040516102249190610c04565b60405180910390f35b6102356105f7565b005b61023f61063a565b60405161024c9190610c1f565b60405180910390f35b61026f600480360381019061026a919061099a565b61064d565b005b60606040518060400160405280600281526020017f5631000000000000000000000000000000000000000000000000000000000000815250905090565b60006003826040516102c09190610bed565b9081526020016040518091039020549050919050565b600260009054906101000a900460ff1615610326576040517f08c379a000000000000000000000000000000000000000000000000000000000815260040161031d90610ce0565b60405180910390fd5b81816001919061033792919061081b565b507fce59a1f2cca0fa1bf7d80c74a303393cb56e768ec38427649054a68be65e11d78282604051610369929190610c3a565b60405180910390a15050565b61037d6106d1565b600260009054906101000a900460ff1615600260006101000a81548160ff0219169083151502179055507f88e95cf2f314e458491f98f3be8f296ee704bfc5b2cbeddcda73b61d44c9060b600260009054906101000a900460ff166040516103e59190610c1f565b60405180910390a1565b6003818051602081018201805184825260208301602085012081835280955050505050506000915090505481565b6060600260009054906101000a900460ff161561046f576040517f08c379a000000000000000000000000000000000000000000000000000000000815260040161046690610ce0565b60405180910390fd5b6001805461047c90610e22565b80601f01602080910402602001604051908101604052809291908181526020018280546104a890610e22565b80156104f55780601f106104ca576101008083540402835291602001916104f5565b820191906000526020600020905b8154815290600101906020018083116104d857829003601f168201915b5050505050905090565b806003836040516105109190610bed565b9081526020016040518091039020819055505050565b7fce59a1f2cca0fa1bf7d80c74a303393cb56e768ec38427649054a68be65e11d78282604051610557929190610c3a565b60405180910390a15050565b61056b6106d1565b610575600061074f565b565b61057f6106d1565b81816001919061059092919061081b565b507fce59a1f2cca0fa1bf7d80c74a303393cb56e768ec38427649054a68be65e11d782826040516105c2929190610c3a565b60405180910390a15050565b60008060009054906101000a900473ffffffffffffffffffffffffffffffffffffffff16905090565b6000610638576040517f08c379a000000000000000000000000000000000000000000000000000000000815260040161062f90610c80565b60405180910390fd5b565b600260009054906101000a900460ff1681565b6106556106d1565b600073ffffffffffffffffffffffffffffffffffffffff168173ffffffffffffffffffffffffffffffffffffffff1614156106c5576040517f08c379a00000000000000000000000000000000000000000000000000000000081526004016106bc90610ca0565b60405180910390fd5b6106ce8161074f565b50565b6106d9610813565b73ffffffffffffffffffffffffffffffffffffffff166106f76105ce565b73ffffffffffffffffffffffffffffffffffffffff161461074d576040517f08c379a000000000000000000000000000000000000000000000000000000000815260040161074490610cc0565b60405180910390fd5b565b60008060009054906101000a900473ffffffffffffffffffffffffffffffffffffffff169050816000806101000a81548173ffffffffffffffffffffffffffffffffffffffff021916908373ffffffffffffffffffffffffffffffffffffffff1602179055508173ffffffffffffffffffffffffffffffffffffffff168173ffffffffffffffffffffffffffffffffffffffff167f8be0079c531659141344cd1fd0a4f28419497f9722a3daafe3b4186f6b6457e060405160405180910390a35050565b600033905090565b82805461082790610e22565b90600052602060002090601f0160209004810192826108495760008555610890565b82601f1061086257803560ff1916838001178555610890565b82800160010185558215610890579182015b8281111561088f578235825591602001919060010190610874565b5b50905061089d91906108a1565b5090565b5b808211156108ba5760008160009055506001016108a2565b5090565b60006108d16108cc84610d40565b610d1b565b9050828152602081018484840111156108e957600080fd5b6108f4848285610de0565b509392505050565b60008135905061090b81610fbe565b92915050565b60008083601f84011261092357600080fd5b8235905067ffffffffffffffff81111561093c57600080fd5b60208301915083600182028301111561095457600080fd5b9250929050565b600082601f83011261096c57600080fd5b813561097c8482602086016108be565b91505092915050565b60008135905061099481610fd5565b92915050565b6000602082840312156109ac57600080fd5b60006109ba848285016108fc565b91505092915050565b600080602083850312156109d657600080fd5b600083013567ffffffffffffffff8111156109f057600080fd5b6109fc85828601610911565b92509250509250929050565b600060208284031215610a1a57600080fd5b600082013567ffffffffffffffff811115610a3457600080fd5b610a408482850161095b565b91505092915050565b60008060408385031215610a5c57600080fd5b600083013567ffffffffffffffff811115610a7657600080fd5b610a828582860161095b565b9250506020610a9385828601610985565b9150509250929050565b610aa681610d98565b82525050565b610ab581610daa565b82525050565b6000610ac78385610d7c565b9350610ad4838584610de0565b610add83610ee3565b840190509392505050565b6000610af382610d71565b610afd8185610d7c565b9350610b0d818560208601610def565b610b1681610ee3565b840191505092915050565b6000610b2c82610d71565b610b368185610d8d565b9350610b46818560208601610def565b80840191505092915050565b6000610b5f601783610d7c565b9150610b6a82610ef4565b602082019050919050565b6000610b82602683610d7c565b9150610b8d82610f1d565b604082019050919050565b6000610ba5602083610d7c565b9150610bb082610f6c565b602082019050919050565b6000610bc8600d83610d7c565b9150610bd382610f95565b602082019050919050565b610be781610dd6565b82525050565b6000610bf98284610b21565b915081905092915050565b6000602082019050610c196000830184610a9d565b92915050565b6000602082019050610c346000830184610aac565b92915050565b60006020820190508181036000830152610c55818486610abb565b90509392505050565b60006020820190508181036000830152610c788184610ae8565b905092915050565b60006020820190508181036000830152610c9981610b52565b9050919050565b60006020820190508181036000830152610cb981610b75565b9050919050565b60006020820190508181036000830152610cd981610b98565b9050919050565b60006020820190508181036000830152610cf981610bbb565b9050919050565b6000602082019050610d156000830184610bde565b92915050565b6000610d25610d36565b9050610d318282610e54565b919050565b6000604051905090565b600067ffffffffffffffff821115610d5b57610d5a610eb4565b5b610d6482610ee3565b9050602081019050919050565b600081519050919050565b600082825260208201905092915050565b600081905092915050565b6000610da382610db6565b9050919050565b60008115159050919050565b600073ffffffffffffffffffffffffffffffffffffffff82169050919050565b6000819050919050565b82818337600083830152505050565b60005b83811015610e0d578082015181840152602081019050610df2565b83811115610e1c576000848401525b50505050565b60006002820490506001821680610e3a57607f821691505b60208210811415610e4e57610e4d610e85565b5b50919050565b610e5d82610ee3565b810181811067ffffffffffffffff82111715610e7c57610e7b610eb4565b5b80604052505050565b7f4e487b7100000000000000000000000000000000000000000000000000000000600052602260045260246000fd5b7f4e487b7100000000000000000000000000000000000000000000000000000000600052604160045260246000fd5b6000601f19601f8301169050919050565b7f43616c6c20686173206265656e20726576657274656421000000000000000000600082015250565b7f4f776e61626c653a206e6577206f776e657220697320746865207a65726f206160008201527f6464726573730000000000000000000000000000000000000000000000000000602082015250565b7f4f776e61626c653a2063616c6c6572206973206e6f7420746865206f776e6572600082015250565b7f53657420746f2072657665727400000000000000000000000000000000000000600082015250565b610fc781610d98565b8114610fd257600080fd5b50565b610fde81610dd6565b8114610fe957600080fd5b5056fea2646970667358221220009b7db15e9a1056ab77d6324b0f585f8ce0f267d2250abc33e069845db4fb6064736f6c63430008040033",
  "linkReferences": {},
  "deployedLinkReferences": {}
}