{
  "address": "0x4e631f7F470B7FB4465fe82e68CF47Bd9ea94838",
  "abi": [
    {
      "inputs": [
        {
          "internalType": "uint256",
          "name": "",
          "type": "uint256"
        }
      ],
      "name": "boxes",
      "outputs": [
        {
          "internalType": "contract FactoredBox",
          "name": "",
          "type": "address"
        }
      ],
      "stateMutability": "view",
      "type": "function"
    },
    {
      "inputs": [
        {
          "internalType": "string",
          "name": "_value",
          "type": "string"
        }
      ],
      "name": "createNewBox",
      "outputs": [],
      "stateMutability": "nonpayable",
      "type": "function"
    },
    {
      "inputs": [],
      "name": "getAllBoxes",
      "outputs": [
        {
          "internalType": "contract FactoredBox[]",
          "name": "",
          "type": "address[]"
        }
      ],
      "stateMutability": "view",
      "type": "function"
    }
  ],
  "transactionHash": "0xaba6e64180a28e6a47fe425206c9dec157884c2955817969879897199c58f7ab",
  "args": [],
  "numDeployments": 1,
  "solcInputHash": "d3fb2a9197c711d3050946d1819a6585",
  "bytecode": "0x608060405234801561001057600080fd5b50610f5b806100206000396000f3fe608060405234801561001057600080fd5b50600436106100415760003560e01c806306310c9d146100465780634ed3faf214610064578063b5966acb1461008f575b600080fd5b61004e6100a4565b60405161005b9190610286565b60405180910390f35b61007761007236600461026e565b610106565b6040516001600160a01b03909116815260200161005b565b6100a261009d3660046101c4565b610130565b005b606060008054806020026020016040519081016040528092919081815260200182805480156100fc57602002820191906000526020600020905b81546001600160a01b031681526001909101906020018083116100de575b5050505050905090565b6000818154811061011657600080fd5b6000918252602090912001546001600160a01b0316905081565b60008160405161013f906101b7565b61014991906102d3565b604051809103906000f080158015610165573d6000803e3d6000fd5b50600080546001810182559080527f290decd9548b62a8d60345a988386fc84ba6bc95484008f6362f93160ef3e5630180546001600160a01b0319166001600160a01b03929092169190911790555050565b610be98061033d83390190565b6000602082840312156101d5578081fd5b813567ffffffffffffffff808211156101ec578283fd5b818401915084601f8301126101ff578283fd5b81358181111561021157610211610326565b604051601f8201601f19908116603f0116810190838211818310171561023957610239610326565b81604052828152876020848701011115610251578586fd5b826020860160208301379182016020019490945295945050505050565b60006020828403121561027f578081fd5b5035919050565b6020808252825182820181905260009190848201906040850190845b818110156102c75783516001600160a01b0316835292840192918401916001016102a2565b50909695505050505050565b6000602080835283518082850152825b818110156102ff578581018301518582016040015282016102e3565b818111156103105783604083870101525b50601f01601f1916929092016040019392505050565b634e487b7160e01b600052604160045260246000fdfe60806040523480156200001157600080fd5b5060405162000be938038062000be983398101604081905262000034916200015c565b6200003f3362000066565b805162000054906001906020840190620000b6565b50506002805460ff1916905562000285565b600080546001600160a01b038381166001600160a01b0319831681178455604051919092169283917f8be0079c531659141344cd1fd0a4f28419497f9722a3daafe3b4186f6b6457e09190a35050565b828054620000c49062000232565b90600052602060002090601f016020900481019282620000e8576000855562000133565b82601f106200010357805160ff191683800117855562000133565b8280016001018555821562000133579182015b828111156200013357825182559160200191906001019062000116565b506200014192915062000145565b5090565b5b8082111562000141576000815560010162000146565b600060208083850312156200016f578182fd5b82516001600160401b038082111562000186578384fd5b818501915085601f8301126200019a578384fd5b815181811115620001af57620001af6200026f565b604051601f8201601f19908116603f01168101908382118183101715620001da57620001da6200026f565b816040528281528886848701011115620001f2578687fd5b8693505b82841015620002155784840186015181850187015292850192620001f6565b828411156200022657868684830101525b98975050505050505050565b600181811c908216806200024757607f821691505b602082108114156200026957634e487b7160e01b600052602260045260246000fd5b50919050565b634e487b7160e01b600052604160045260246000fd5b61095480620002956000396000f3fe608060405234801561001057600080fd5b50600436106100ea5760003560e01c806363ba13371161008c5780638da5cb5b116100665780638da5cb5b146101d1578063a26388bb146101ec578063d3072d82146101f4578063f2fde38b1461021157600080fd5b806363ba1337146101a3578063715018a6146101b65780638d73fe89146101be57600080fd5b8063142c9eb5116100c8578063142c9eb51461015557806315b601411461015d57806320965255146101885780635f6066621461019057600080fd5b80630d8e6e2c146100ef57806311f45e9c1461011f578063130e163314610140575b600080fd5b604080518082019091526002815261563160f01b60208201525b604051610116919061086a565b60405180910390f35b61013261012d3660046107a1565b610224565b604051908152602001610116565b61015361014e366004610734565b61024c565b005b6101536102de565b61013261016b3660046107a1565b805160208183018101805160038252928201919093012091525481565b610109610333565b61015361019e3660046107dc565b610409565b6101536101b1366004610734565b61042e565b61015361045f565b6101536101cc366004610734565b610473565b6000546040516001600160a01b039091168152602001610116565b61015361047b565b6002546102019060ff1681565b6040519015158152602001610116565b61015361021f366004610706565b6104c3565b6000600382604051610236919061081f565b9081526020016040518091039020549050919050565b60025460ff16156102945760405162461bcd60e51b815260206004820152600d60248201526c14d95d081d1bc81c995d995c9d609a1b60448201526064015b60405180910390fd5b6102a0600183836105e6565b507fce59a1f2cca0fa1bf7d80c74a303393cb56e768ec38427649054a68be65e11d782826040516102d292919061083b565b60405180910390a15050565b6102e661053c565b6002805460ff8082161560ff1990921682179092556040519116151581527f88e95cf2f314e458491f98f3be8f296ee704bfc5b2cbeddcda73b61d44c9060b9060200160405180910390a1565b60025460609060ff16156103795760405162461bcd60e51b815260206004820152600d60248201526c14d95d081d1bc81c995d995c9d609a1b604482015260640161028b565b60018054610386906108cd565b80601f01602080910402602001604051908101604052809291908181526020018280546103b2906108cd565b80156103ff5780601f106103d4576101008083540402835291602001916103ff565b820191906000526020600020905b8154815290600101906020018083116103e257829003601f168201915b5050505050905090565b8060038360405161041a919061081f565b908152604051908190036020019020555050565b7fce59a1f2cca0fa1bf7d80c74a303393cb56e768ec38427649054a68be65e11d782826040516102d292919061083b565b61046761053c565b6104716000610596565b565b61029461053c565b60405162461bcd60e51b815260206004820152601760248201527f43616c6c20686173206265656e20726576657274656421000000000000000000604482015260640161028b565b6104cb61053c565b6001600160a01b0381166105305760405162461bcd60e51b815260206004820152602660248201527f4f776e61626c653a206e6577206f776e657220697320746865207a65726f206160448201526564647265737360d01b606482015260840161028b565b61053981610596565b50565b6000546001600160a01b031633146104715760405162461bcd60e51b815260206004820181905260248201527f4f776e61626c653a2063616c6c6572206973206e6f7420746865206f776e6572604482015260640161028b565b600080546001600160a01b038381166001600160a01b0319831681178455604051919092169283917f8be0079c531659141344cd1fd0a4f28419497f9722a3daafe3b4186f6b6457e09190a35050565b8280546105f2906108cd565b90600052602060002090601f016020900481019282610614576000855561065a565b82601f1061062d5782800160ff1982351617855561065a565b8280016001018555821561065a579182015b8281111561065a57823582559160200191906001019061063f565b5061066692915061066a565b5090565b5b80821115610666576000815560010161066b565b600082601f83011261068f578081fd5b813567ffffffffffffffff808211156106aa576106aa610908565b604051601f8301601f19908116603f011681019082821181831017156106d2576106d2610908565b816040528381528660208588010111156106ea578485fd5b8360208701602083013792830160200193909352509392505050565b600060208284031215610717578081fd5b81356001600160a01b038116811461072d578182fd5b9392505050565b60008060208385031215610746578081fd5b823567ffffffffffffffff8082111561075d578283fd5b818501915085601f830112610770578283fd5b81358181111561077e578384fd5b86602082850101111561078f578384fd5b60209290920196919550909350505050565b6000602082840312156107b2578081fd5b813567ffffffffffffffff8111156107c8578182fd5b6107d48482850161067f565b949350505050565b600080604083850312156107ee578182fd5b823567ffffffffffffffff811115610804578283fd5b6108108582860161067f565b95602094909401359450505050565b6000825161083181846020870161089d565b9190910192915050565b60208152816020820152818360408301376000818301604090810191909152601f909201601f19160101919050565b602081526000825180602084015261088981604085016020870161089d565b601f01601f19169190910160400192915050565b60005b838110156108b85781810151838201526020016108a0565b838111156108c7576000848401525b50505050565b600181811c908216806108e157607f821691505b6020821081141561090257634e487b7160e01b600052602260045260246000fd5b50919050565b634e487b7160e01b600052604160045260246000fdfea264697066735822122057c7eb1f7a0e76c99ee0d8540fc584d3cdefb3cf29e3075af7e82d06d77550c664736f6c63430008040033a2646970667358221220f91e8add06748148e6f0b4f2b2b997309fd3b3fd9008e82a9d75baf457c146ab64736f6c63430008040033",
  "devdoc": {
    "kind": "dev",
    "methods": {},
    "version": 1
  },
  "userdoc": {
    "kind": "user",
    "methods": {},
    "version": 1
  },
  "storageLayout": {
    "storage": [
      {
        "astId": 9808,
        "contract": "contracts/FactoredBox.sol:BoxFactory",
        "label": "boxes",
        "offset": 0,
        "slot": "0",
        "type": "t_array(t_contract(FactoredBox)9991)dyn_storage"
      }
    ],
    "types": {
      "t_array(t_contract(FactoredBox)9991)dyn_storage": {
        "base": "t_contract(FactoredBox)9991",
        "encoding": "dynamic_array",
        "label": "contract FactoredBox[]",
        "numberOfBytes": "32"
      },
      "t_contract(FactoredBox)9991": {
        "encoding": "inplace",
        "label": "contract FactoredBox",
        "numberOfBytes": "20"
      }
    }
  }
}